:020000040800F2
:1000000000500020556100080560000811600008DC
:10001000176000081D600008236000080000000051
:10002000000000000000000000000000296000083F
:100030003560000800000000416000084D600008C5
:100040009D6100089D6100089D6100089D61000898
:100050009D6100089D6100089D6100089D61000888
:100060009D6100085D6000089D6100089D610008B9
:100070009D6100089D6100089D6100086D60000899
:100080009D6100089D6100089D6100089D61000858
:100090009D6100089D6100089D6100089D61000848
:1000A0009D6100089D6100089D6100089D61000838
:1000B0009D6100089D6100089D6100089D61000828
:1000C0009D6100089D6100089D6100089D61000818
:1000D0009D610008816000089D6100089D61000825
:1000E0009D6100089D6100089D61000800000000FE
:1000F0000000000000000000000000000000000000
:0C01000000000000000000005FF808F1A3
:10010C0010B5054C237833B9044B13B10448AFF345
:10011C0000800123237010BD700800200000000037
:10012C00F469000808B5034B1BB103490348AFF34E
:10013C00008008BD0000000074080020F46900086D
:10014C0081F0004102E000BF83F0004330B54FEA7C
:10015C0041044FEA430594EA050F08BF90EA020FE9
:10016C001FBF54EA000C55EA020C7FEA645C7FEA7C
:10017C00655C00F0E2804FEA5454D4EB5555B8BF9F
:10018C006D420CDD2C4480EA020281EA030382EA10
:10019C00000083EA010180EA020281EA0303362DA2
:1001AC0088BF30BD11F0004F4FEA01314FF4801C75
:1001BC004CEA113102D0404261EB410113F0004F87
:1001CC004FEA03334CEA133302D0524263EB43033E
:1001DC0094EA050F00F0A780A4F10104D5F1200EDC
:1001EC000DDB02FA0EFC22FA05F2801841F1000137
:1001FC0003FA0EF2801843FA05F359410EE0A5F10B
:10020C0020050EF1200E012A03FA0EFC28BF4CF03B
:10021C00020C43FA05F3C01851EBE37101F00045F1
:10022C0007D54FF0000EDCF1000C7EEB00006EEBFE
:10023C000101B1F5801F1BD3B1F5001F0CD3490888
:10024C005FEA30004FEA3C0C04F101044FEA4452DF
:10025C0012F5800F80F09A80BCF1004F08BF5FEA66
:10026C00500C50F1000041EB045141EA050130BD46
:10027C005FEA4C0C404141EB0101013C28BFB1F558
:10028C00801FE9D291F0000F04BF01460020B1FAA3
:10029C0081F308BF2033A3F10B03B3F120020CDA76
:1002AC000C3208DD02F1140CC2F10C0201FA0CF054
:1002BC0021FA02F10CE002F11402D8BFC2F1200CB9
:1002CC0001FA02F120FA0CFCDCBF41EA0C0190406F
:1002DC00E41AA2BF01EB0451294330BD6FEA0404B8
:1002EC001F3C1CDA0C340EDC04F11404C4F12002A3
:1002FC0020FA04F001FA02F340EA030021FA04F3B5
:10030C0045EA030130BDC4F10C04C4F1200220FA0B
:10031C0002F001FA04F340EA0300294630BD21FA49
:10032C0004F0294630BD94F0000F83F4801306BF0F
:10033C0081F480110134013D4EE77FEA645C18BF03
:10034C007FEA655C29D094EA050F08BF90EA020F9A
:10035C0005D054EA000C04BF1946104630BD91EA92
:10036C00030F1EBF0021002030BD5FEA545C05D195
:10037C004000494128BF41F0004130BD14F58004D4
:10038C003CBF01F5801130BD01F0004545F0FE4148
:10039C0041F470014FF0000030BD7FEA645C1ABF7D
:1003AC00194610467FEA655C1CBF0B46024650EAB4
:1003BC00013406BF52EA033591EA030F41F40021E0
:1003CC0030BD00BF90F0000F04BF0021704730B566
:1003DC004FF4806404F132044FF000054FF000013B
:1003EC0050E700BF90F0000F04BF0021704730B5FC
:1003FC004FF4806404F1320410F0004548BF4042D1
:10040C004FF000013EE700BF42004FEAE2014FEA25
:10041C0031014FEA02701FBF12F07F4393F07F4F00
:10042C0081F06051704732F07F4208BF704793F003
:10043C007F4F04BF41F40021704730B54FF4607416
:10044C0001F0004521F000411CE700BF50EA010219
:10045C0008BF704730B54FF000050AE050EA0102C2
:10046C0008BF704730B511F0004502D5404261EB32
:10047C0041014FF4806404F132045FEA915C3FF473
:10048C00D8AE4FF003025FEADC0C18BF03325FEA10
:10049C00DC0C18BF033202EBDC02C2F1200300FAC1
:1004AC0003FC20FA02F001FA03FE40EA0E0021FAE6
:1004BC0002F11444BDE600BF4FF0FF3C06E000BF64
:1004CC004FF0010C02E000BF4FF0010C4DF804CDD1
:1004DC004FEA410C7FEA6C5C4FEA430C18BF7FEA91
:1004EC006C5C1BD001B050EA410C0CBF52EA430CBF
:1004FC0091EA030F02BF90EA020F0020704710F13F
:10050C00000F91EA030F58BF994208BF90422CBFCD
:10051C00D8176FEAE37040F0010070474FEA410CC6
:10052C007FEA6C5C02D150EA013C07D14FEA430CE4
:10053C007FEA6C5CD6D152EA033CD3D05DF8040B55
:10054C00704700BF8446104662468C461946634687
:10055C0000E000BF01B5FFF7B7FF002848BF10F15E
:10056C00000F01BD4DF808EDFFF7F4FF0CBF0120A3
:10057C0000205DF808FB00BF4DF808EDFFF7EAFF1F
:10058C0034BF012000205DF808FB00BF4DF808EDDA
:10059C00FFF7E0FF94BF012000205DF808FB00BFCF
:1005AC004DF808EDFFF7CEFF94BF012000205DF859
:1005BC0008FB00BF4DF808EDFFF7C4FF34BF012066
:1005CC0000205DF808FB00BF80F0004002E000BF97
:1005DC0081F0004142001FBF5FEA410392EA030F22
:1005EC007FEA226C7FEA236C6AD04FEA1262D2EB6C
:1005FC001363C1BFD218414048404140B8BF5B4271
:10060C00192B88BF704710F0004F40F4000020F009
:10061C007F4018BF404211F0004F41F4000121F01F
:10062C007F4118BF494292EA030F3FD0A2F1010269
:10063C0041FA03FC10EB0C00C3F1200301FA03F1A7
:10064C0000F0004302D5494260EB4000B0F5000FCA
:10065C0013D3B0F1807F06D340084FEA310102F189
:10066C000102FE2A51D2B1F1004F40EBC25008BF3B
:10067C0020F0010040EA03007047490040EB000005
:10068C00013A28BFB0F5000FEDD2B0FA80FCACF106
:10069C00080CB2EB0C0200FA0CF0AABF00EBC25033
:1006AC0052421843BCBFD0401843704792F0000F21
:1006BC0081F4000106BF80F400000132013BB5E774
:1006CC004FEA41037FEA226C18BF7FEA236C21D0EA
:1006DC0092EA030F04D092F0000F08BF084670474F
:1006EC0090EA010F1CBF0020704712F07F4F04D11D
:1006FC00400028BF40F00040704712F100723CBF30
:10070C0000F50000704700F0004343F0FE4040F459
:10071C00000070477FEA226216BF08467FEA236317
:10072C000146420206BF5FEA412390EA010F40F402
:10073C00800070474FF0000304E000BF10F000434E
:10074C0048BF40425FEA000C08BF704743F0964335
:10075C0001464FF000001CE050EA010208BF704750
:10076C004FF000030AE000BF50EA010208BF7047D7
:10077C0011F0004302D5404261EB41015FEA010CEC
:10078C0002BF84460146002043F0B64308BFA3F1E4
:10079C008053A3F50003BCFA8CF2083AA3EBC253C6
:1007AC0010DB01FA02FC634400FA02FCC2F12002E5
:1007BC00BCF1004F20FA02F243EB020008BF20F01C
:1007CC000100704702F1200201FA02FCC2F1200282
:1007DC0050EA4C0021FA02F243EB020008BF20EA77
:1007EC00DC7070474FF0FF0C1CEAD0521EBF1CEAA5
:1007FC00D15392EA0C0F93EA0C0F6FD01A4480EA93
:10080C00010C400218BF5FEA41211ED04FF000637B
:10081C0043EA501043EA5111A0FB01310CF00040A7
:10082C00B1F5000F3EBF490041EAD3715B0040EACD
:10083C00010062F17F02FD2A1DD8B3F1004F40EB9D
:10084C00C25008BF20F00100704790F0000F0CF070
:10085C00004C08BF49024CEA502040EA51207F3A34
:10086C00C2BFD2F1FF0340EAC250704740F400000F
:10087C004FF00003013A5DDC12F1190FDCBF00F000
:10088C0000407047C2F10002410021FA02F1C2F1AE
:10089C00200200FA02FC5FEA310040F1000053EA4A
:1008AC004C0308BF20EADC70704792F0000F00F098
:1008BC00004C02BF400010F4000F013AF9D040EA9E
:1008CC000C0093F0000F01F0004C02BF490011F432
:1008DC00000F013BF9D041EA0C018FE70CEAD15330
:1008EC0092EA0C0F18BF93EA0C0F0AD030F0004CB0
:1008FC0018BF31F0004CD8D180EA010000F0004064
:10090C00704790F0000F17BF90F0004F084691F021
:10091C00000F91F0004F14D092EA0C0F01D142025B
:10092C000FD193EA0C0F03D14B0218BF084608D124
:10093C0080EA010000F0004040F0FE4040F400006E
:10094C00704740F0FE4040F4400070474FF0FF0C01
:10095C001CEAD0521EBF1CEAD15392EA0C0F93EA48
:10096C000C0F69D0A2EB030280EA010C49024FEA9A
:10097C00402037D04FF0805343EA111143EA101353
:10098C000CF000408B4238BF5B0042F17D024FF40B
:10099C00000C8B4224BF5B1A40EA0C00B3EB510FE6
:1009AC0024BFA3EB510340EA5C00B3EB910F24BFCF
:1009BC00A3EB910340EA9C00B3EBD10F24BFA3EB54
:1009CC00D10340EADC001B0118BF5FEA1C1CE0D11C
:1009DC00FD2A3FF650AF8B4240EBC25008BF20F0CF
:1009EC00010070470CF0004C4CEA50207F32C2BF23
:1009FC00D2F1FF0340EAC250704740F400004FF0C0
:100A0C000003013A37E792F0000F00F0004C02BFF0
:100A1C00400010F4000F013AF9D040EA0C0093F0BA
:100A2C00000F01F0004C02BF490011F4000F013B14
:100A3C00F9D041EA0C0195E70CEAD15392EA0C0F7C
:100A4C0008D142027FF47DAF93EA0C0F7FF470AFB4
:100A5C00084676E793EA0C0F04D14B023FF44CAFF7
:100A6C0008466EE730F0004C18BF31F0004CCAD18C
:100A7C0030F000427FF45CAF31F000437FF43CAFC8
:100A8C005FE700BF4FF0FF3C06E000BF4FF0010CEA
:100A9C0002E000BF4FF0010C4DF804CD4FEA4002CC
:100AAC004FEA41037FEA226C18BF7FEA236C11D016
:100ABC0001B052EA530C18BF90EA010F58BFB2EBC9
:100ACC00030088BFC81738BF6FEAE17018BF40F049
:100ADC00010070477FEA226C02D15FEA402C05D1FD
:100AEC007FEA236CE4D15FEA412CE1D05DF8040B82
:100AFC00704700BF844608466146FFE70FB5FFF715
:100B0C00C9FF002848BF10F1000F0FBD4DF808EDCC
:100B1C00FFF7F4FF0CBF012000205DF808FB00BFBD
:100B2C004DF808EDFFF7EAFF34BF012000205DF817
:100B3C0008FB00BF4DF808EDFFF7E0FF94BF012064
:100B4C0000205DF808FB00BF4DF808EDFFF7D2FF61
:100B5C0094BF012000205DF808FB00BF4DF808EDA4
:100B6C00FFF7C8FF34BF012000205DF808FB00BF71
:100B7C0042000ED2B2F1FE4F0BD34FF09E03B3EBFB
:100B8C00126209D44FEA002343F0004323FA02F027
:100B9C0070474FF00000704712F1610F01D1420213
:100BAC0002D14FF0FF3070474FF00000704700BF8C
:100BBC0080B500AF084B1B68074A43F01003136065
:100BCC00032000F047F90F2000F008F805F07AF840
:100BDC000023184680BD00BF0020024080B582B0C3
:100BEC0000AF7860124B1A68124B1B7819464FF401
:100BFC007A73B3FBF1F3B2FBF3F3184600F05FF931
:100C0C000346002B01D001230EE07B680F2B0AD882
:100C1C00002279684FF0FF3000F027F9064A7B6814
:100C2C001360002300E0012318460837BD4680BD41
:100C3C0028000020040000200000002080B400AF39
:100C4C00054B1B781A46054B1B681344034A13606B
:100C5C0000BFBD4680BC7047040000208C080020FB
:100C6C0080B400AF024B1B681846BD4680BC704771
:100C7C008C08002080B584B000AF7860FFF7F0FFDF
:100C8C00B8607B68FB60FB68B3F1FF3F05D00A4B93
:100C9C001B781A46FB681344FB6000BFFFF7E0FFAC
:100CAC000246BB68D31AFA689A42F7D800BF00BF55
:100CBC001037BD4680BD00BF0400002080B485B055
:100CCC0000AF78607B6803F00703FB600C4BDB68BC
:100CDC00BB60BA684FF6FF031340BB60FB681A0297
:100CEC00BB68134343F0BF6343F40033BB60044A57
:100CFC00BB68D36000BF1437BD4680BC704700BFD3
:100D0C0000ED00E080B400AF044BDB681B0A03F07D
:100D1C0007031846BD4680BC704700BF00ED00E0DD
:100D2C0080B483B000AF0346FB7197F90730002BFA
:100D3C000BDBFB7903F01F02064997F907305B09BF
:100D4C00012000FA02F241F8232000BF0C37BD4607
:100D5C0080BC704700E100E080B483B000AF034674
:100D6C003960FB7197F90730002B0ADB3B68DAB26C
:100D7C000C4997F907301201D2B20B4483F80023C7
:100D8C000AE03B68DAB20849FB7903F00F03043B35
:100D9C001201D2B20B441A7600BF0C37BD4680BC90
:100DAC00704700BF00E100E000ED00E080B489B0C6
:100DBC0000AFF860B9607A60FB6803F00703FB6171
:100DCC00FB69C3F10703042B28BF0423BB61FB6938
:100DDC000433062B02D9FB69033B00E000237B6143
:100DEC004FF0FF32BB6902FA03F3DA43BB681A40D7
:100DFC007B699A404FF0FF317B6901FA03F3D943C9
:100E0C007B680B40134318462437BD4680BC7047A3
:100E1C0080B582B000AF78607B68013BB3F1807F16
:100E2C0001D301230FE00A4A7B68013B53600F2179
:100E3C004FF0FF30FFF790FF054B00229A60044BF8
:100E4C0007221A60002318460837BD4680BD00BF34
:100E5C0010E000E080B582B000AF78607868FFF7F2
:100E6C002DFF00BF0837BD4680BD80B586B000AFF2
:100E7C000346B9607A60FB7300237B61FFF742FF86
:100E8C0078617A68B9687869FFF790FF024697F93C
:100E9C000F3011461846FFF75FFF00BF1837BD46ED
:100EAC0080BD80B582B000AF0346FB7197F9073067
:100EBC001846FFF735FF00BF0837BD4680BD80B52B
:100ECC0082B000AF78607868FFF7A2FF034618463F
:100EDC000837BD4680BD80B582B000AF78607B68B6
:100EEC00002B01D101230EE07B685B79DBB2002B78
:100EFC0005D17B6800221A71786804F015FF7B68B5
:100F0C0001225A71002318460837BD4680BD0000E7
:100F1C0080B485B000AF78600023FB607B68002B49
:100F2C0001D1012343E07B681B681A46224B134412
:100F3C00224AA2FB03231B099A007B681A647B6874
:100F4C001F4ADA637B68022283F821207B681B68C6
:100F5C001B68FB60FB6823F47F5323F03003FB60BA
:100F6C007B685A687B689B681A437B68DB681A430A
:100F7C007B681B691A437B685B691A437B689B69B6
:100F8C001A437B68DB691343FA681343FB607B6885
:100F9C001B68FA681A607B6800229A637B680122DE
:100FAC0083F821207B68002283F820200023184638
:100FBC001437BD4680BC7047F8FFFDBFCDCCCCCC00
:100FCC000000024080B586B000AFF860B9607A606E
:100FDC003B600023FB75FB6893F82030012B01D19B
:100FEC0002234AE0FB68012283F82020FB6893F877
:100FFC002130012B3AD1FB68022283F82120FB68B7
:10100C0000229A63FB681B681A68FB681B6822F055
:10101C0001021A603B687A68B968F86800F0F3F965
:10102C00FB68DB6A002B08D0FB681B681A68FB683E
:10103C001B6842F00E021A600FE0FB681B681A680E
:10104C00FB681B6822F004021A60FB681B681A68B4
:10105C00FB681B6842F00A021A60FB681B681A687E
:10106C00FB681B6842F001021A6005E0FB68002275
:10107C0083F820200223FB75FB7D18461837BD46EC
:10108C0080BD80B485B000AF78600023FB737B68B3
:10109C0093F82130022B08D07B6804229A637B687A
:1010AC00002283F82020012320E07B681B681A684B
:1010BC007B681B6822F00E021A607B681B681A683A
:1010CC007B681B6822F001021A607B681A6C7B68D3
:1010DC00DB6B012101FA02F25A607B68012283F872
:1010EC0021207B68002283F82020FB7B18461437D4
:1010FC00BD4680BC7047000080B584B000AF7860FE
:10110C000023FB737B6893F82130022B05D07B689E
:10111C0004229A630123FB7351E07B681B681A68F5
:10112C007B681B6822F00E021A607B681B681A68C9
:10113C007B681B6822F001021A607B681B68224ADC
:10114C00934229D07B681B68204A934222D07B684B
:10115C001B681F4A93421AD07B681B681D4A934236
:10116C0012D07B681B681C4A93420AD07B681B68B0
:10117C001A4A934202D14FF480130EE04FF0807361
:10118C000BE04FF4803308E04FF4805305E04FF44C
:10119C00807302E0102300E00123114A53607B6846
:1011AC00012283F821207B68002283F820207B68B1
:1011BC005B6B002B03D07B685B6B78689847FB7B81
:1011CC0018461037BD4680BD080002401C00024086
:1011DC003000024044000240580002406C000240C3
:1011EC000000024080B584B000AF78607B68DB6B98
:1011FC001B68FB607B681B681B68BB607B681B6C97
:10120C0004229A40FB681340002B4FD0BB6803F0BC
:10121C000403002B4AD07B681B681B6803F0200377
:10122C00002B07D17B681B681A687B681B6822F04F
:10123C0004021A607B681B68664A934229D07B685B
:10124C001B68654A934222D07B681B68634A9342B1
:10125C001AD07B681B68624A934212D07B681B6869
:10126C00604A93420AD07B681B685F4A934202D162
:10127C004FF480030EE04FF080630BE04FF48023BB
:10128C0008E04FF4804305E04FF4806302E0402314
:10129C0000E00423554A53607B68DB6A002B00F0A6
:1012AC0094807B68DB6A786898478EE07B681B6C5F
:1012BC0002229A40FB681340002B56D0BB6803F007
:1012CC000203002B51D07B681B681B6803F02003C2
:1012DC00002B0BD17B681B681A687B681B6822F09B
:1012EC000A021A607B68012283F821207B681B6844
:1012FC00384A934229D07B681B68374A934222D0E4
:10130C007B681B68354A93421AD07B681B68344A49
:10131C00934212D07B681B68324A93420AD07B6896
:10132C001B68314A934202D14FF400130EE04FF088
:10133C0000730BE04FF4003308E04FF4005305E06A
:10134C004FF4007302E0202300E00223274A53608D
:10135C007B68002283F820207B689B6A002B34D0AA
:10136C007B689B6A786898472FE07B681B6C082227
:10137C009A40FB681340002B28D0BB6803F008038D
:10138C00002B23D07B681B681A687B681B6822F0D3
:10139C000E021A607B681A6C7B68DB6B012101FA08
:1013AC0002F25A607B6801229A637B68012283F8FF
:1013BC0021207B68002283F820207B681B6B002B8C
:1013CC0004D07B681B6B7868984700BF00BF103750
:1013DC00BD4680BD080002401C00024030000240A7
:1013EC0044000240580002406C00024000000240E1
:1013FC0080B483B000AF78607B689B6B18460C3769
:10140C00BD4680BC704780B485B000AFF860B96051
:10141C007A603B60FB681A6CFB68DB6B012101FA9C
:10142C0002F25A60FB681B683A685A60FB685B689A
:10143C00102B08D1FB681B687A689A60FB681B68E4
:10144C00BA68DA6007E0FB681B68BA689A60FB68E8
:10145C001B687A68DA6000BF1437BD4680BC7047E1
:10146C00F0B587B000AFF860B960C7E9002301237D
:10147C00FB750023BB7500237B752F4B1B7E012B4B
:10148C0001D1022354E02C4B01221A764CF250303D
:10149C0000F0A8F80346FB75FB7D002B44D1FB68DC
:1014AC00012B02D101237B7507E0FB68022B02D1D3
:1014BC0002237B7501E004237B750023BB752DE0B3
:1014CC00BB7D5A00BB6802EB030CBB7D1901D7E94D
:1014DC000023C1F12006A1F1200022FA01F403FA45
:1014EC0006F6344323FA00F0044323FA01F5A3B2C1
:1014FC001946604600F05AF84CF2503000F072F881
:10150C000346FB750D4B1B690C4A23F00103136159
:10151C00FB7D002B07D1BB7D0133BB75BA7D7B7D79
:10152C009A42CDD300E000BF034B00221A76FB7D1C
:10153C0018461C37BD46F0BD900800200020024024
:10154C0080B483B000AF0023FB710D4B1B6903F01B
:10155C008003002B0DD00A4B0A4A5A60084B0A4AEA
:10156C005A60074B1B6903F08003002B01D0012349
:10157C00FB71FB7918460C37BD4680BC704700BF29
:10158C000020024023016745AB89EFCD80B400AF4A
:10159C00054B1B69044A43F0800313610023184672
:1015AC00BD4680BC704700BF0020024080B483B0B1
:1015BC0000AF78600B467B80084B0022DA61084B49
:1015CC001B69074A43F0010313617B687A881A8010
:1015DC0000BF0C37BD4680BC704700BF9008002090
:1015EC000020024080B584B000AF7860FFF738FB74
:1015FC00F86010E07B68B3F1FF3F0CD07B68002BE8
:10160C0007D0FFF72DFB0246FB68D31A7A689A4283
:10161C0001D2032325E0154BDB6803F00103002BFB
:10162C00E8D1124BDB6803F02003002B02D00F4BE8
:10163C002022DA600D4BDB6803F01003002B0BD17A
:10164C000A4BDB6903F00103002B05D1074BDB6868
:10165C0003F00403002B03D000F00AF8012300E090
:10166C00002318461037BD4680BD00BF0020024045
:10167C0080B483B000AF00237B60234BDB6803F0A6
:10168C001003002B09D0214BDB6943F002031F4AE6
:10169C00D3617B6843F010037B601B4BDB6803F06A
:1016AC000403002B09D0194BDB6943F00103174AE3
:1016BC00D3617B6843F004037B60134BDB6903F05D
:1016CC000103002B0BD0114BDB6943F004030F4AD1
:1016DC00D3610D4BDB690C4A23F00103D3617B68AA
:1016EC0040F20112934206D1074BDB69064A23F004
:1016FC000103D36102E0044A7B68D36000BF0C375E
:10170C00BD4680BC704700BF0020024090080020FE
:10171C0080B584B000AF786039600123FB7300237F
:10172C00BB602F4B1B7E012B01D1022353E02C4BB2
:10173C0001221A767B681B68022B16D14CF25030B2
:10174C00FFF750FF0346002B41D1012000F04CF86D
:10175C004CF25030FFF746FF0346FB73214B1B69DD
:10176C00204A23F00403136131E04CF25030FFF7B0
:10177C0039FF0346002B2AD13B684FF0FF321A6029
:10178C007B689B68BB6019E0B86800F049F84CF2C4
:10179C005030FFF727FF0346FB73124B1B69114AAE
:1017AC0023F002031361FB7B002B03D03B68BA6868
:1017BC001A600CE0BB6803F58063BB607B68DB6878
:1017CC009A027B689B681344BA689A42DCD3044B38
:1017DC0000221A76FB7B18461037BD4680BD00BF31
:1017EC00900800200020024080B483B000AF7860E5
:1017FC00094B0022DA61094B1B69084A43F00403C8
:10180C001361064B1B69054A43F04003136100BF8B
:10181C000C37BD4680BC7047900800200020024069
:10182C0080B483B000AF78600B4B0022DA610B4BB5
:10183C001B690A4A43F002031361084A7B6853612F
:10184C00064B1B69054A43F04003136100BF0C377C
:10185C00BD4680BC704700BF9008002000200240AD
:10186C0080B48BB000AF7860396000237B620023BA
:10187C003B6269E101227B6A02FA03F3FB613B687C
:10188C001B68FA691340BB61BA69FB699A4240F064
:10189C0058813B685B689A4A93425ED0984A93425F
:1018AC0075D8984A934258D0964A93426FD8964A24
:1018BC00934252D0944A934269D8944A93424CD062
:1018CC00924A934263D8924A934246D0904A9342AA
:1018DC005DD8122B2AD8122B59D801A252F823F01A
:1018EC0067190008411900085319000895190008D8
:1018FC009B1900089B1900089B1900089B190008EC
:10190C009B1900089B1900089B1900089B190008DB
:10191C009B1900089B1900089B1900089B190008CB
:10192C009B190008491900085D190008794A93426F
:10193C0013D02CE03B68DB683B6229E03B68DB683A
:10194C0004333B6224E03B68DB6808333B621FE0F6
:10195C003B68DB680C333B621AE03B689B68002BEE
:10196C0002D104233B6213E03B689B68012B05D139
:10197C0008233B627B68FA691A6109E008233B6221
:10198C007B68FA695A6103E000233B6200E000BF08
:10199C00BB69FF2B01D87B6801E07B6804337B615A
:1019AC00BB69FF2B02D87B6A9B0002E07B6A083B79
:1019BC009B003B617B691A680F213B6901FA03F3B9
:1019CC00DB431A40396A3B6901FA03F31A437B691A
:1019DC001A603B685B6803F08053002B00F0B18009
:1019EC004D4B9B694C4A43F0010393614A4B9B69F5
:1019FC0003F00103BB60BB68484A7B6A9B08023357
:101A0C0052F82330FB607B6A03F003039B000F2228
:101A1C0002FA03F3DB43FA681340FB607B68404A2D
:101A2C00934213D07B683F4A93420DD07B683E4A69
:101A3C00934207D07B683D4A934201D1032306E0D1
:101A4C00042304E0022302E0012300E000237A6A6D
:101A5C0002F0030292009340FA681343FB602F4993
:101A6C007B6A9B080233FA6841F823203B685B6869
:101A7C0003F48033002B06D02D4B1A682C49BB691C
:101A8C0013430B6006E02A4B1A68BB69DB432849F9
:101A9C0013400B603B685B6803F40033002B06D0EB
:101AAC00234B5A682249BB6913434B6006E0204B19
:101ABC005A68BB69DB431E4913404B603B685B684B
:101ACC0003F48013002B06D0194B9A681849BB6994
:101ADC0013438B6006E0164B9A68BB69DB431449D1
:101AEC0013408B603B685B6803F40013002B21D020
:101AFC000F4BDA680E49BB691343CB6021E000BF82
:101B0C0000003210000031100000221000002110E3
:101B1C0000001210000011100010024000000140E3
:101B2C0000080140000C014000100140001401406D
:101B3C00000401400B4BDA68BB69DB4309491340D5
:101B4C00CB607B6A01337B623B681A687B6A22FA42
:101B5C0003F3002B7FF48EAE00BF00BF2C37BD46C5
:101B6C0080BC70470004014080B485B000AF786041
:101B7C000B467B807B689A687B881340002B02D0D5
:101B8C000123FB7301E00023FB73FB7B1846143726
:101B9C00BD4680BC704780B483B000AF78600B4604
:101BAC007B8013467B707B78002B03D07A887B6814
:101BBC001A6103E07B881A047B681A6100BF0C373A
:101BCC00BD4680BC7047000080B582B000AF0346B4
:101BDC00FB80084B5A69FB881340002B06D0054A42
:101BEC00FB885361FB88184602F0E6FB00BF083700
:101BFC00BD4680BD0004014080B586B000AF786062
:101C0C007B68002B01D1012372E27B681B6803F017
:101C1C000103002B00F08780924B5B6803F00C03F0
:101C2C00042B0CD08F4B5B6803F00C03082B12D1E8
:101C3C008C4B5B6803F48033B3F5803F0BD1894B3D
:101C4C001B6803F40033002B6CD07B685B68002BA3
:101C5C0068D101234CE27B685B68B3F5803F06D109
:101C6C00804B1B687F4A43F4803313602EE07B6803
:101C7C005B68002B0CD17B4B1B687A4A23F48033B6
:101C8C001360784B1B68774A23F4802313601DE0A4
:101C9C007B685B68B3F5A02F0CD1724B1B68714A43
:101CAC0043F4802313606F4B1B686E4A43F48033FC
:101CBC0013600BE06B4B1B686A4A23F48033136090
:101CCC00684B1B68674A23F4802313607B685B684E
:101CDC00002B13D0FEF7C4FF386108E0FEF7C0FFFD
:101CEC0002463B69D31A642B01D9032300E25D4BF6
:101CFC001B6803F40033002BF0D014E0FEF7B0FFA8
:101D0C00386108E0FEF7ACFF02463B69D31A642B3E
:101D1C0001D90323ECE1534B1B6803F40033002B74
:101D2C00F0D100E000BF7B681B6803F00203002BBE
:101D3C0063D04C4B5B6803F00C03002B0BD0494B6E
:101D4C005B6803F00C03082B1CD1464B5B6803F457
:101D5C008033002B16D1434B1B6803F00203002B7E
:101D6C0005D07B681B69012B01D00123C0E13D4BE1
:101D7C001B6823F0F8027B685B69DB00394913436D
:101D8C000B603AE07B681B69002B20D0364B01229C
:101D9C001A60FEF765FF386108E0FEF761FF024646
:101DAC003B69D31A022B01D90323A1E12D4B1B68EC
:101DBC0003F00203002BF0D02A4B1B6823F0F8022F
:101DCC007B685B69DB00274913430B6015E0264BEE
:101DDC0000221A60FEF744FF386108E0FEF740FF6E
:101DEC0002463B69D31A022B01D9032380E11D4B18
:101DFC001B6803F00203002BF0D17B681B6803F017
:101E0C000803002B3AD07B689B69002B19D0174B29
:101E1C0001221A60FEF724FF386108E0FEF720FF6C
:101E2C0002463B69D31A022B01D9032360E10D4B07
:101E3C005B6A03F00203002BF0D0012000F0D8FA0B
:101E4C001CE00A4B00221A60FEF70AFF38610FE013
:101E5C00FEF706FF02463B69D31A022B08D903236F
:101E6C0046E100BF001002400000424280044242A2
:101E7C00924B5B6A03F00203002BE9D17B681B6871
:101E8C0003F00403002B00F0A6800023FB758B4BA2
:101E9C00DB6903F08053002B0DD1884BDB69874A3B
:101EAC0043F08053D361854BDB6903F08053BB60F7
:101EBC00BB680123FB75824B1B6803F48073002BFA
:101ECC0018D17F4B1B687E4A43F480731360FEF776
:101EDC00C7FE386108E0FEF7C3FE02463B69D31A21
:101EEC00642B01D9032303E1754B1B6803F4807346
:101EFC00002BF0D07B68DB68012B06D16F4B1B6A83
:101F0C006E4A43F0010313622DE07B68DB68002B03
:101F1C000CD16A4B1B6A694A23F001031362674BAD
:101F2C001B6A664A23F0040313621CE07B68DB68BF
:101F3C00052B0CD1614B1B6A604A43F004031362FE
:101F4C005E4B1B6A5D4A43F0010313620BE05B4B73
:101F5C001B6A5A4A23F001031362584B1B6A574AF7
:101F6C0023F0040313627B68DB68002B15D0FEF7AB
:101F7C0077FE38610AE0FEF773FE02463B69D31A1E
:101F8C0041F28832934201D90323B1E04B4B1B6AD7
:101F9C0003F00203002BEED014E0FEF761FE386173
:101FAC000AE0FEF75DFE02463B69D31A41F2883225
:101FBC00934201D903239BE0404B1B6A03F00203BD
:101FCC00002BEED1FB7D012B05D13C4BDB693B4A51
:101FDC0023F08053D3617B68DB69002B00F0878092
:101FEC00364B5B6803F00C03082B61D07B68DB6914
:101FFC00022B46D1334B00221A60FEF731FE3861BA
:10200C0008E0FEF72DFE02463B69D31A022B01D9DC
:10201C0003236DE0294B1B6803F00073002BF0D1F8
:10202C007B681B6AB3F5803F08D1244B5B6823F4B3
:10203C0000327B689B68214913434B601F4B5B68E4
:10204C0023F474127B68196A7B685B6A0B431B4927
:10205C0013434B601B4B01221A60FEF701FE3861E3
:10206C0008E0FEF7FDFD02463B69D31A022B01D9AD
:10207C0003233DE0114B1B6803F00073002BF0D0E1
:10208C0035E0104B00221A60FEF7EAFD386108E0DB
:10209C00FEF7E6FD02463B69D31A022B01D9032356
:1020AC0026E0064B1B6803F00073002BF0D11EE0FA
:1020BC007B68DB69012B07D1012319E0001002407A
:1020CC0000700040600042420B4B5B68FB60FB6899
:1020DC0003F480327B681B6A9A4206D1FB6803F4D6
:1020EC0070127B685B6A9A4201D0012300E00023E6
:1020FC0018461837BD4680BD0010024080B584B02C
:10210C0000AF786039607B68002B01D10123D0E0EF
:10211C006A4B1B6803F007033A689A4210D9674B65
:10212C001B6823F0070265493B6813430B60634B44
:10213C001B6803F007033A689A4201D00123B8E008
:10214C007B681B6803F00203002B20D07B681B68A4
:10215C0003F00403002B05D0594B5B68584A43F439
:10216C00E06353607B681B6803F00803002B05D009
:10217C00534B5B68524A43F460535360504B5B685B
:10218C0023F0F0027B689B684D4913434B607B68DE
:10219C001B6803F00103002B40D07B685B68012BAC
:1021AC0007D1474B1B6803F40033002B15D10123D7
:1021BC007FE07B685B68022B07D1414B1B6803F007
:1021CC000073002B09D1012373E03D4B1B6803F016
:1021DC000203002B01D101236BE0394B5B6823F028
:1021EC0003027B685B68364913434B60FEF738FD8E
:1021FC00F8600AE0FEF734FD0246FB68D31A41F2A0
:10220C008832934201D9032353E02D4B5B6803F0D2
:10221C000C027B685B689B009A42EBD1274B1B68D6
:10222C0003F007033A689A4210D2244B1B6823F040
:10223C00070222493B6813430B60204B1B6803F0D9
:10224C0007033A689A4201D0012332E07B681B688D
:10225C0003F00403002B08D0194B5B6823F4E062F5
:10226C007B68DB68164913434B607B681B6803F083
:10227C000803002B09D0124B5B6823F460527B6877
:10228C001B69DB000E4913434B6000F021F802463A
:10229C000B4B5B681B0903F00F030A49CB5C22FA5A
:1022AC0003F3094A1360094B1B681846FEF796FCAA
:1022BC00002318461037BD4680BD00BF00200240E9
:1022CC00001002407074000828000020000000205C
:1022DC0090B48AB000AF294B3C1D0FCB84E80F00A3
:1022EC0040F201233B800023FB610023BB610023F0
:1022FC007B6200237B6100233B62214B5B68FB61AB
:10230C00FB6903F00C03042B02D0082B03D02BE049
:10231C001C4B3B622BE0FB699B0C03F00F03283337
:10232C003B4413F8243C7B61FB6903F48033002BA2
:10233C0012D0134B5B685B0C03F0010328333B4456
:10234C0013F8283CBB617B690E4A03FB02F2BB69A4
:10235C00B2FBF3F37B6204E07B690B4A02FB03F3F1
:10236C007B627B6A3B6202E0064B3B6200BF3B6ACE
:10237C0018462837BD4690BC704700BF0C6A000851
:10238C000010024000127A0000093D0080B400AF3A
:10239C00024B1B681846BD4680BC704728000020C5
:1023AC0080B500AFFFF7F2FF0246054B5B681B0AD6
:1023BC0003F007030349CB5C22FA03F3184680BDF4
:1023CC00001002408074000880B500AFFFF7DEFFFC
:1023DC000246054B5B68DB0A03F007030349CB5C41
:1023EC0022FA03F3184680BD0010024080740008E6
:1023FC0080B485B000AF78600A4B1B680A4AA2FB18
:10240C0003235B0A7A6802FB03F3FB6000BFFB68E3
:10241C005A1EFA60002BF9D100BF00BF1437BD461D
:10242C0080BC704728000020D34D621080B582B06C
:10243C0000AF78607B68002B01D1012341E07B6801
:10244C0093F83D30DBB2002B06D17B68002283F879
:10245C003C20786803F086FC7B68022283F83D20E0
:10246C007B681A687B6804331946104600F0AAFA98
:10247C007B68012283F846207B68012283F83E208A
:10248C007B68012283F83F207B68012283F840207F
:10249C007B68012283F841207B68012283F842206B
:1024AC007B68012283F843207B68012283F8442057
:1024BC007B68012283F845207B68012283F83D204C
:1024CC00002318460837BD4680BD80B582B000AFEA
:1024DC0078607B68002B01D1012341E07B6893F885
:1024EC003D30DBB2002B06D17B68002283F83C2008
:1024FC00786800F039F87B68022283F83D207B680D
:10250C001A687B6804331946104600F05BFA7B6846
:10251C00012283F846207B68012283F83E207B68E9
:10252C00012283F83F207B68012283F840207B68DE
:10253C00012283F841207B68012283F842207B68CA
:10254C00012283F843207B68012283F844207B68B6
:10255C00012283F845207B68012283F83D2000236B
:10256C0018460837BD4680BD80B483B000AF786094
:10257C0000BF0C37BD4680BC7047000080B584B0EE
:10258C0000AF786039603B68002B09D17B6893F809
:10259C003E30DBB2012B14BF01230023DBB222E05F
:1025AC003B68042B09D17B6893F83F30DBB2012BDD
:1025BC0014BF01230023DBB215E03B68082B09D1C3
:1025CC007B6893F84030DBB2012B14BF012300234E
:1025DC00DBB208E07B6893F84130DBB2012B14BF0F
:1025EC0001230023DBB2002B01D001235EE03B680A
:1025FC00002B04D17B68022283F83E2013E03B6859
:10260C00042B04D17B68022283F83F200BE03B684B
:10261C00082B04D17B68022283F8402003E07B68FE
:10262C00022283F841207B681B6801223968184616
:10263C0000F048FC7B681B681E4A934207D17B68FC
:10264C001B685A6C7B681B6842F400425A647B68B6
:10265C001B68184A93420ED07B681B68B3F1804FFD
:10266C0009D07B681B68144A934204D07B681B68B2
:10267C00124A934211D17B681B689B6803F00703D5
:10268C00FB60FB68062B10D07B681B681A687B68A4
:10269C001B6842F001021A6007E07B681B681A682D
:1026AC007B681B6842F001021A6000231846103741
:1026BC00BD4680BD002C01400004004000080040D5
:1026CC0080B584B000AFF860B9607A60FB6893F8AD
:1026DC003C30012B01D10223ACE0FB68012283F8D2
:1026EC003C207B680C2B00F29F8001A252F823F057
:1026FC00312700083528000835280008352800083F
:10270C0071270008352800083528000835280008EE
:10271C00B32700083528000835280008352800089C
:10272C00F3270008FB681B68B968184600F0ACF981
:10273C00FB681B689A69FB681B6842F008029A6187
:10274C00FB681B689A69FB681B6822F004029A619B
:10275C00FB681B689969BB681A69FB681B680A43AC
:10276C009A6162E0FB681B68B968184600F0F2F9E0
:10277C00FB681B689A69FB681B6842F400629A61EB
:10278C00FB681B689A69FB681B6822F480629A617B
:10279C00FB681B689969BB681B691A02FB681B689C
:1027AC000A439A6141E0FB681B68B968184600F05F
:1027BC003BFAFB681B68DA69FB681B6842F008028D
:1027CC00DA61FB681B68DA69FB681B6822F004029B
:1027DC00DA61FB681B68D969BB681A69FB681B68FE
:1027EC000A43DA6121E0FB681B68B968184600F0FF
:1027FC0085FAFB681B68DA69FB681B6842F40062A7
:10280C00DA61FB681B68DA69FB681B6822F480627A
:10281C00DA61FB681B68D969BB681B691A02FB6823
:10282C001B680A43DA6100E000BFFB68002283F8F2
:10283C003C20002318461037BD4680BD80B584B0BF
:10284C0000AF786039607B6893F83C30012B01D184
:10285C000223B3E07B68012283F83C207B680222D0
:10286C0083F83D207B681B689B68FB60FB6823F04A
:10287C007703FB60FB6823F47F43FB607B681B687A
:10288C00FA689A603B681B68B3F5005F3ED0B3F5FD
:10289C00005F00F28780B3F5805F00F08580B3F5B0
:1028AC00805F7FD8702B1AD0702B7BD8602B50D0C8
:1028BC00602B77D8502B3CD0502B73D8402B58D052
:1028CC00402B6FD8302B64D0302B6BD8202B60D0A2
:1028DC00202B67D8002B5CD0102B5AD062E07B6881
:1028EC0018683B6899683B685A683B68DB6800F07D
:1028FC00CAFA7B681B689B68FB60FB6843F0770334
:10290C00FB607B681B68FA689A604EE07B6818680D
:10291C003B6899683B685A683B68DB6800F0B3FA1F
:10292C007B681B689A687B681B6842F480429A60DB
:10293C003BE07B6818683B6859683B68DB681A4663
:10294C0000F02AFA7B681B685021184600F081FAC7
:10295C002BE07B6818683B6859683B68DB681A4653
:10296C0000F048FA7B681B686021184600F071FA89
:10297C001BE07B6818683B6859683B68DB681A4643
:10298C0000F00AFA7B681B684021184600F061FAD7
:10299C000BE07B681A683B681B681946104600F010
:1029AC0058FA02E000BF00E000BF7B68012283F808
:1029BC003D207B68002283F83C200023184610370A
:1029CC00BD4680BD80B485B000AF786039607B684F
:1029DC001B68FB607B68294A93420BD07B68B3F180
:1029EC00804F07D07B68264A934203D07B68254AE8
:1029FC00934208D1FB6823F07003FB603B685B6873
:102A0C00FA681343FB607B681C4A93420BD07B68CB
:102A1C00B3F1804F07D07B68194A934203D07B688F
:102A2C00184A934208D1FB6823F44073FB603B685F
:102A3C00DB68FA681343FB60FB6823F080023B6899
:102A4C005B691343FB607B68FA681A603B689A68A1
:102A5C007B68DA623B681A687B689A627B68074A13
:102A6C00934203D13B681A697B681A637B68012225
:102A7C005A6100BF1437BD4680BC7047002C014022
:102A8C00000400400008004080B487B000AF7860BC
:102A9C0039607B681B6A23F001027B681A627B68D1
:102AAC001B6A7B617B685B683B617B689B69FB6035
:102ABC00FB6823F07003FB60FB6823F00303FB60EF
:102ACC003B681B68FA681343FB607B6923F00203C5
:102ADC007B613B689B687A6913437B617B681C4A0A
:102AEC0093420CD17B6923F008037B613B68DB6864
:102AFC007A6913437B617B6923F004037B617B68F8
:102B0C00134A934211D13B6923F480733B613B69B7
:102B1C0023F400733B613B685B693A6913433B6187
:102B2C003B689B693A6913433B617B683A695A601D
:102B3C007B68FA689A613B685A687B685A637B6861
:102B4C007A691A6200BF1C37BD4680BC704700BF53
:102B5C00002C014080B487B000AF786039607B688E
:102B6C001B6A23F010027B681A627B681B6A7B610C
:102B7C007B685B683B617B689B69FB60FB6823F44B
:102B8C00E043FB60FB6823F44073FB603B681B680D
:102B9C001B02FA681343FB607B6923F020037B6103
:102BAC003B689B681B017A6913437B617B681D4AF8
:102BBC0093420DD17B6923F080037B613B68DB681A
:102BCC001B017A6913437B617B6923F040037B61B2
:102BDC007B68144A934213D13B6923F480633B61B5
:102BEC003B6923F400633B613B685B699B003A697A
:102BFC0013433B613B689B699B003A6913433B6100
:102C0C007B683A695A607B68FA689A613B685A68D3
:102C1C007B689A637B687A691A6200BF1C37BD4671
:102C2C0080BC7047002C014080B487B000AF786046
:102C3C0039607B681B6A23F480727B681A627B683C
:102C4C001B6A7B617B685B683B617B68DB69FB6053
:102C5C00FB6823F07003FB60FB6823F00303FB604D
:102C6C003B681B68FA681343FB607B6923F40073B1
:102C7C007B613B689B681B027A6913437B617B68B1
:102C8C001D4A93420DD17B6923F400637B613B6841
:102C9C00DB681B027A6913437B617B6923F48063D5
:102CAC007B617B68144A934213D13B6923F48053B4
:102CBC003B613B6923F400533B613B685B691B013F
:102CCC003A6913433B613B689B691B013A691343A7
:102CDC003B617B683A695A607B68FA68DA613B68E9
:102CEC005A687B68DA637B687A691A6200BF1C37A2
:102CFC00BD4680BC704700BF002C014080B487B03B
:102D0C0000AF786039607B681B6A23F480527B6863
:102D1C001A627B681B6A3B617B685B687B617B68C2
:102D2C00DB69FB60FB6823F4E043FB60FB6823F486
:102D3C004073FB603B681B681B02FA681343FB6023
:102D4C003B6923F400533B613B689B681B033A6966
:102D5C0013433B617B680F4A934209D17B6923F48F
:102D6C0080437B613B685B699B017A6913437B61A0
:102D7C007B687A695A607B68FA68DA613B685A68E2
:102D8C007B681A647B683A691A6200BF1C37BD46BF
:102D9C0080BC7047002C014080B487B000AFF86055
:102DAC00B9607A60FB681B6A7B61FB681B6A23F065
:102DBC000102FB681A62FB689B693B613B6923F06B
:102DCC00F0033B617B681B013A6913433B617B69F0
:102DDC0023F00A037B617A69BB6813437B61FB6850
:102DEC003A699A61FB687A691A6200BF1C37BD4662
:102DFC0080BC704780B487B000AFF860B9607A606F
:102E0C00FB681B6A23F01002FB681A62FB689B6963
:102E1C007B61FB681B6A3B617B6923F470437B61BC
:102E2C007B681B037A6913437B613B6923F0A00326
:102E3C003B61BB681B013A6913433B61FB687A69D0
:102E4C009A61FB683A691A6200BF1C37BD4680BCA8
:102E5C00704780B485B000AF786039607B689B6840
:102E6C00FB60FB6823F07003FB603A68FB6813435C
:102E7C0043F00703FB607B68FA689A6000BF143765
:102E8C00BD4680BC704780B487B000AFF860B960B5
:102E9C007A603B60FB689B687B617B6923F47F43B2
:102EAC007B613B681A027B681A43BB6813437A69DF
:102EBC0013437B61FB687A699A6000BF1C37BD467F
:102ECC0080BC704780B487B000AFF860B9607A609E
:102EDC00BB6803F01F03012202FA03F37B61FB685A
:102EEC001A6A7B69DB431A40FB681A62FB681A6A30
:102EFC00BB6803F01F03796801FA03F31A43FB68FC
:102F0C001A6200BF1C37BD4680BC704780B485B0C8
:102F1C0000AF786039607B6893F83C30012B01D1AD
:102F2C00022346E07B68012283F83C207B68022266
:102F3C0083F83D207B681B685B68FB607B681B68C3
:102F4C009B68BB60FB6823F07003FB603B681B68ED
:102F5C00FA681343FB607B681B68FA685A607B68ED
:102F6C001B68164A93420ED07B681B68B3F1804FE6
:102F7C0009D07B681B68124A934204D07B681B689B
:102F8C00104A93420CD1BB6823F08003BB603B68B2
:102F9C005B68BA681343BB607B681B68BA689A604D
:102FAC007B68012283F83D207B68002283F83C205B
:102FBC00002318461437BD4680BC7047002C0140D6
:102FCC00000400400008004080B582B000AF78607B
:102FDC007B68002B01D101233FE07B6893F83D30E7
:102FEC00DBB2002B06D17B68002283F83C2078688A
:102FFC0002F084FF7B68242283F83D207B681B68E9
:10300C00DA687B681B6822F40052DA60786800F09A
:10301C006FFE7B681B681A697B681B6822F4904200
:10302C001A617B681B685A697B681B6822F02A024C
:10303C005A617B681B68DA687B681B6842F4005233
:10304C00DA607B6800221A647B68202283F83D20BA
:10305C007B68202283F83E20002318460837BD46A3
:10306C0080BD80B58AB002AFF860B9603B60134692
:10307C00FB8000237B61FB6893F83D30DBB2202B97
:10308C007CD1BB68002B02D0FB88002B01D1012323
:10309C0075E0FB6893F83C30012B01D102236EE004
:1030AC00FB68012283F83C20FB6800221A64FB6851
:1030BC00212283F83D20FDF7D3FD7861FB68FA8867
:1030CC009A84FB68FA88DA84FB689B68B3F5805FA6
:1030DC0008D1FB681B69002B04D10023FB61BB6882
:1030EC00BB6103E0BB68FB610023BB61FB68002292
:1030FC0083F83C202AE03B6800937B690022802106
:10310C00F86800F0A8FB0346002B01D0032336E03F
:10311C00FB69002B0BD1BB691B881A46FB681B682B
:10312C00C2F308025A60BB690233BB6107E0FB695A
:10313C001A78FB681B685A60FB690133FB61FB68FA
:10314C00DB8C9BB2013B9AB2FB68DA84FB68DB8CAC
:10315C009BB2002BCFD13B6800937B6900224021AE
:10316C00F86800F078FB0346002B01D0032306E03F
:10317C00FB68202283F83D20002300E00223184640
:10318C002037BD4680BD80B584B000AFF860B96013
:10319C001346FB80FB6893F83E30DBB2202B1DD12D
:1031AC00BB68002B02D0FB88002B01D1012316E059
:1031BC00FB6893F83C30012B01D102230FE0FB6834
:1031CC00012283F83C20FB6800221A63FB881A4614
:1031DC00B968F86800F089FB034600E00223184642
:1031EC001037BD4680BD80B584B000AFF860B960C3
:1031FC001346FB80FB6893F83E30DBB2202B1DD1CD
:10320C00BB68002B02D0FB88002B01D1012316E0F8
:10321C00FB6893F83C30012B01D102230FE0FB68D3
:10322C00012283F83C20FB6800221A63FB881A46B3
:10323C00B968F86800F092FB034600E002231846D8
:10324C001037BD4680BD80B582B000AF78607B681A
:10325C001B68DA687B681B6822F4F072DA607B68A2
:10326C001B685A697B681B6822F001025A617B68F3
:10327C001B6B012B07D17B681B68DA687B681B68AA
:10328C0022F01002DA607B681B685B6903F0800334
:10329C00002B24D07B681B685A697B681B6822F062
:1032AC0080025A617B685B6B002B18D07B685B6B70
:1032BC0000225A637B685B6B1846FDF7E2FE0346FF
:1032CC00002B0CD07B685B6B1846FEF791F803461D
:1032DC00202B04D17B6810221A64032340E07B6806
:1032EC001B685B6903F04003002B24D07B681B68D0
:1032FC005A697B681B6822F040025A617B689B6BA1
:10330C00002B18D07B689B6B00225A637B689B6BED
:10331C001846FDF7B6FE0346002B0CD07B689B6B62
:10332C001846FEF765F80346202B04D17B68102263
:10333C001A64032314E07B680022DA847B68002281
:10334C00DA857B6800221A647B68202283F83E2091
:10335C007B68202283F83D207B6800221A630023BF
:10336C0018460837BD4680BD80B58AB000AF78607E
:10337C007B681B681B687B627B681B68DB683B6235
:10338C007B681B685B69FB610023BB6100237B616D
:10339C007B6A03F00F03BB61BB69002B0DD17B6A09
:1033AC0003F02003002B08D03B6A03F02003002B12
:1033BC0003D0786800F0F2FB7BE1BB69002B00F0D6
:1033CC00B180FB6903F00103002B05D13B6A03F4C8
:1033DC009073002B00F0A6807B6A03F00103002B96
:1033EC000AD03B6A03F48073002B05D07B681B6CFE
:1033FC0043F001027B681A647B6A03F00403002B20
:10340C000AD0FB6903F00103002B05D07B681B6C11
:10341C0043F002027B681A647B6A03F00203002B00
:10342C000AD0FB6903F00103002B05D07B681B6CF1
:10343C0043F004027B681A647B6A03F00803002BD8
:10344C000FD03B6A03F02003002B04D1FB6903F07F
:10345C000103002B05D07B681B6C43F008027B68D2
:10346C001A647B681B6C002B00F01E817B6A03F0D6
:10347C002003002B07D03B6A03F02003002B02D063
:10348C00786800F08BFB7B681B685B6903F040037A
:10349C00002B14BF01230023DBB27B617B681B6C08
:1034AC0003F00803002B02D17B69002B31D0786824
:1034BC0000F0CDFA7B681B685B6903F04003002BBE
:1034CC0023D07B681B685A697B681B6822F040021A
:1034DC005A617B689B6B002B13D07B689B6B764A85
:1034EC005A637B689B6B1846FDF706FE0346002B60
:1034FC0016D07B689B6B5B6B7A68926B1046984717
:10350C000EE0786800F03CFF0AE0786800F038FFC5
:10351C0006E0786800F034FF7B6800221A64C3E090
:10352C0000BFC1E07B681B6B012B40F0A1807B6A64
:10353C0003F01003002B00F09B803B6A03F0100398
:10354C00002B00F095800023FB607B681B681B68D8
:10355C00FB607B681B685B68FB60FB687B681B68B7
:10356C005B6903F04003002B4ED07B689B6B1B68A0
:10357C005B683B823B8A002B00F098807B689B8DBC
:10358C003A8A9A4280F092807B683A8ADA857B6824
:10359C009B6B9B69202B2BD07B681B68DA687B6844
:1035AC001B6822F48072DA607B681B685A697B683E
:1035BC001B6822F001025A617B681B685A697B68A0
:1035CC001B6822F040025A617B68202283F83E205F
:1035DC007B6800221A637B681B68DA687B681B684F
:1035EC0022F01002DA607B689B6B1846FDF749FDF0
:1035FC007B689A8D7B68DB8D9BB2D31A9BB2194684
:10360C00786800F06DF851E07B689A8D7B68DB8DF3
:10361C009BB2D31A7B827B68DB8D9BB2002B47D08D
:10362C007B8A002B44D07B681B68DA687B681B683C
:10363C0022F49072DA607B681B685A697B681B689D
:10364C0022F001025A617B68202283F83E207B68BD
:10365C0000221A637B681B68DA687B681B6822F09F
:10366C001002DA607B8A1946786800F039F81FE09E
:10367C007B6A03F08003002B08D03B6A03F08003C5
:10368C00002B03D0786800F022FA12E07B6A03F07A
:10369C004003002B0DD03B6A03F04003002B08D0F5
:1036AC00786800F063FA04E000BF02E000BF00E0BD
:1036BC0000BF2837BD4680BDB33A000880B483B044
:1036CC0000AF786000BF0C37BD4680BC704780B43B
:1036DC0083B000AF786000BF0C37BD4680BC70472C
:1036EC0080B483B000AF78600B467B8000BF0C3792
:1036FC00BD4680BC704780B584B000AF78607B68F5
:10370C005B6AFB607B681B681B6803F02003002B63
:10371C002AD1FB680022DA85FB681B68DA68FB6833
:10372C001B6822F48072DA60FB681B685A69FB68BC
:10373C001B6822F001025A61FB681B685A69FB681E
:10374C001B6822F040025A61FB68202283F83E205D
:10375C00FB681B6B012B07D1FB681B68DA68FB68E5
:10376C001B6822F01002DA60FB681B6B012B06D180
:10377C00FB689B8D1946F868FFF7B2FF02E0F8680A
:10378C0000F008FE00BF1037BD4680BD80B584B088
:10379C0000AF78607B685B6AFB60FB681B6B012B7E
:1037AC0008D1FB689B8D5B089BB21946F868FFF744
:1037BC0097FF02E0F868FFF78AFF00BF1037BD469D
:1037CC0080BD80B584B000AF78600023FB607B685F
:1037DC005B6ABB60BB681B685B6903F08003002BF2
:1037EC0014BF01230023DBB2FB60BB6893F83D30B0
:1037FC00DBB2212B08D1FB68002B05D0BB68002263
:10380C00DA84B86800F00EF9BB681B685B6903F0DA
:10381C004003002B14BF01230023DBB2FB60BB6809
:10382C0093F83E30DBB2222B08D1FB68002B05D07D
:10383C00BB680022DA85B86800F009F9BB681B6C1C
:10384C0043F01002BB681A64B86800F099FD00BF21
:10385C001037BD4680BD80B584B000AFF860B9604C
:10386C003B601346FB712CE0BB69B3F1FF3F28D0E2
:10387C00BB69002B07D0FDF7F3F902463B68D31A5E
:10388C00BA699A421DD2FB681B68DA68FB681B6830
:10389C0022F4D072DA60FB681B685A69FB681B68FB
:1038AC0022F001025A61FB68202283F83D20FB685C
:1038BC00202283F83E20FB68002283F83C2003235F
:1038CC000FE0FB681B681A68BB681340BA689A4221
:1038DC000CBF01230023DBB21A46FB799A42C3D0FA
:1038EC00002318461037BD4680BD80B485B000AFAC
:1038FC00F860B9601346FB80FB68BA689A62FB6893
:10390C00FA889A85FB68FA88DA85FB6800221A64C3
:10391C00FB68222283F83E20FB68002283F83C20BF
:10392C00FB681B68DA68FB681B6842F48072DA601B
:10393C00FB681B685A69FB681B6842F001025A61FC
:10394C00FB681B68DA68FB681B6842F02002DA60CF
:10395C00002318461437BD4680BC704780B586B02E
:10396C0000AFF860B9601346FB80BA68FB689A62D6
:10397C00FB68FA889A85FB6800221A64FB6822228D
:10398C0083F83E20FB689B6B234A9A62FB689B6B17
:10399C00224ADA62FB689B6B214A1A63FB689B6BB9
:1039AC0000225A6307F108037B61FB68986BFB6884
:1039BC001B68043319467B691A68FB88FDF702FB08
:1039CC0000233B61FB681B681B683B61FB681B6841
:1039DC005B683B613B69FB68002283F83C20FB6819
:1039EC001B68DA68FB681B6842F48072DA60FB685B
:1039FC001B685A69FB681B6842F001025A61FB683C
:103A0C001B685A69FB681B6842F040025A6100232C
:103A1C0018461837BD4680BD033700089937000893
:103A2C00CF37000880B483B000AF78607B681B6828
:103A3C00DA687B681B6822F0C002DA607B6820229F
:103A4C0083F83D2000BF0C37BD4680BC704780B466
:103A5C0083B000AF78607B681B68DA687B681B6892
:103A6C0022F49072DA607B681B685A697B681B6869
:103A7C0022F001025A617B681B6B012B07D17B681A
:103A8C001B68DA687B681B6822F01002DA607B68BE
:103A9C00202283F83E207B6800221A6300BF0C377B
:103AAC00BD4680BC704780B584B000AF78607B6841
:103ABC005B6AFB60FB680022DA85FB680022DA8413
:103ACC00F86800F05DFC00BF1037BD4680BD80B4C7
:103ADC0085B000AF78607B6893F83D30DBB2212B6A
:103AEC003ED17B689B68B3F5805F14D17B681B6902
:103AFC00002B10D17B681B6AFB60FB681B881A4685
:103B0C007B681B68C2F308025A607B681B6A9A1CAC
:103B1C007B681A6208E07B681B6A591C7A68116220
:103B2C001A787B681B685A607B68DB8C9BB2013B04
:103B3C009BB27A681946D184002B0FD17B681B6825
:103B4C00DA687B681B6822F08002DA607B681B688D
:103B5C00DA687B681B6842F04002DA60002300E000
:103B6C00022318461437BD4680BC704780B582B01E
:103B7C0000AF78607B681B68DA687B681B6822F092
:103B8C004002DA607B68202283F83D207868FFF7DA
:103B9C0095FD002318460837BD4680BD80B586B01C
:103BAC0000AF78607B6893F83E30DBB2222B40F09C
:103BBC0099807B689B68B3F5805F17D17B681B6924
:103BCC00002B13D100237B617B689B6A3B617B6874
:103BDC001B685B689BB2C3F308039AB23B691A80FB
:103BEC007B689B6A9A1C7B689A6226E07B689B6A5E
:103BFC007B6100233B617B689B68B3F5805F07D0DA
:103C0C007B689B68002B0AD17B681B69002B06D153
:103C1C007B681B685B68DAB27B691A7008E07B68AA
:103C2C001B685B68DBB203F07F03DAB27B691A7046
:103C3C007B689B6A5A1C7B689A627B68DB8D9BB2A3
:103C4C00013B9BB27A681946D185002B48D17B6821
:103C5C001B68DA687B681B6822F02002DA607B68DC
:103C6C001B68DA687B681B6822F48072DA607B68F8
:103C7C001B685A697B681B6822F001025A617B68D9
:103C8C00202283F83E207B681B6B012B23D17B68A1
:103C9C0000221A637B681B68DA687B681B6822F059
:103CAC001002DA607B681B681B6803F01003102B92
:103CBC000AD10023FB607B681B681B68FB607B6878
:103CCC001B685B68FB60FB687B689B8D194678689A
:103CDC00FFF706FD02E0786800F05CFB002302E0D1
:103CEC00002300E0022318461837BD4680BD0000B3
:103CFC0080B584B000AF78607B681B681B6923F4C7
:103D0C0040517B68DA687B681B680A431A617B68E0
:103D1C009A687B681B691A437B685B691343BB60B9
:103D2C007B681B68DB6823F4B05323F00C037A68C0
:103D3C001268B9680B43D3607B681B685B6923F41A
:103D4C0040717B689A697B681B680A435A617B687F
:103D5C001B682C4A934203D1FEF736FBF86002E055
:103D6C00FEF71EFBF860FA6813469B0013449A009A
:103D7C001A447B685B689B00B2FBF3F3224AA2FBFC
:103D8C0003235B091901FA6813469B0013449A003C
:103D9C001A447B685B689B00B2FBF3F21A4BA3FBE3
:103DAC0002035B09642000FB03F3D31A1B013233BB
:103DBC00154AA2FB03235B0903F0F0031944FA68CC
:103DCC0013469B0013449A001A447B685B689B0063
:103DDC00B2FBF3F20C4BA3FB02035B09642000FB68
:103DEC0003F3D31A1B013233074AA2FB03235B09EB
:103DFC0003F00F027B681B680A449A6000BF1037FF
:103E0C00BD4680BD003801401F85EB5180B485B0A4
:103E1C0000AF0346FB710023FB730DE00D4BD3F891
:103E2C000C21FB7B13441B78FA799A4201D1FB7B62
:103E3C000AE0FB7B0133FB73FB7B9AB2054BB3F8B7
:103E4C000A319A42EAD1FB7B18461437BD4680BC36
:103E5C00704700BFB008002080B582B000AF0023CF
:103E6C00BB7100237B711FE000237B714FF48071C9
:103E7C001148FDF779FE0346FB7112E07B790133A3
:103E8C007B714FF480710C48FDF76EFE03461A46A9
:103E9C00FB79934200D007E07B790A2B01D10123F7
:103EAC00BB717B790A2BE9D1BB79012BDCD1FB7976
:103EBC0018460837BD4680BD0008014080B500AFEC
:103ECC004FF480710548FDF74FFE0346012B01D1DD
:103EDC00012300E00023184680BD00BF000801400C
:103EEC0080B500AF084B9B78002B0BD0064B5B6862
:103EFC00632B05D8044B5B680133034A536001E024
:103F0C0000F082F800BF80BDB008002090B583B0EF
:103F1C0000AF394B5B78022B56D0022B68DC002BA0
:103F2C0002D0012B19D063E0334B1A7A324B93F841
:103F3C0008319A420ED1304B01225A702E4B00227E
:103F4C005A602D4B01229A7001222C492C48FFF704
:103F5C001AF94DE000F058F84AE0274B5B7A184606
:103F6C00FFF754FF0346FB71FB799AB2224BB3F86F
:103F7C000A319A4225D0204B02225A701E4BD3F89C
:103F8C001021FB7913441A781B4B5B789A4211D0A1
:103F9C00194BD3F81021FB7913441B789AB2164BAA
:103FAC005B789BB2D31A9BB21A4616491448FFF79A
:103FBC001AF91DE0104B00229A700F4B01221A7057
:103FCC0016E000F021F813E00B4BD3F810410A4B2C
:103FDC005B7A1846FFF71AFF034623441A78064B00
:103FEC005A70054B00229A70034B01221A7000BFC5
:103FFC0000BF0C37BD4690BDB0080020B9080020AA
:10400C00780B0020BA08002080B500AF0A4B0022C4
:10401C001A70094B00225A70074B00229A70064BFB
:10402C0000225A600548FFF70EF9012204490348A3
:10403C00FFF7A9F800BF80BDB0080020780B002066
:10404C00B808002080B582B000AF78600B467B804A
:10405C00FFF734FF0346002B05D07A886423796878
:10406C000348FEF7FEFF00BF0837BD4680BD00BF0A
:10407C00780B002080B400AF024B1846BD4680BCC4
:10408C00704700BFB808002080B400AF064B1B7807
:10409C00002B04D0044B00221A70012300E00023F3
:1040AC001846BD4680BC7047B008002080B584B06F
:1040BC0000AFB9607A601A460346FB731346BB81A6
:1040CC000A4AFB7B82F80831084ABB89A2F80A31FC
:1040DC00064ABB68C2F80C31044A7B68C2F810313E
:1040EC00FFF792FF00BF1037BD4680BDB00800201F
:1040FC0080B400AF034B01221A7000BFBD4680BCD8
:10410C00704700BFC409002080B487B000AF78604E
:10411C000B467B807B889B08BB82BB8A9B009BB237
:10412C007A88D31A7B820023FB600023FB8227E072
:10413C00FB8A03F1006303F540431B68FB60FB68DB
:10414C00190EFB8A7A681344CAB21A70FB68190CF0
:10415C00FB8A01337A681344CAB21A70FB68190AD5
:10416C00FB8A02337A681344CAB21A70FB8A03338F
:10417C007A681344FA68D2B21A70FB8A0433FB8251
:10418C00FA8ABB8A9B009A42D2D17B8A002B3ED002
:10419C00FB8A03F1006303F540431B68FB607B8AD9
:1041AC00032B17D1FB68190EFB8A7A681344CAB229
:1041BC001A70FB68190CFB8A01337A681344CAB273
:1041CC001A70FB68190AFB8A02337A681344CAB264
:1041DC001A701CE07B8A022B0FD1FB68190EFB8A2C
:1041EC007A681344CAB21A70FB68190CFB8A013343
:1041FC007A681344CAB21A7009E07B8A012B06D183
:10420C00FB68190EFB8A7A681344CAB21A7000BF95
:10421C001C37BD4680BC70472DE9B04386B000AF5B
:10422C0078600B467B804E4B00221A604C4B4D4AFB
:10423C009A604B4B0122DA600023BB60FDF780F9DA
:10424C0007F1080319464648FDF762FA7B889B087C
:10425C00FB81FB899B009BB27A88D31ABB8100231C
:10426C00FB822AE0FB8A03F1006303F54043184606
:10427C00FB8A7A6813441B781A06FB8A0133796827
:10428C000B441B781B041A43FB8A023379680B44DA
:10429C001B781B021343FA8A033279680A4412789A
:1042AC00134300229846914642464B460146022053
:1042BC00FDF7D6F8FB8A0433FB82FA8AFB899B0054
:1042CC009A42CFD1BB89002B42D000233B61BB89E2
:1042DC00032B14D1FB8A7A6813441B781A06FB8AC9
:1042EC00013379680B441B781B041A43FB8A023395
:1042FC0079680B441B781B0213433B6119E0BB89A3
:10430C00022B0DD1FB8A7A6813441B781A06FB8AA0
:10431C00013379680B441B781B0413433B6108E0A1
:10432C00BB89012B05D1FB8A7A6813441B781B06C9
:10433C003B61FB8A03F1006303F5404319463B697B
:10434C0000221C46154622462B460220FDF788F813
:10435C00FDF71CF9BB6818461837BD46BDE8B0839D
:10436C00C809002000C0000880B500AF00F032F88A
:10437C00FFF7B6FD00F068FA00F002FC00BF80BD4C
:10438C0080B483B000AF786000BF0C37BD4680BCF2
:10439C007047000080B582B000AF78607B681B6806
:1043AC00044A934201D1FFF7B1FD00BF0837BD4667
:1043BC0080BD00BF0038014080B582B000AF03461D
:1043CC00FB80FB88082B01D1FFF792FE00BF08375A
:1043DC00BD4680BD80B483B000AF3D4B5B78002BF5
:1043EC0070D00023FB713A4B1B78022B18D0022B98
:1043FC0031DC002B29D0012B2DD1354B9B68002BA8
:10440C0004D0334B9B68013B314A9360304B9B6823
:10441C00304AA2FB03231B0ADBB20233FB711AE006
:10442C002B4B9B6849F26F42934204D8284B9B68F4
:10443C000133274A9360264B9B68264AA2FB032331
:10444C00DB09DBB20233FB7105E0214B224A9A6097
:10445C001523FB7100BF1E4B1B790133DAB21C4BC9
:10446C001A711B4B1B79FA799A422BD8184B0022E4
:10447C001A71174BDB78002B11D0154B9B781A4611
:10448C00164BDB689A4206D2114B9B780133DAB299
:10449C000F4B9A7011E00E4B0022DA700DE00C4BB2
:1044AC009B78022B06D90A4B9B78013BDAB2084B5E
:1044BC009A7002E0064B0122DA70054B9A78074B92
:1044CC001B689A6300BF0C37BD4680BC704700BFA9
:1044DC00D8090020D34D621020480100A00A00200A
:1044EC0080B483B000AF0346FB71044AFB791370B0
:1044FC0000BF0C37BD4680BC704700BFD8090020F8
:10450C0080B483B000AF0346FB71FB79002B03D161
:10451C00054B1B6800229A63044AFB79537000BF59
:10452C000C37BD4680BC7047A00A0020D80900207B
:10453C0080B500AF04210248FEF720F800BF80BD13
:10454C00A00A002080B400AF024B1846BD4680BCC8
:10455C00704700BFE409002080B483B000AF03466D
:10456C000A46FB711346BB71BB79002B07D0BB7994
:10457C00082B04D8BB79013B0349FA79CA5400BF14
:10458C000C37BD4680BC7047E409002090B583B061
:10459C0000AF7860934B93F900301A4613461B0119
:1045AC009B1A03F28B131846FCF7C8F804467B6879
:1045BC001B688D491846FCF715F903461946204629
:1045CC00FCF708F803461A46884B1C681046FCF7A3
:1045DC00CFFA03466363834B93F901301A461346B3
:1045EC001B019B1A03F28B131846FCF7A7F8044621
:1045FC007B6804331B6819467D48FBF7E9FF0346CB
:10460C0079491846FCF7EEF8034619462046FBF7A5
:10461C00E1FF03461A46754B1C681046FCF7A8FAD6
:10462C000346A3636F4B93F902301A4613461B01E2
:10463C009B1A03F28B131846FCF780F804467B6830
:10464C0008331B6868491846FCF7CCF80346194632
:10465C002046FBF7BFFF03461A46644B1C68104606
:10466C00FCF786FA0346E3635E4B93F903301A4674
:10467C0013461B019B1A03F28B131846FCF75EF8CA
:10468C0004467B680C331B6819465948FBF7A0FF9E
:10469C00034655491846FCF7A5F80346194620462B
:1046AC00FBF798FF03461A46504B1C681046FCF764
:1046BC005FFA034623644B4B93F904301A461346B6
:1046CC001B019B1A03F28B131846FCF737F80446B0
:1046DC007B6810331B6844491846FCF783F8034683
:1046EC0019462046FBF776FF03461A46414B1C68D9
:1046FC001046FCF73DFA034663633A4B93F90530D9
:10470C001A4613461B019B1A03F28B131846FCF72F
:10471C0015F804467B6814331B6819463448FBF7BC
:10472C0057FF034630491846FCF75CF80346194618
:10473C002046FBF74FFF03461A462E4B1C681046CB
:10474C00FCF716FA0346A363264B93F906301A4678
:10475C0013461B019B1A03F28B131846FBF7EEFF53
:10476C0004467B6818331B681F491846FCF73AF857
:10477C00034619462046FBF72DFF03461A461D4BF0
:10478C001C681046FCF7F4F90346E363154B93F9E8
:10479C0007301A4613461B019B1A03F28B1318465B
:1047AC00FBF7CCFF04467B681C331B68194610488A
:1047BC00FBF70EFF03460C491846FCF713F80346AB
:1047CC0019462046FBF706FF03461A46094B1C68A0
:1047DC001046FCF7CDF90346236400BF0C37BD46E9
:1047EC0090BD00BFE40900203333BB41E80A002030
:1047FC000000C842300B002080B500AF00211048EB
:10480C00FDF7BCFE04210E48FDF7B8FE08210C484C
:10481C00FDF7B4FE0C210A48FDF7B0FE0021094853
:10482C00FDF7ACFE04210748FDF7A8FE082105485A
:10483C00FDF7A4FE0C210348FDF7A0FE00BF80BDD0
:10484C00E80A0020300B002080B400AF064B5B6BF5
:10485C00002B04D0044BDB6A0133034AD36200BF44
:10486C00BD4680BC704700BFEC09002080B400AF8F
:10487C00094B00225A63084B002283F83820064B60
:10488C0000221A62044B00229A62034B0022DA6265
:10489C0000BFBD4680BC7047EC09002080B483B0DB
:1048AC0000AF78600D4B00221A620C4B00229A620A
:1048BC007B680C33094A13637B681B68074A536394
:1048CC007B681A79054B83F838207B689B68034A10
:1048DC00D36300BF0C37BD4680BC7047EC09002089
:1048EC00B0B584B000AF994B93F83830002B05D09D
:1048FC00964B1A6A954B5B6B9A420DD3934B93F87C
:10490C003830002B40F00E81904B1A6A8F4B5B6B4A
:10491C00013B9A4280F006818C4B1A6B8B4B1B6AC5
:10492C005B0113443B60894B1A6A884B5B6B013B00
:10493C009A4203D1854B1B6BFB6007E0834B1A6BD0
:10494C00824B1B6A01335B011344FB607F4B9B6AF8
:10495C00002B49D14FF00003BB600023FB7135E005
:10496C00FB799B00FA6813441868FB799B003A6842
:10497C0013441B681946FBF72BFE034623F0004338
:10498C001846FBF741FD04460D46FB791846FBF72C
:10499C0029FD02460B4620462946FBF70BFE034633
:1049AC00002B10D0FB799B00FA6813441868FB7934
:1049BC009B003A6813441B681946FBF709FE034633
:1049CC0023F00043BB60FB790133FB71FB79082BAF
:1049DC00C6D15F49B868FBF7B9FF03461846FCF728
:1049EC00C7F80346594A5362584B9A6A574B5B6A4D
:1049FC009A4200F08E800023BB717DE0BB799B0056
:104A0C00FA6813441868BB799B003A6813441B6816
:104A1C001946FCF7A3F80346002B35D0BB799B0055
:104A2C003A6813441D68BB799B00FA6813441868F4
:104A3C00BB799B003A6813441B681946FBF7C8FD09
:104A4C0003461C46414B5B6A1846FBF773FE034654
:104A5C0019462046FBF77AFF03461C463B4B9B6AE4
:104A6C001846FBF767FE034619462046FBF7BAFECD
:104A7C000346BC7919462846FBF7ACFD03461A469B
:104A8C00324B43F8242034E0BB799B003A68134442
:104A9C001D68BB799B003A6813441868BB799B006E
:104AAC00FA6813441B681946FBF792FD03461C4633
:104ABC00264B5B6A1846FBF73DFE0346194620461B
:104ACC00FBF744FF03461C46204B9B6A1846FBF73A
:104ADC0031FE034619462046FBF784FE0346BC799B
:104AEC0019462846FBF774FD03461A46174B43F844
:104AFC002420BB790133BB71BB79082B7FF47EAFCB
:104B0C001248FFF743FD114B9B6A01330F4A936226
:104B1C0017E00E4B00229A620C4B1B6A01330B4AB6
:104B2C0013620EE0094B93F83830002B06D0074B7C
:104B3C0000221A62054B00229A6202E0FFF796FEF1
:104B4C00FFE700BF1037BD46B0BD00BFEC09002029
:104B5C00E4380E3F80B500AF084B5B6B002B0AD0DE
:104B6C00064BDA6A054BDB6B9A4204D3FFF7B8FEAF
:104B7C00024B0022DA6200BF80BD00BFEC090020AE
:104B8C0080B400AF084B1B78002B09D0064B5B6838
:104B9C00B3F5967F04D2044B5B680133024A536031
:104BAC0000BFBD4680BC70472C0A002080B500AF0A
:104BBC0000F0A8FD00F090FB00BF80BD80B582B076
:104BCC0000AF7D4800F022F90346FB717B4B1B784C
:104BDC00002B05D0FB79002B02D0784B00225A60B9
:104BEC00FB79002B00F09780744B1B78FA799A4272
:104BFC0000F09180714AFB791370FB79013B172B04
:104C0C007ED801A252F823F0754C00087D4C0008A8
:104C1C00854C00088D4C0008954C00089D4C0008F4
:104C2C00A54C0008AD4C0008B54C0008BD4C000864
:104C3C00C54C0008CD4C0008D54C0008DD4C0008D4
:104C4C00E54C0008ED4C0008F54C0008FD4C000844
:104C5C000D4D00080D4D00080D4D00080D4D0008C0
:104C6C000D4D0008054D00085548FFF717FE47E0AD
:104C7C005448FFF713FE43E05348FFF70FFE3FE0A5
:104C8C005248FFF70BFE3BE05148FFF707FE37E0B9
:104C9C005048FFF703FE33E04F48FFF7FFFD2FE0CE
:104CAC004E48FFF7FBFD2BE04D48FFF7F7FD27E0E3
:104CBC004C48FFF7F3FD23E04B48FFF7EFFD1FE0F7
:104CCC004A48FFF7EBFD1BE04948FFF7E7FD17E00B
:104CDC004848FFF7E3FD13E04748FFF7DFFD0FE01F
:104CEC004648FFF7DBFD0BE04548FFF7D7FD07E033
:104CFC004448FFF7D3FD03E0304B00221A7000BF8D
:104D0C002E4B1B78002B06D02C4B1B78132B02D070
:104D1C000120FFF7E5FB294B5B68B3F5967F44D187
:104D2C00264B1B78013B162B40D801A252F823F0DE
:104D3C00994D0008994D0008994D0008994D0008AF
:104D4C00994D0008994D0008994D0008994D00089F
:104D5C00994D0008994D0008994D0008994D00088F
:104D6C00994D0008994D0008994D0008994D00087F
:104D7C00994D0008994D0008B94D0008994D00084F
:104D8C00B94D0008B94D0008B94D00080220FFF7D5
:104D9C00A7FB0A4B00221A70084B00225A60FFF73F
:104DAC0065FD1948FFF7F2FB00E000BFFFF7D2FEEC
:104DBC0000BF0837BD4680BD340A00202C0A0020F5
:104DCC00746A0008006B00088C6B0008186C0008F3
:104DDC00A46C0008306D0008BC6D0008486E00081B
:104DEC00D46E0008606F0008EC6F00087870000843
:104DFC0004710008907100081C720008A872000869
:104E0C0034730008C0730008346A000890B585B08C
:104E1C0000AF78600023FB73FFF736F90346002BD5
:104E2C0000F04682FFF726F9034601331B78313B2D
:104E3C001B2B00F23A8201A252F823F0C34E000859
:104E4C00F54E0008274F0008594F00088B4F0008FB
:104E5C00BD4F0008B7520008B7520008B7520008FF
:104E6C00B7520008B7520008B7520008B7520008F2
:104E7C00B7520008B94E0008B7520008B7520008E4
:104E8C00B7520008B75200085B5100089151000856
:104E9C00BB510008DF510008E5510008ED51000836
:104EAC0073520008A5500008EF4F00080221B448C7
:104EBC00FFF7C8F8F9E1FFF7DDF8034603331B7879
:104ECC00332B0DD0332B00F3DF81312B02D0322B5F
:104EDC0003D0D9E10123FB7305E00223FB7302E04D
:104EEC000323FB7300BFCFE1FFF7C4F80346033382
:104EFC001B78332B0DD0332B00F3C881312B02D010
:104F0C00322B03D0C2E10423FB7305E00523FB73B2
:104F1C0002E00623FB7300BFB8E1FFF7ABF80346D2
:104F2C0003331B78332B0DD0332B00F3B181312B92
:104F3C0002D0322B03D0ABE10723FB7305E008232F
:104F4C00FB7302E00923FB7300BFA1E1FFF792F8AA
:104F5C00034603331B78332B0DD0332B00F39A818C
:104F6C00312B02D0322B03D094E10A23FB7305E0E2
:104F7C000B23FB7302E00C23FB7300BF8AE1FFF7EA
:104F8C0079F8034603331B78332B0DD0332B00F306
:104F9C008381312B02D0322B03D07DE10D23FB73A7
:104FAC0005E00E23FB7302E00F23FB7300BF73E1DC
:104FBC00FFF760F8034603331B78332B0DD0332BEC
:104FCC0000F36C81312B02D0322B03D066E110231D
:104FDC00FB7305E01123FB7302E01223FB7300BF8C
:104FEC005CE1FFF747F8034602331B781A46920040
:104FFC0013441A4691001A460B4613449B00DCB22C
:10500C00FFF738F8034603331B781A469200134413
:10501C005B00DBB22344DCB2FFF72CF8034604330D
:10502C001B782344DBB23033DAB27B681A70FFF79B
:10503C0021F8034606331B781A46920013441A468D
:10504C0091001A460B4613449B00DCB2FFF712F892
:10505C00034607331B781A46920013445B00DBB2FD
:10506C002344DCB2FFF706F8034608331B782344CD
:10507C00DAB27B6801333032D2B21A707B681B789B
:10508C00B42B00F20D817B6801331B78642B00F28A
:10509C0007811323FB7303E1FEF7ECFF0346023396
:1050AC001B781A46920013441A4691001A460B4676
:1050BC0013449B00DCB2FEF7DDFF034603331B7881
:1050CC001A46920013445B00DBB22344DCB2FEF7B9
:1050DC00D1FF034604331B782344DBB23033DAB2FE
:1050EC007B681A70FEF7C6FF034606331B781A4618
:1050FC00920013441A4691001A460B4613449B0027
:10510C00DCB2FEF7B7FF034607331B781A46920052
:10511C0013445B00DBB22344DCB2FEF7ABFF034667
:10512C0008331B782344DAB27B6801333032D2B2B5
:10513C001A707B681B78B42B00F2B4807B68013347
:10514C001B78642B00F2AE801423FB73AAE0FEF7ED
:10515C0091FF034603331B78332B0DD0332B00F315
:10516C00A380312B02D0322B03D09DE01523FB738F
:10517C0005E01623FB7302E01723FB7300BF93E0DB
:10518C001C6A0008FEF776FF034602331B78303B9F
:10519C00DBB21846FFF7B4F9FEF76CFF0346023397
:1051AC001B78303BDBB2184600F0E2F97DE0FFF7EC
:1051BC005DFB0020FFF794F94548FFF7E7F900F095
:1051CC007FF9034622211846FEF73CFF1823FB7398
:1051DC006BE000F011F968E03E48FFF7D7F964E0A6
:1051EC00FEF748FF034602331B782D2B1ED1FEF72A
:1051FC0041FF034603331C78FEF73CFF03460333A1
:10520C001B78303BDBB25B00DBB2E31ADBB2303B2A
:10521C00DBB25CB2FEF72EFF034604331B78303B47
:10522C00DBB219462046FFF797F912E0FEF722FF92
:10523C00034603331B78303BDBB25CB2FEF71AFF3C
:10524C00034604331B78303BDBB219462046FFF78C
:10525C0083F9FFF777F90346184600F03BF91C4831
:10526C00FFF794F921E0FEF705FF034603F10C0468
:10527C00FEF700FF034602331946204600F08CF976
:10528C001448FFF783F910E000BF0EE000BF0CE0FC
:10529C0000BF0AE000BF08E000BF06E000BF04E06A
:1052AC0000BF02E000BF00E000BFFEF7ADFE09E06A
:1052BC00FEF7D2FD0346002B04D1FFF7D7FA0548C1
:1052CC00FFF764F9FB7B18461437BD4690BD00BF51
:1052DC00546A0008346A000880B500AF0F23034AF3
:1052EC0003492320FEF7E2FE00BF80BD180000201A
:1052FC000800002080B400AF3E4B1B78232B72D1EA
:10530C003C4B5B78432B6ED13A4B9B782B2B03D0C9
:10531C00384B9B782D2B66D1364B1B792B2B03D01E
:10532C00344B1B792D2B5ED1324B9B792B2B03D01D
:10533C00304B9B792D2B56D12E4B1B7A2B2B03D01C
:10534C002C4B1B7A2D2B4ED12A4B9B7A2B2B03D01B
:10535C00284B9B7A2D2B46D1264B1B7B2B2B03D01A
:10536C00244B1B7B2D2B3ED1224B9B7B2B2B03D019
:10537C00204B9B7B2D2B36D11E4B1B7C2B2B03D018
:10538C001C4B1B7C2D2B2ED11A4BDB78392B2AD89E
:10539C00184B5B79392B26D8164BDB79392B22D855
:1053AC00144B5B7A392B1ED8124BDB7A392B1AD85B
:1053BC00104B5B7B392B16D80E4BDB7B392B12D861
:1053CC000C4B5B7C392B0ED80A4B93F82030312BCD
:1053DC0009D8084B93F821300A2B04D1054B93F8CC
:1053EC002230002B01D0002300E001231846BD46DB
:1053FC0080BC7047740A002080B500AFFFF77AFFBD
:10540C000346002B04D123220449054801F030F94E
:10541C0023210348FEF700FF00BF80BD4C74000839
:10542C00740A002080B584B000AF78603960232105
:10543C002148FEF769FEFFF75DFF0346002B04D100
:10544C0023221E491C4801F013F90023FB7324E0AE
:10545C00FB7B0133FB73FB7B5B00174AD35C2D2B6F
:10546C000ED1FB7B5B000133134AD35CC3F13003D9
:10547C00D9B2FB7B013B7A6813444AB21A700CE038
:10548C00FB7B5B0001330C4AD35C303BD9B2FB7B1A
:10549C00013B7A6813444AB21A70FB7B082BD7D1B4
:1054AC00054B93F82030303BDAB23B681A7000BFE2
:1054BC001037BD4680BD00BF740A00204C74000834
:1054CC0080B400AF024B1846BD4680BC704700BF8D
:1054DC00740A002080B584B000AF78600023FB73A1
:1054EC0031E0FB7B7A68134493F90030002B13DB1B
:1054FC00FB7B01335B001C4A2B21D154FB7B7A686C
:10550C00134493F90030DAB2FB7B5B000333303287
:10551C00D1B2154AD15413E0FB7B01335B00124A24
:10552C002D21D154FB7B7A68134493F90030DAB205
:10553C00FB7B5B000333C2F13002D1B20A4AD15477
:10554C00FB7B0133FB73FB7B082BCAD1FFF7D2FE2D
:10555C000346002B04D123220449034801F088F8A8
:10556C0000BF1037BD4680BD740A00204C74000883
:10557C0080B582B000AF0346FB71FB793033DAB2F1
:10558C00044B83F82020FFF737FF00BF0837BD46D8
:10559C0080BD00BF740A002080B584B000AF786075
:1055AC003960FFF7A7FE0346002B04D123224E4996
:1055BC004E4801F05DF87B681B681A464B4BC3F8EC
:1055CC0012200A2239684A4801F052F82321474830
:1055DC00FEF722FE00224FF400614648FCF7DBFA8E
:1055EC004FF4C870FBF746FB01224FF400614148B1
:1055FC00FCF7D1FA4FF4FA70FBF73CFB00BF4FF409
:10560C0080713C48FCF7B0FA0346002BF7D14FF4FD
:10561C009670FBF72FFB122000F0E6FD0346BB60F3
:10562C0006223549B86801F023F8BB6806337A685E
:10563C0012681A60BB680A3302223049184601F01E
:10564C0017F80C21B868FEF7FDFC3220FBF712FBB3
:10565C0007222B49B86801F00BF80A23FB7308E00A
:10566C00FB7B013BFB73FB7B3A6813441B78202BC1
:10567C0003D1FB7B002BF3D100E000BFBB68D81D2E
:10568C00FB7B01331A46396800F0F2FFFB7B0833D1
:10569C00BA68134402221949184600F0E9FF0C219C
:1056AC00B868FEF7CFFC1221B868FEF7CBFC4FF4BC
:1056BC004870FBF7DFFA00224FF400610D48FCF74D
:1056CC006AFA4FF4C870FBF7D5FA01224FF4006167
:1056DC000848FCF760FA4FF4FA70FBF7CBFA00BFFE
:1056EC001037BD4680BD00BF4C740008740A002002
:1056FC008A0A002000080140206A0008286A000875
:10570C002C6A000880B582B000AF0023FB71FEF755
:10571C0019FF0246FB1D19461046FFF783FEFB7965
:10572C001846FEF7EDFEFEF703FFFFF765F803489A
:10573C00FEF72CFF00BF0837BD4680BD346A000859
:10574C0080B500AFFBF734FA00F013F800F052FA12
:10575C0000F050F800F062F800F0D4F800F02CFAE9
:10576C0000F000FA00F066F9FFF720FAFFF726FACE
:10577C00FCE780B590B000AF07F118032822002198
:10578C00184600F083FF3B1D00221A605A609A6095
:10579C00DA601A610223BB610123BB621023FB6236
:1057AC0002237B630023BB634FF46013FB6307F19D
:1057BC0018031846FCF720FA0346002B01D000F022
:1057CC007BFA0F237B600223BB600023FB604FF44A
:1057DC0080633B6100237B613B1D02211846FCF773
:1057EC008DFC0346002B01D000F066FA00BF403759
:1057FC00BD4680BD80B500AF064B074A1A60054810
:10580C00FBF769FB0346002B01D000F055FA00BFF3
:10581C0080BD00BF980A00200030024080B58EB0D9
:10582C0000AF07F1280300221A605A609A60DA6010
:10583C0007F1200300221A605A603B1D00221A60F7
:10584C005A609A60DA601A615A619A612C4B4FF077
:10585C0080421A602A4B1F225A60294B00229A6000
:10586C00274B3F22DA60264B00221A61244B002280
:10587C009A612348FCF7DAFD0346002B01D000F0B7
:10588C001BFA4FF48053BB6207F1280319461C48DE
:10589C00FCF7D4FF0346002B01D000F00DFA18489A
:1058AC00FCF713FE0346002B01D000F005FA002391
:1058BC003B6200237B6207F1200319461048FDF779
:1058CC0025FB0346002B01D000F0F6F960237B602A
:1058DC000023BB600023FB6000237B613B1D042283
:1058EC0019460748FCF7ECFE0346002B01D000F0EC
:1058FC00E3F9034800F07AFA00BF3837BD4680BDA3
:10590C00A00A002080B58EB000AF07F1280300225A
:10591C001A605A609A60DA6007F1200300221A605C
:10592C005A603B1D00221A605A609A60DA601A6154
:10593C005A619A613D4B3E4A1A603C4B3F225A6079
:10594C003A4B00229A60394B44F61F62DA60374BAF
:10595C0000221A61354B00229A613448FCF766FD2F
:10596C000346002B01D000F0A7F94FF48053BB6223
:10597C0007F1280319462D48FCF760FF0346002B5E
:10598C0001D000F099F92948FCF79FFD0346002B44
:10599C0001D000F091F900233B6200237B6207F1F8
:1059AC00200319462148FDF7B1FA0346002B01D01C
:1059BC0000F082F960237B600023BB600023FB6056
:1059CC0000237B613B1D002219461848FCF778FE2A
:1059DC000346002B01D000F06FF93B1D0422194641
:1059EC001248FCF76DFE0346002B01D000F064F961
:1059FC003B1D082219460D48FCF762FE0346002B9E
:105A0C0001D000F059F93B1D0C2219460748FCF750
:105A1C0057FE0346002B01D000F04EF9034800F06E
:105A2C00E5F900BF3837BD4680BD00BFE80A00204D
:105A3C000004004080B58EB000AF07F128030022AF
:105A4C001A605A609A60DA6007F1200300221A602B
:105A5C005A603B1D00221A605A609A60DA601A6123
:105A6C005A619A613D4B3E4A1A603C4B3F225A6048
:105A7C003A4B00229A60394B44F61F62DA60374B7E
:105A8C0000221A61354B00229A613448FCF7CEFC97
:105A9C000346002B01D000F00FF94FF48053BB628A
:105AAC0007F1280319462D48FCF7C8FE0346002BC6
:105ABC0001D000F001F92948FCF707FD0346002B43
:105ACC0001D000F0F9F800233B6200237B6207F160
