:020000040800F2
:1000000000500020CD5A0008C5590008D1590008F9
:10001000D7590008DD590008E35900080000000026
:10002000000000000000000000000000E959000886
:10003000F559000800000000015A00080D5A000898
:10004000155B0008155B0008155B0008155B0008D0
:10005000155B0008155B0008155B0008155B0008C0
:10006000155B00081D5A0008155B0008155B0008A9
:10007000155B0008155B0008155B0008155B0008A0
:10008000155B0008155B0008155B0008155B000890
:10009000155B0008155B0008155B00082B5A00086B
:1000A000155B00083D5A0008155B0008155B000849
:1000B000155B0008155B0008155B0008155B000860
:1000C000155B0008155B0008155B0008155B000850
:1000D000155B0008515A0008155B0008155B000805
:1000E000155B0008155B0008155B000800000000A8
:1000F0000000000000000000000000000000000000
:0C01000000000000000000005FF808F1A3
:10010C0010B5054C237833B9044B13B10448AFF345
:10011C0000800123237010BDA00C00200000000003
:10012C00705B000808B5034B1BB103490348AFF3E0
:10013C00008008BD00000000A40C0020705B0008CB
:10014C0080F0004002E000BF81F0004142001FBF80
:10015C005FEA410392EA030F7FEA226C7FEA236C89
:10016C006AD04FEA1262D2EB1363C1BFD21841407E
:10017C0048404140B8BF5B42192B88BF704710F014
:10018C00004F40F4000020F07F4018BF404211F0B7
:10019C00004F41F4000121F07F4118BF494292EA1F
:1001AC00030F3FD0A2F1010241FA03FC10EB0C004B
:1001BC00C3F1200301FA03F100F0004302D54942D8
:1001CC0060EB4000B0F5000F13D3B0F1807F06D385
:1001DC0040084FEA310102F10102FE2A51D2B1F17D
:1001EC00004F40EBC25008BF20F0010040EA030072
:1001FC007047490040EB0000013A28BFB0F5000FF2
:10020C00EDD2B0FA80FCACF1080CB2EB0C0200FAA7
:10021C000CF0AABF00EBC25052421843BCBFD040F6
:10022C001843704792F0000F81F4000106BF80F470
:10023C0000000132013BB5E74FEA41037FEA226C33
:10024C0018BF7FEA236C21D092EA030F04D092F0FE
:10025C00000F08BF0846704790EA010F1CBF002032
:10026C00704712F07F4F04D1400028BF40F000408F
:10027C00704712F100723CBF00F50000704700F0AF
:10028C00004343F0FE4040F4000070477FEA2262D6
:10029C0016BF08467FEA23630146420206BF5FEAA7
:1002AC00412390EA010F40F4800070474FF00003A7
:1002BC0004E000BF10F0004348BF40425FEA000C6E
:1002CC0008BF704743F0964301464FF000001CE016
:1002DC0050EA010208BF70474FF000030AE000BF6C
:1002EC0050EA010208BF704711F0004302D54042AA
:1002FC0061EB41015FEA010C02BF8446014600201C
:10030C0043F0B64308BFA3F18053A3F50003BCFA36
:10031C008CF2083AA3EBC25310DB01FA02FC6344E3
:10032C0000FA02FCC2F12002BCF1004F20FA02F2EA
:10033C0043EB020008BF20F00100704702F12002DD
:10034C0001FA02FCC2F1200250EA4C0021FA02F23E
:10035C0043EB020008BF20EADC7070474FF0FF0C43
:10036C001CEAD0521EBF1CEAD15392EA0C0F93EA3E
:10037C000C0F6FD01A4480EA010C400218BF5FEAE0
:10038C0041211ED04FF0006343EA501043EA511153
:10039C00A0FB01310CF00040B1F5000F3EBF49004D
:1003AC0041EAD3715B0040EA010062F17F02FD2A51
:1003BC001DD8B3F1004F40EBC25008BF20F0010034
:1003CC00704790F0000F0CF0004C08BF49024CEA4B
:1003DC00502040EA51207F3AC2BFD2F1FF0340EADD
:1003EC00C250704740F400004FF00003013A5DDC4E
:1003FC0012F1190FDCBF00F000407047C2F100028F
:10040C00410021FA02F1C2F1200200FA02FC5FEA7B
:10041C00310040F1000053EA4C0308BF20EADC70C5
:10042C00704792F0000F00F0004C02BF400010F437
:10043C00000F013AF9D040EA0C0093F0000F01F0E4
:10044C00004C02BF490011F4000F013BF9D041EA06
:10045C000C018FE70CEAD15392EA0C0F18BF93EA08
:10046C000C0F0AD030F0004C18BF31F0004CD8D132
:10047C0080EA010000F00040704790F0000F17BFB9
:10048C0090F0004F084691F0000F91F0004F14D0FF
:10049C0092EA0C0F01D142020FD193EA0C0F03D157
:1004AC004B0218BF084608D180EA010000F000405A
:1004BC0040F0FE4040F40000704740F0FE4040F435
:1004CC00400070474FF0FF0C1CEAD0521EBF1CEAD4
:1004DC00D15392EA0C0F93EA0C0F69D0A2EB0302F2
:1004EC0080EA010C49024FEA402037D04FF080538C
:1004FC0043EA111143EA10130CF000408B4238BF51
:10050C005B0042F17D024FF4000C8B4224BF5B1A5E
:10051C0040EA0C00B3EB510F24BFA3EB510340EAAC
:10052C005C00B3EB910F24BFA3EB910340EA9C005A
:10053C00B3EBD10F24BFA3EBD10340EADC001B01CA
:10054C0018BF5FEA1C1CE0D1FD2A3FF650AF8B426E
:10055C0040EBC25008BF20F0010070470CF0004C7B
:10056C004CEA50207F32C2BFD2F1FF0340EAC250A6
:10057C00704740F400004FF00003013A37E792F067
:10058C00000F00F0004C02BF400010F4000F013AC5
:10059C00F9D040EA0C0093F0000F01F0004C02BFC0
:1005AC00490011F4000F013BF9D041EA0C0195E729
:1005BC000CEAD15392EA0C0F08D142027FF47DAFC2
:1005CC0093EA0C0F7FF470AF084676E793EA0C0FB2
:1005DC0004D14B023FF44CAF08466EE730F0004CB0
:1005EC0018BF31F0004CCAD130F000427FF45CAF40
:1005FC0031F000437FF43CAF5FE700BF42000ED206
:10060C00B2F1FE4F0BD34FF09E03B3EB126209D441
:10061C004FEA002343F0004323FA02F070474FF0F7
:10062C000000704712F1610F01D1420202D14FF06C
:10063C00FF3070474FF00000704700BF80B500AF2F
:10064C00084B1B68074A43F010031360032000F0AB
:10065C0047F9002000F008F805F022F800231846AE
:10066C0080BD00BF0020024080B582B000AF786032
:10067C00124B1A68124B1B7819464FF47A73B3FB62
:10068C00F1F3B2FBF3F3184600F05FF90346002BCD
:10069C0001D001230EE07B680F2B0AD80022796869
:1006AC004FF0FF3000F027F9064A7B6813600023F7
:1006BC0000E0012318460837BD4680BD9C0C002085
:1006CC00040000200000002080B400AF054B1B7814
:1006DC001A46054B1B681344034A136000BFBD4602
:1006EC0080BC704704000020BC0C002080B400AF1C
:1006FC00024B1B681846BD4680BC7047BC0C0020E2
:10070C0080B584B000AF7860FFF7F0FFB8607B680D
:10071C00FB60FB68B3F1FF3F05D00A4B1B781A4610
:10072C00FB681344FB6000BFFFF7E0FF0246BB68A9
:10073C00D31AFA689A42F7D800BF00BF1037BD46EB
:10074C0080BD00BF0400002080B485B000AF78608D
:10075C007B6803F00703FB600C4BDB68BB60BA687B
:10076C004FF6FF031340BB60FB681A02BB681343D0
:10077C0043F0BF6343F40033BB60044ABB68D360EF
:10078C0000BF1437BD4680BC704700BF00ED00E0D1
:10079C0080B400AF044BDB681B0A03F00703184658
:1007AC00BD4680BC704700BF00ED00E080B483B054
:1007BC0000AF0346FB7197F90730002B0BDBFB797D
:1007CC0003F01F02064997F907305B09012000FA74
:1007DC0002F241F8232000BF0C37BD4680BC7047A5
:1007EC0000E100E080B483B000AF03463960FB71D8
:1007FC0097F90730002B0ADB3B68DAB20C4997F902
:10080C0007301201D2B20B4483F800230AE03B6894
:10081C00DAB20849FB7903F00F03043B1201D2B2A0
:10082C000B441A7600BF0C37BD4680BC704700BF26
:10083C0000E100E000ED00E080B489B000AFF860AA
:10084C00B9607A60FB6803F00703FB61FB69C3F1D5
:10085C000703042B28BF0423BB61FB690433062B5D
:10086C0002D9FB69033B00E000237B614FF0FF32B0
:10087C00BB6902FA03F3DA43BB681A407B699A40FE
:10088C004FF0FF317B6901FA03F3D9437B680B40CE
:10089C00134318462437BD4680BC704780B582B0E0
:1008AC0000AF78607B68013BB3F1807F01D30123FB
:1008BC000FE00A4A7B68013B53600F214FF0FF3079
:1008CC00FFF790FF054B00229A60044B07221A6039
:1008DC00002318460837BD4680BD00BF10E000E07D
:1008EC0080B582B000AF78607868FFF72DFF00BF4D
:1008FC000837BD4680BD80B586B000AF0346B960F1
:10090C007A60FB7300237B61FFF742FF78617A68A2
:10091C00B9687869FFF790FF024697F90F301146D6
:10092C001846FFF75FFF00BF1837BD4680BD80B586
:10093C0082B000AF0346FB7197F907301846FFF7FA
:10094C0035FF00BF0837BD4680BD80B582B000AF13
:10095C0078607868FFF7A2FF034618460837BD4653
:10096C0080BD80B582B000AF78607B68002B01D170
:10097C0001230EE07B685B79DBB2002B05D17B6831
:10098C0000221A71786804F0BDFE7B6801225A714E
:10099C00002318460837BD4680BD80B485B000AF33
:1009AC0078600023FB737B6893F82130022B08D00E
:1009BC007B6804229A637B68002283F82020012341
:1009CC0020E07B681B681A687B681B6822F00E02AB
:1009DC001A607B681B681A687B681B6822F001022E
:1009EC001A607B681A6C7B68DB6B012101FA02F2DE
:1009FC005A607B68012283F821207B68002283F8EF
:100A0C002020FB7B18461437BD4680BC7047000085
:100A1C0080B584B000AF78600023FB737B6893F8DB
:100A2C002130022B05D07B6804229A630123FB73CF
:100A3C0051E07B681B681A687B681B6822F00E0209
:100A4C001A607B681B681A687B681B6822F00102BD
:100A5C001A607B681B68224A934229D07B681B680A
:100A6C00204A934222D07B681B681F4A93421AD0BB
:100A7C007B681B681D4A934212D07B681B681C4A1A
:100A8C0093420AD07B681B681A4A934202D14FF4F6
:100A9C0080130EE04FF080730BE04FF4803308E0CE
:100AAC004FF4805305E04FF4807302E0102300E014
:100ABC000123114A53607B68012283F821207B6853
:100ACC00002283F820207B685B6B002B03D07B68B3
:100ADC005B6B78689847FB7B18461037BD4680BD2A
:100AEC00080002401C00024030000240440002405A
:100AFC00580002406C00024000000240F0B587B084
:100B0C0000AFF860B960C7E900230123FB7500232F
:100B1C00BB7500237B752F4B1B7E012B01D1022350
:100B2C0054E02C4B01221A764CF2503000F0A8F80D
:100B3C000346FB75FB7D002B44D1FB68012B02D1D6
:100B4C0001237B7507E0FB68022B02D102237B7526
:100B5C0001E004237B750023BB752DE0BB7D5A009F
:100B6C00BB6802EB030CBB7D1901D7E90023C1F173
:100B7C002006A1F1200022FA01F403FA06F6344310
:100B8C0023FA00F0044323FA01F5A3B21946604698
:100B9C0000F05AF84CF2503000F072F80346FB7536
:100BAC000D4B1B690C4A23F001031361FB7D002BD9
:100BBC0007D1BB7D0133BB75BA7D7B7D9A42CDD30A
:100BCC0000E000BF034B00221A76FB7D18461C3751
:100BDC00BD46F0BDC00C00200020024080B483B0A4
:100BEC0000AF0023FB710D4B1B6903F08003002B3E
:100BFC000DD00A4B0A4A5A60084B0A4A5A60074BF6
:100C0C001B6903F08003002B01D00123FB71FB79DE
:100C1C0018460C37BD4680BC704700BF0020024010
:100C2C0023016745AB89EFCD80B400AF054B1B6941
:100C3C00044A43F08003136100231846BD4680BC70
:100C4C00704700BF0020024080B483B000AF7860D2
:100C5C000B467B80084B0022DA61084B1B69074A64
:100C6C0043F0010313617B687A881A8000BF0C374C
:100C7C00BD4680BC704700BFC00C00200020024065
:100C8C0080B584B000AF7860FFF730FDF86010E0FD
:100C9C007B68B3F1FF3F0CD07B68002B07D0FFF7CC
:100CAC0025FD0246FB68D31A7A689A4201D20323C7
:100CBC0025E0154BDB6803F00103002BE8D1124B48
:100CCC00DB6803F02003002B02D00F4B2022DA60EC
:100CDC000D4BDB6803F01003002B0BD10A4BDB69C7
:100CEC0003F00103002B05D1074BDB6803F0040371
:100CFC00002B03D000F00AF8012300E00023184673
:100D0C001037BD4680BD00BF0020024080B483B0C8
:100D1C0000AF00237B60234BDB6803F01003002B38
:100D2C0009D0214BDB6943F002031F4AD3617B6876
:100D3C0043F010037B601B4BDB6803F00403002BB8
:100D4C0009D0194BDB6943F00103174AD3617B6867
:100D5C0043F004037B60134BDB6903F00103002BAE
:100D6C000BD0114BDB6943F004030F4AD3610D4BDD
:100D7C00DB690C4A23F00103D3617B6840F201125A
:100D8C00934206D1074BDB69064A23F00103D3617A
:100D9C0002E0044A7B68D36000BF0C37BD4680BCC0
:100DAC00704700BF00200240C00C002080B584B00A
:100DBC0000AF786039600123FB730023BB602F4BBD
:100DCC001B7E012B01D1022353E02C4B01221A76FE
:100DDC007B681B68022B16D14CF25030FFF750FF8A
:100DEC000346002B41D1012000F04CF84CF250305E
:100DFC00FFF746FF0346FB73214B1B69204A23F088
:100E0C000403136131E04CF25030FFF739FF034615
:100E1C00002B2AD13B684FF0FF321A607B689B682D
:100E2C00BB6019E0B86800F049F84CF25030FFF79D
:100E3C0027FF0346FB73124B1B69114A23F0020375
:100E4C001361FB7B002B03D03B68BA681A600CE083
:100E5C00BB6803F58063BB607B68DB689A027B68C8
:100E6C009B681344BA689A42DCD3044B00221A766E
:100E7C00FB7B18461037BD4680BD00BFC00C002060
:100E8C000020024080B483B000AF7860094B002290
:100E9C00DA61094B1B69084A43F004031361064BE2
:100EAC001B69054A43F04003136100BF0C37BD4674
:100EBC0080BC7047C00C00200020024080B483B07E
:100ECC0000AF78600B4B0022DA610B4B1B690A4AAE
:100EDC0043F002031361084A7B685361064B1B699C
:100EEC00054A43F04003136100BF0C37BD4680BC7C
:100EFC00704700BFC00C00200020024080B48BB0B3
:100F0C0000AF7860396000237B6200233B6269E1AB
:100F1C0001227B6A02FA03F3FB613B681B68FA69E6
:100F2C001340BB61BA69FB699A4240F058813B6837
:100F3C005B689A4A93425ED0984A934275D8984A15
:100F4C00934258D0964A93426FD8964A934252D0C5
:100F5C00944A934269D8944A93424CD0924A934211
:100F6C0063D8924A934246D0904A93425DD8122B52
:100F7C002AD8122B59D801A252F823F003100008DA
:100F8C00DD0F0008EF0F00083110000837100008C3
:100F9C003710000837100008371000083710000809
:100FAC0037100008371000083710000837100008F9
:100FBC0037100008371000083710000837100008E9
:100FCC00E50F0008F90F0008794A934213D02CE082
:100FDC003B68DB683B6229E03B68DB6804333B62BF
:100FEC0024E03B68DB6808333B621FE03B68DB684E
:100FFC000C333B621AE03B689B68002B02D1042344
:10100C003B6213E03B689B68012B05D108233B62D4
:10101C007B68FA691A6109E008233B627B68FA690C
:10102C005A6103E000233B6200E000BFBB69FF2B69
:10103C0001D87B6801E07B6804337B61BB69FF2BC3
:10104C0002D87B6A9B0002E07B6A083B9B003B61F9
:10105C007B691A680F213B6901FA03F3DB431A40E1
:10106C00396A3B6901FA03F31A437B691A603B68DE
:10107C005B6803F08053002B00F0B1804D4B9B69F3
:10108C004C4A43F0010393614A4B9B6903F0010303
:10109C00BB60BB68484A7B6A9B08023352F823301A
:1010AC00FB607B6A03F003039B000F2202FA03F33D
:1010BC00DB43FA681340FB607B68404A934213D0D1
:1010CC007B683F4A93420DD07B683E4A934207D0DF
:1010DC007B683D4A934201D1032306E0042304E0DC
:1010EC00022302E0012300E000237A6A02F00302EB
:1010FC0092009340FA681343FB602F497B6A9B086C
:10110C000233FA6841F823203B685B6803F48033B0
:10111C00002B06D02D4B1A682C49BB6913430B606E
:10112C0006E02A4B1A68BB69DB43284913400B6065
:10113C003B685B6803F40033002B06D0234B5A68E2
:10114C002249BB6913434B6006E0204B5A68BB69CC
:10115C00DB431E4913404B603B685B6803F4801310
:10116C00002B06D0194B9A681849BB6913438B6046
:10117C0006E0164B9A68BB69DB43144913408B603D
:10118C003B685B6803F40013002B21D00F4BDA682B
:10119C000E49BB691343CB6021E000BF0000321045
:1011AC00000031100000221000002110000012106D
:1011BC000000111000100240000001400008014026
:1011CC00000C0140001001400014014000040140DB
:1011DC000B4BDA68BB69DB4309491340CB607B6A74
:1011EC0001337B623B681A687B6A22FA03F3002B9B
:1011FC007FF48EAE00BF00BF2C37BD4680BC70475D
:10120C000004014080B485B000AF78600B467B8051
:10121C007B689A687B881340002B02D00123FB73F8
:10122C0001E00023FB73FB7B18461437BD4680BCE2
:10123C00704780B483B000AF78600B467B80134658
:10124C007B707B78002B03D07A887B681A6103E073
:10125C007B881A047B681A6100BF0C37BD4680BCC2
:10126C007047000080B582B000AF0346FB80084B8E
:10127C005A69FB881340002B06D0054AFB88536142
:10128C00FB88184602F02EFA00BF0837BD4680BD19
:10129C000004014080B586B000AF78607B68002BFD
:1012AC0001D1012372E27B681B6803F00103002B60
:1012BC0000F08780924B5B6803F00C03042B0CD07E
:1012CC008F4B5B6803F00C03082B12D18C4B5B68C3
:1012DC0003F48033B3F5803F0BD1894B1B6803F4C7
:1012EC000033002B6CD07B685B68002B68D101232A
:1012FC004CE27B685B68B3F5803F06D1804B1B6882
:10130C007F4A43F4803313602EE07B685B68002BCC
:10131C000CD17B4B1B687A4A23F480331360784BD7
:10132C001B68774A23F4802313601DE07B685B689D
:10133C00B3F5A02F0CD1724B1B68714A43F4802378
:10134C0013606F4B1B686E4A43F4803313600BE0E1
:10135C006B4B1B686A4A23F480331360684B1B6821
:10136C00674A23F4802313607B685B68002B13D0DF
:10137C00FFF7BCF9386108E0FFF7B8F902463B69A2
:10138C00D31A642B01D9032300E25D4B1B6803F4D1
:10139C000033002BF0D014E0FFF7A8F9386108E017
:1013AC00FFF7A4F902463B69D31A642B01D9032336
:1013BC00ECE1534B1B6803F40033002BF0D100E03D
:1013CC0000BF7B681B6803F00203002B63D04C4BFF
:1013DC005B6803F00C03002B0BD0494B5B6803F0EC
:1013EC000C03082B1CD1464B5B6803F48033002B99
:1013FC0016D1434B1B6803F00203002B05D07B680E
:10140C001B69012B01D00123C0E13D4B1B6823F06C
:10141C00F8027B685B69DB00394913430B603AE0E7
:10142C007B681B69002B20D0364B01221A60FFF71A
:10143C005DF9386108E0FFF759F902463B69D31AA8
:10144C00022B01D90323A1E12D4B1B6803F00203EE
:10145C00002BF0D02A4B1B6823F0F8027B685B69E9
:10146C00DB00274913430B6015E0264B00221A6062
:10147C00FFF73CF9386108E0FFF738F902463B69A1
:10148C00D31A022B01D9032380E11D4B1B6803F0F7
:10149C000203002BF0D17B681B6803F00803002BC0
:1014AC003AD07B689B69002B19D0174B01221A602C
:1014BC00FFF71CF9386108E0FFF718F902463B69A1
:1014CC00D31A022B01D9032360E10D4B5B6A03F0A5
:1014DC000203002BF0D0012000F0D8FA1CE00A4BDC
:1014EC0000221A60FFF702F938610FE0FFF7FEF8EF
:1014FC0002463B69D31A022B08D9032346E100BFED
:10150C00001002400000424280044242924B5B6A4F
:10151C0003F00203002BE9D17B681B6803F0040382
:10152C00002B00F0A6800023FB758B4BDB6903F0CE
:10153C008053002B0DD1884BDB69874A43F08053D5
:10154C00D361854BDB6903F08053BB60BB6801231F
:10155C00FB75824B1B6803F48073002B18D17F4BF7
:10156C001B687E4A43F480731360FFF7BFF8386141
:10157C0008E0FFF7BBF802463B69D31A642B01D98C
:10158C00032303E1754B1B6803F48073002BF0D02D
:10159C007B68DB68012B06D16F4B1B6A6E4A43F0EC
:1015AC00010313622DE07B68DB68002B0CD16A4BC6
:1015BC001B6A694A23F001031362674B1B6A664A74
:1015CC0023F0040313621CE07B68DB68052B0CD151
:1015DC00614B1B6A604A43F0040313625E4B1B6A47
:1015EC005D4A43F0010313620BE05B4B1B6A5A4AE2
:1015FC0023F001031362584B1B6A574A23F0040370
:10160C0013627B68DB68002B15D0FFF76FF838612D
:10161C000AE0FFF76BF802463B69D31A41F28832B5
:10162C00934201D90323B1E04B4B1B6A03F0020335
:10163C00002BEED014E0FFF759F838610AE0FFF701
:10164C0055F802463B69D31A41F28832934201D9CC
:10165C0003239BE0404B1B6A03F00203002BEED1EB
:10166C00FB7D012B05D13C4BDB693B4A23F08053BE
:10167C00D3617B68DB69002B00F08780364B5B689D
:10168C0003F00C03082B61D07B68DB69022B46D17D
:10169C00334B00221A60FFF729F8386108E0FFF796
:1016AC0025F802463B69D31A022B01D903236DE0BE
:1016BC00294B1B6803F00073002BF0D17B681B6A6D
:1016CC00B3F5803F08D1244B5B6823F400327B6870
:1016DC009B68214913434B601F4B5B6823F47412C6
:1016EC007B68196A7B685B6A0B431B4913434B602D
:1016FC001B4B01221A60FEF7F9FF386108E0FEF778
:10170C00F5FF02463B69D31A022B01D903233DE0B6
:10171C00114B1B6803F00073002BF0D035E0104B1D
:10172C0000221A60FEF7E2FF386108E0FEF7DEFFE8
:10173C0002463B69D31A022B01D9032326E0064B40
:10174C001B6803F00073002BF0D11EE07B68DB6993
:10175C00012B07D1012319E000100240007000405A
:10176C00600042420B4B5B68FB60FB6803F4803209
:10177C007B681B6A9A4206D1FB6803F470127B6883
:10178C005B6A9A4201D0012300E000231846183707
:10179C00BD4680BD0010024080B584B000AF7860BB
:1017AC0039607B68002B01D10123D0E06A4B1B68A8
:1017BC0003F007033A689A4210D9674B1B6823F071
:1017CC00070265493B6813430B60634B1B6803F0CE
:1017DC0007033A689A4201D00123B8E07B681B6882
:1017EC0003F00203002B20D07B681B6803F004037A
:1017FC00002B05D0594B5B68584A43F4E0635360A7
:10180C007B681B6803F00803002B05D0534B5B6807
:10181C00524A43F460535360504B5B6823F0F00220
:10182C007B689B684D4913434B607B681B6803F0D6
:10183C000103002B40D07B685B68012B07D1474B21
:10184C001B6803F40033002B15D101237FE07B6868
:10185C005B68022B07D1414B1B6803F00073002B14
:10186C0009D1012373E03D4B1B6803F00203002BED
:10187C0001D101236BE0394B5B6823F003027B68D9
:10188C005B68364913434B60FEF730FFF8600AE0A3
:10189C00FEF72CFF0246FB68D31A41F288329342C2
:1018AC0001D9032353E02D4B5B6803F00C027B68DA
:1018BC005B689B009A42EBD1274B1B6803F0070334
:1018CC003A689A4210D2244B1B6823F00702224933
:1018DC003B6813430B60204B1B6803F007033A680B
:1018EC009A4201D0012332E07B681B6803F00403A9
:1018FC00002B08D0194B5B6823F4E0627B68DB6833
:10190C00164913434B607B681B6803F00803002BDC
:10191C0009D0124B5B6823F460527B681B69DB00B7
:10192C000E4913434B6000F021F802460B4B5B68E9
:10193C001B0903F00F030A49CB5C22FA03F3094A93
:10194C001360094B1B681846FEF78EFE00231846E1
:10195C001037BD4680BD00BF002002400010024081
:10196C00985B00089C0C00200000002090B48AB00A
:10197C0000AF294B3C1D0FCB84E80F0040F2012334
:10198C003B800023FB610023BB6100237B620023AF
:10199C007B6100233B62214B5B68FB61FB6903F0BD
:1019AC000C03042B02D0082B03D02BE01C4B3B6206
:1019BC002BE0FB699B0C03F00F0328333B4413F81B
:1019CC00243C7B61FB6903F48033002B12D0134B56
:1019DC005B685B0C03F0010328333B4413F8283C91
:1019EC00BB617B690E4A03FB02F2BB69B2FBF3F3EA
:1019FC007B6204E07B690B4A02FB03F37B627B6A2C
:101A0C003B6202E0064B3B6200BF3B6A184628373C
:101A1C00BD4690BC704700BF885B000800100240B8
:101A2C0000127A0000093D0080B400AF024B1B6825
:101A3C001846BD4680BC70479C0C002080B500AF9A
:101A4C00FFF7F2FF0246054B5B681B0A03F0070326
:101A5C000349CB5C22FA03F3184680BD0010024008
:101A6C00A85B000880B500AFFFF7DEFF0246054B10
:101A7C005B68DB0A03F007030349CB5C22FA03F330
:101A8C00184680BD00100240A85B000880B485B0E9
:101A9C0000AF78600A4B1B680A4AA2FB03235B0A5F
:101AAC007A6802FB03F3FB6000BFFB685A1EFA6006
:101ABC00002BF9D100BF00BF1437BD4680BC704766
:101ACC009C0C0020D34D621080B582B000AF7860C2
:101ADC007B68002B01D1012341E07B6893F83D30FA
:101AEC00DBB2002B06D17B68002283F83C2078689F
:101AFC0003F026FE7B68022283F83D207B681A687F
:101B0C007B6804331946104600F0B0FC7B68012258
:101B1C0083F846207B68012283F83E207B680122F3
:101B2C0083F83F207B68012283F840207B680122E8
:101B3C0083F841207B68012283F842207B680122D4
:101B4C0083F843207B68012283F844207B680122C0
:101B5C0083F845207B68012283F83D20002318463A
:101B6C000837BD4680BD000080B485B000AF7860FA
:101B7C007B6893F83D30DBB2012B01D001233AE0B6
:101B8C007B68022283F83D207B681B68DA687B68DF
:101B9C001B6842F00102DA607B681B68184A9342AA
:101BAC000ED07B681B68B3F1804F09D07B681B6833
:101BBC00144A934204D07B681B68134A934211D198
:101BCC007B681B689B6803F00703FB60FB68062BB4
:101BDC0010D07B681B681A687B681B6842F0010296
:101BEC001A6007E07B681B681A687B681B6842F008
:101BFC0001021A60002318461437BD4680BC70479A
:101C0C00002C0140000400400008004080B483B068
:101C1C0000AF78607B681B68DA687B681B6822F011
:101C2C000102DA607B681B681A6A41F211131340D7
:101C3C00002B0FD17B681B681A6A40F24443134097
:101C4C00002B07D17B681B681A687B681B6822F025
:101C5C0001021A607B68012283F83D20002318469C
:101C6C000C37BD4680BC704780B582B000AF786041
:101C7C007B68002B01D1012341E07B6893F83D3058
:101C8C00DBB2002B06D17B68002283F83C207868FD
:101C9C0000F039F87B68022283F83D207B681A68D3
:101CAC007B6804331946104600F0E0FB7B68012288
:101CBC0083F846207B68012283F83E207B68012252
:101CCC0083F83F207B68012283F840207B68012247
:101CDC0083F841207B68012283F842207B68012233
:101CEC0083F843207B68012283F844207B6801221F
:101CFC0083F845207B68012283F83D200023184699
:101D0C000837BD4680BD80B483B000AF786000BF9B
:101D1C000C37BD4680BC704780B584B000AF78608E
:101D2C0039603B68002B09D17B6893F83E30DBB2FD
:101D3C00012B14BF01230023DBB222E03B68042BF0
:101D4C0009D17B6893F83F30DBB2012B14BF012320
:101D5C000023DBB215E03B68082B09D17B6893F8B4
:101D6C004030DBB2012B14BF01230023DBB208E0AF
:101D7C007B6893F84130DBB2012B14BF01230023A5
:101D8C00DBB2002B01D001235EE03B68002B04D1B9
:101D9C007B68022283F83E2013E03B68042B04D1BD
:101DAC007B68022283F83F200BE03B68082B04D1B0
:101DBC007B68022283F8402003E07B68022283F8D0
:101DCC0041207B681B6801223968184600F0CEFD63
:101DDC007B681B681E4A934207D17B681B685A6C50
:101DEC007B681B6842F400425A647B681B68184A83
:101DFC0093420ED07B681B68B3F1804F09D07B688F
:101E0C001B68144A934204D07B681B68124A9342A5
:101E1C0011D17B681B689B6803F00703FB60FB68B0
:101E2C00062B10D07B681B681A687B681B6842F015
:101E3C0001021A6007E07B681B681A687B681B68E4
:101E4C0042F001021A60002318461037BD4680BDCF
:101E5C00002C0140000400400008004080B582B016
:101E6C0000AF786039607B68002B01D1012341E021
:101E7C007B6893F83D30DBB2002B06D17B680022E7
:101E8C0083F83C20786800F039F87B68022283F8EC
:101E9C003D207B681A687B6804331946104600F0B5
:101EAC00E5FA7B681B681A687B681B6822F00802DD
:101EBC001A607B681B6819687B681B683A680A4360
:101ECC001A607B68012283F846207B68012283F824
:101EDC003E207B68012283F83F207B68012283F837
:101EEC0042207B68012283F843207B68012283F81F
:101EFC003D20002318460837BD4680BD80B483B012
:101F0C0000AF786000BF0C37BD4680BC704780B511
:101F1C0082B000AF78607B681B681B6903F002031A
:101F2C00022B22D17B681B68DB6803F00203022BB7
:101F3C001BD17B681B686FF002021A617B6801225F
:101F4C001A777B681B689B6903F00303002B03D093
:101F5C00786800F070FA05E0786800F063FA786849
:101F6C0000F072FA7B6800221A777B681B681B6989
:101F7C0003F00403042B22D17B681B68DB6803F09D
:101F8C000403042B1BD17B681B686FF004021A61DD
:101F9C007B6802221A777B681B689B6903F4407389
:101FAC00002B03D0786800F046FA05E0786800F062
:101FBC0039FA786800F048FA7B6800221A777B6857
:101FCC001B681B6903F00803082B22D17B681B6874
:101FDC00DB6803F00803082B1BD17B681B686FF0D0
:101FEC0008021A617B6804221A777B681B68DB691C
:101FFC0003F00303002B03D0786800F01CFA05E013
:10200C00786800F00FFA786800F01EFA7B680022FE
:10201C001A777B681B681B6903F01003102B22D105
:10202C007B681B68DB6803F01003102B1BD17B68EB
:10203C001B686FF010021A617B6808221A777B68A4
:10204C001B68DB6903F44073002B03D0786800F045
:10205C00F2F905E0786800F0E5F9786800F0F4F939
:10206C007B6800221A777B681B681B6903F00103ED
:10207C00012B0ED17B681B68DB6803F00103012B7D
:10208C0007D17B681B686FF001021A61786801F058
:10209C000DFB7B681B681B6903F08003802B0ED142
:1020AC007B681B68DB6803F08003802B07D17B689F
:1020BC001B686FF080021A61786800F0E2FC7B68A4
:1020CC001B681B6903F04003402B0ED17B681B6817
:1020DC00DB6803F04003402B07D17B681B686FF073
:1020EC0040021A61786800F0B8F97B681B681B69BC
:1020FC0003F02003202B0ED17B681B68DB6803F0F8
:10210C002003202B07D17B681B686FF020021A611B
:10211C00786800F0ADFC00BF0837BD4680BD0000FC
:10212C0080B584B000AFF860B9607A60FB6893F852
:10213C003C30012B01D10223ACE0FB68012283F877
:10214C003C207B680C2B00F29F8001A252F823F0FC
:10215C00912100089522000895220008952200087C
:10216C00D12100089522000895220008952200082C
:10217C0013220008952200089522000895220008D9
:10218C0053220008FB681B68B968184600F0D0F9A8
:10219C00FB681B689A69FB681B6842F008029A612D
:1021AC00FB681B689A69FB681B6822F004029A6141
:1021BC00FB681B689969BB681A69FB681B680A4352
:1021CC009A6162E0FB681B68B968184600F016FA61
:1021DC00FB681B689A69FB681B6842F400629A6191
:1021EC00FB681B689A69FB681B6822F480629A6121
:1021FC00FB681B689969BB681B691A02FB681B6842
:10220C000A439A6141E0FB681B68B968184600F004
:10221C005FFAFB681B68DA69FB681B6842F008020E
:10222C00DA61FB681B68DA69FB681B6822F0040240
:10223C00DA61FB681B68D969BB681A69FB681B68A3
:10224C000A43DA6121E0FB681B68B968184600F0A4
:10225C00A9FAFB681B68DA69FB681B6842F4006228
:10226C00DA61FB681B68DA69FB681B6822F4806220
:10227C00DA61FB681B68D969BB681B691A02FB68C9
:10228C001B680A43DA6100E000BFFB68002283F898
:10229C003C20002318461037BD4680BD80B584B065
:1022AC0000AF786039607B6893F83C30012B01D12A
:1022BC000223B3E07B68012283F83C207B68022276
:1022CC0083F83D207B681B689B68FB60FB6823F0F0
:1022DC007703FB60FB6823F47F43FB607B681B6820
:1022EC00FA689A603B681B68B3F5005F3ED0B3F5A3
:1022FC00005F00F28780B3F5805F00F08580B3F556
:10230C00805F7FD8702B1AD0702B7BD8602B50D06D
:10231C00602B77D8502B3CD0502B73D8402B58D0F7
:10232C00402B6FD8302B64D0302B6BD8202B60D047
:10233C00202B67D8002B5CD0102B5AD062E07B6826
:10234C0018683B6899683B685A683B68DB6800F022
:10235C00EEFA7B681B689B68FB60FB6843F07703B5
:10236C00FB607B681B68FA689A604EE07B681868B3
:10237C003B6899683B685A683B68DB6800F0D7FAA1
:10238C007B681B689A687B681B6842F480429A6081
:10239C003BE07B6818683B6859683B68DB681A4609
:1023AC0000F04EFA7B681B685021184600F0A5FA25
:1023BC002BE07B6818683B6859683B68DB681A46F9
:1023CC0000F06CFA7B681B686021184600F095FAE7
:1023DC001BE07B6818683B6859683B68DB681A46E9
:1023EC0000F02EFA7B681B684021184600F085FA35
:1023FC000BE07B681A683B681B681946104600F0B6
:10240C007CFA02E000BF00E000BF7B68012283F889
:10241C003D207B68002283F83C20002318461037AF
:10242C00BD4680BD80B483B000AF786000BF0C3770
:10243C00BD4680BC704780B483B000AF786000BFED
:10244C000C37BD4680BC704780B483B000AF786059
:10245C0000BF0C37BD4680BC704780B483B000AF62
:10246C00786000BF0C37BD4680BC704780B485B027
:10247C0000AF786039607B681B68FB607B68294A19
:10248C0093420BD07B68B3F1804F07D07B68264A10
:10249C00934203D07B68254A934208D1FB6823F012
:1024AC007003FB603B685B68FA681343FB607B68F6
:1024BC001C4A93420BD07B68B3F1804F07D07B68EA
:1024CC00194A934203D07B68184A934208D1FB689F
:1024DC0023F44073FB603B68DB68FA681343FB60D2
:1024EC00FB6823F080023B685B691343FB607B68ED
:1024FC00FA681A603B689A687B68DA623B681A680B
:10250C007B689A627B68074A934203D13B681A69DD
:10251C007B681A637B6801225A6100BF1437BD4681
:10252C0080BC7047002C01400004004000080040B3
:10253C0080B487B000AF786039607B681B6A23F089
:10254C0001027B681A627B681B6A7B617B685B6833
:10255C003B617B689B69FB60FB6823F07003FB604D
:10256C00FB6823F00303FB603B681B68FA681343AA
:10257C00FB607B6923F002037B613B689B687A6993
:10258C0013437B617B681C4A93420CD17B6923F01B
:10259C0008037B613B68DB687A6913437B617B6969
:1025AC0023F004037B617B68134A934211D13B698E
:1025BC0023F480733B613B6923F400733B613B68FC
:1025CC005B693A6913433B613B689B693A69134306
:1025DC003B617B683A695A607B68FA689A613B6830
:1025EC005A687B685A637B687A691A6200BF1C3729
:1025FC00BD4680BC704700BF002C014080B487B042
:10260C0000AF786039607B681B6A23F010027B682E
:10261C001A627B681B6A7B617B685B683B617B68C9
:10262C009B69FB60FB6823F4E043FB60FB6823F4CD
:10263C004073FB603B681B681B02FA681343FB602A
:10264C007B6923F020037B613B689B681B017A69E3
:10265C0013437B617B681D4A93420DD17B6923F048
:10266C0080037B613B68DB681B017A6913437B61E8
:10267C007B6923F040037B617B68144A934213D13E
:10268C003B6923F480633B613B6923F400633B614A
:10269C003B685B699B003A6913433B613B689B69F0
:1026AC009B003A6913433B617B683A695A607B68CB
:1026BC00FA689A613B685A687B689A637B687A69A6
:1026CC001A6200BF1C37BD4680BC7047002C01400D
:1026DC0080B487B000AF786039607B681B6A23F4E4
:1026EC0080727B681A627B681B6A7B617B685B68A3
:1026FC003B617B68DB69FB60FB6823F07003FB606C
:10270C00FB6823F00303FB603B681B68FA68134308
:10271C00FB607B6923F400737B613B689B681B0245
:10272C007A6913437B617B681D4A93420DD17B69A7
:10273C0023F400637B613B68DB681B027A691343FB
:10274C007B617B6923F480637B617B68144A9342D1
:10275C0013D13B6923F480533B613B6923F4005351
:10276C003B613B685B691B013A6913433B613B6806
:10277C009B691B013A6913433B617B683A695A6058
:10278C007B68FA68DA613B685A687B68DA637B6855
:10279C007A691A6200BF1C37BD4680BC704700BF07
:1027AC00002C014080B487B000AF786039607B6842
:1027BC001B6A23F480527B681A627B681B6A3B613C
:1027CC007B685B687B617B68DB69FB60FB6823F47F
:1027DC00E043FB60FB6823F44073FB603B681B68C1
:1027EC001B02FA681343FB603B6923F400533B6103
:1027FC003B689B681B033A6913433B617B680F4A38
:10280C00934209D17B6923F480437B613B685B690C
:10281C009B017A6913437B617B687A695A607B6898
:10282C00FA68DA613B685A687B681A647B683A69B3
:10283C001A6200BF1C37BD4680BC7047002C01409B
:10284C0080B487B000AFF860B9607A60FB681B6A2F
:10285C007B61FB681B6A23F00102FB681A62FB6850
:10286C009B693B613B6923F0F0033B617B681B0177
:10287C003A6913433B617B6923F00A037B617A69F4
:10288C00BB6813437B61FB683A699A61FB687A69A0
:10289C001A6200BF1C37BD4680BC704780B487B03D
:1028AC0000AFF860B9607A60FB681B6A23F0100215
:1028BC00FB681A62FB689B697B61FB681B6A3B6166
:1028CC007B6923F470437B617B681B037A69134338
:1028DC007B613B6923F0A0033B61BB681B013A6938
:1028EC0013433B61FB687A699A61FB683A691A6227
:1028FC0000BF1C37BD4680BC704780B485B000AFAC
:10290C00786039607B689B68FB60FB6823F0700320
:10291C00FB603A68FB68134343F00703FB607B687A
:10292C00FA689A6000BF1437BD4680BC704780B40B
:10293C0087B000AFF860B9607A603B60FB689B6859
:10294C007B617B6923F47F437B613B681A027B6864
:10295C001A43BB6813437A6913437B61FB687A693A
:10296C009A6000BF1C37BD4680BC704780B487B0EE
:10297C0000AFF860B9607A60BB6803F01F030122F6
:10298C0002FA03F37B61FB681A6A7B69DB431A402A
:10299C00FB681A62FB681A6ABB6803F01F0379684C
:1029AC0001FA03F31A43FB681A6200BF1C37BD46D9
:1029BC0080BC704780B485B000AF786039607B68AC
:1029CC0093F83C30012B01D1022346E07B680122B5
:1029DC0083F83C207B68022283F83D207B681B68CF
:1029EC005B68FB607B681B689B68BB60FB6823F0C3
:1029FC007003FB603B681B68FA681343FB607B68E1
:102A0C001B68FA685A607B681B68164A93420ED0A2
:102A1C007B681B68B3F1804F09D07B681B68124A36
:102A2C00934204D07B681B68104A93420CD1BB685C
:102A3C0023F08003BB603B685B68BA681343BB60E0
:102A4C007B681B68BA689A607B68012283F83D201A
:102A5C007B68002283F83C20002318461437BD46BF
:102A6C0080BC7047002C014000040040000800406E
:102A7C0080B483B000AF786000BF0C37BD4680BC1B
:102A8C00704780B483B000AF786000BF0C37BD4690
:102A9C0080BC704780B582B000AF78607B68002B3B
:102AAC0001D101233FE07B6893F83D30DBB2002B72
:102ABC0006D17B68002283F83C20786802F028FF5E
:102ACC007B68242283F83D207B681B68DA687B686E
:102ADC001B6822F40052DA60786800F027FD7B68EE
:102AEC001B681A697B681B6822F490421A617B6828
:102AFC001B685A697B681B6822F02A025A617B6842
:102B0C001B68DA687B681B6842F40052DA607B68E9
:102B1C0000221A647B68202283F83D207B682022E7
:102B2C0083F83E20002318460837BD4680BD80B58B
:102B3C008AB002AFF860B9603B601346FB8000239B
:102B4C007B61FB6893F83D30DBB2202B7CD1BB68FA
:102B5C00002B02D0FB88002B01D1012375E0FB6810
:102B6C0093F83C30012B01D102236EE0FB6801226B
:102B7C0083F83C20FB6800221A64FB68212283F84E
:102B8C003D20FDF7B3FD7861FB68FA889A84FB68F9
:102B9C00FA88DA84FB689B68B3F5805F08D1FB6820
:102BAC001B69002B04D10023FB61BB68BB6103E0F4
:102BBC00BB68FB610023BB61FB68002283F83C20EF
:102BCC002AE03B6800937B6900228021F86800F0C2
:102BDC00DAFA0346002B01D0032336E0FB69002B05
:102BEC000BD1BB691B881A46FB681B68C2F3080231
:102BFC005A60BB690233BB6107E0FB691A78FB685A
:102C0C001B685A60FB690133FB61FB68DB8C9BB270
:102C1C00013B9AB2FB68DA84FB68DB8C9BB2002B1D
:102C2C00CFD13B6800937B6900224021F86800F00B
:102C3C00AAFA0346002B01D0032306E0FB682022EE
:102C4C0083F83D20002300E0022318462037BD46C0
:102C5C0080BD80B58AB002AFF860B9603B601346A6
:102C6C00FB8000237B61FB6893F83E30DBB2202BAA
:102C7C0040F08C80BB68002B02D0FB88002B01D16C
:102C8C00012384E0FB6893F83C30012B01D1022333
:102C9C007DE0FB68012283F83C20FB6800221A646B
:102CAC00FB68222283F83E20FB6800221A63FDF7A2
:102CBC001DFD7861FB68FA889A85FB68FA88DA85CD
:102CCC00FB689B68B3F5805F08D1FB681B69002B20
:102CDC0004D10023FB61BB68BB6103E0BB68FB61F3
:102CEC000023BB61FB68002283F83C2043E03B6877
:102CFC0000937B6900222021F86800F044FA034617
:102D0C00002B01D0032342E0FB69002B0CD1FB68A4
:102D1C001B685B689BB2C3F308039AB2BB691A8049
:102D2C00BB690233BB611FE0FB689B68B3F5805F36
:102D3C0007D0FB689B68002B0AD1FB681B69002B32
:102D4C0006D1FB681B685B68DAB2FB691A7008E095
:102D5C00FB681B685B68DBB203F07F03DAB2FB69CC
:102D6C001A70FB690133FB61FB68DB8D9BB2013B85
:102D7C009AB2FB68DA85FB68DB8D9BB2002BB6D16F
:102D8C00FB68202283F83E20002300E00223184633
:102D9C002037BD4680BD80B584B000AFF860B96007
:102DAC001346FB80FB6893F83E30DBB2202B1DD121
:102DBC00BB68002B02D0FB88002B01D1012316E04D
:102DCC00FB6893F83C30012B01D102230FE0FB6828
:102DDC00012283F83C20FB6800221A63FB881A4608
:102DEC00B968F86800F019FA034600E002231846A7
:102DFC001037BD4680BD000080B58AB000AF78604A
:102E0C007B681B681B687B627B681B68DB683B62AA
:102E1C007B681B685B69FB610023BB6100237B61E2
:102E2C007B6A03F00F03BB61BB69002B0DD17B6A7E
:102E3C0003F02003002B08D03B6A03F02003002B87
:102E4C0003D0786800F0C9FA7BE1BB69002B00F075
:102E5C00B180FB6903F00103002B05D13B6A03F43D
:102E6C009073002B00F0A6807B6A03F00103002B0B
:102E7C000AD03B6A03F48073002B05D07B681B6C73
:102E8C0043F001027B681A647B6A03F00403002B95
:102E9C000AD0FB6903F00103002B05D07B681B6C87
:102EAC0043F002027B681A647B6A03F00203002B76
:102EBC000AD0FB6903F00103002B05D07B681B6C67
:102ECC0043F004027B681A647B6A03F00803002B4E
:102EDC000FD03B6A03F02003002B04D1FB6903F0F5
:102EEC000103002B05D07B681B6C43F008027B6848
:102EFC001A647B681B6C002B00F01E817B6A03F04C
:102F0C002003002B07D03B6A03F02003002B02D0D8
:102F1C00786800F062FA7B681B685B6903F0400319
:102F2C00002B14BF01230023DBB27B617B681B6C7D
:102F3C0003F00803002B02D17B69002B31D0786899
:102F4C0000F0A4F97B681B685B6903F04003002B5D
:102F5C0023D07B681B685A697B681B6822F040028F
:102F6C005A617B689B6B002B13D07B689B6B764AFA
:102F7C005A637B689B6B1846FDF74AFD0346002B92
:102F8C0016D07B689B6B5B6B7A68926B104698478C
:102F9C000EE0786800F0E3F80AE0786800F0DFF8FB
:102FAC0006E0786800F0DBF87B6800221A64C3E066
:102FBC0000BFC1E07B681B6B012B40F0A1807B6ADA
:102FCC0003F01003002B00F09B803B6A03F010030E
:102FDC00002B00F095800023FB607B681B681B684E
:102FEC00FB607B681B685B68FB60FB687B681B682D
:102FFC005B6903F04003002B4ED07B689B6B1B6816
:10300C005B683B823B8A002B00F098807B689B8D31
:10301C003A8A9A4280F092807B683A8ADA857B6899
:10302C009B6B9B69202B2BD07B681B68DA687B68B9
:10303C001B6822F48072DA607B681B685A697B68B3
:10304C001B6822F001025A617B681B685A697B6815
:10305C001B6822F040025A617B68202283F83E20D4
:10306C007B6800221A637B681B68DA687B681B68C4
:10307C0022F01002DA607B689B6B1846FDF78DFC22
:10308C007B689A8D7B68DB8D9BB2D31A9BB21946F9
:10309C00786800F06DF851E07B689A8D7B68DB8D69
:1030AC009BB2D31A7B827B68DB8D9BB2002B47D003
:1030BC007B8A002B44D07B681B68DA687B681B68B2
:1030CC0022F49072DA607B681B685A697B681B6813
:1030DC0022F001025A617B68202283F83E207B6833
:1030EC0000221A637B681B68DA687B681B6822F015
:1030FC001002DA607B8A1946786800F039F81FE014
:10310C007B6A03F08003002B08D03B6A03F080033A
:10311C00002B03D0786800F0F9F812E07B6A03F01A
:10312C004003002B0DD03B6A03F04003002B08D06A
:10313C00786800F03AF904E000BF02E000BF00E05C
:10314C0000BF2837BD4680BDF132000880B483B083
:10315C0000AF786000BF0C37BD4680BC704780B4B0
:10316C0083B000AF786000BF0C37BD4680BC7047A1
:10317C0080B483B000AF78600B467B8000BF0C3707
:10318C00BD4680BC704780B584B000AFF860B960B4
:10319C003B601346FB712CE0BB69B3F1FF3F28D0B9
:1031AC00BB69002B07D0FDF7A1FA02463B68D31A86
:1031BC00BA699A421DD2FB681B68DA68FB681B6807
:1031CC0022F4D072DA60FB681B685A69FB681B68D2
:1031DC0022F001025A61FB68202283F83D20FB6833
:1031EC00202283F83E20FB68002283F83C20032336
:1031FC000FE0FB681B681A68BB681340BA689A42F8
:10320C000CBF01230023DBB21A46FB799A42C3D0D0
:10321C00002318461037BD4680BD80B485B000AF82
:10322C00F860B9601346FB80FB68BA689A62FB6869
:10323C00FA889A85FB68FA88DA85FB6800221A649A
:10324C00FB68222283F83E20FB68002283F83C2096
:10325C00FB681B68DA68FB681B6842F48072DA60F2
:10326C00FB681B685A69FB681B6842F001025A61D3
:10327C00FB681B68DA68FB681B6842F02002DA60A6
:10328C00002318461437BD4680BC704780B483B009
:10329C0000AF78607B681B68DA687B681B6822F477
:1032AC009072DA607B681B685A697B681B6822F035
:1032BC0001025A617B681B6B012B07D17B681B6871
:1032CC00DA687B681B6822F01002DA607B682022C7
:1032DC0083F83E207B6800221A6300BF0C37BD4682
:1032EC0080BC704780B584B000AF78607B685B6A47
:1032FC00FB60FB680022DA85FB680022DA84F86840
:10330C00FFF72DFF00BF1037BD4680BD80B485B0E0
:10331C0000AF78607B6893F83D30DBB2212B3ED157
:10332C007B689B68B3F5805F14D17B681B69002BAD
:10333C0010D17B681B6AFB60FB681B881A467B6894
:10334C001B68C2F308025A607B681B6A9A1C7B6874
:10335C001A6208E07B681B6A591C7A6811621A7839
:10336C007B681B685A607B68DB8C9BB2013B9BB211
:10337C007A681946D184002B0FD17B681B68DA68F8
:10338C007B681B6822F08002DA607B681B68DA6855
:10339C007B681B6842F04002DA60002300E00223E5
:1033AC0018461437BD4680BC704780B582B000AF5C
:1033BC0078607B681B68DA687B681B6822F04002C7
:1033CC00DA607B68202283F83D207868FFF7BEFE28
:1033DC00002318460837BD4680BD80B586B000AFC7
:1033EC0078607B6893F83E30DBB2222B40F09980FA
:1033FC007B689B68B3F5805F17D17B681B69002BDA
:10340C0013D100237B617B689B6A3B617B681B68E3
:10341C005B689BB2C3F308039AB23B691A807B6862
:10342C009B6A9A1C7B689A6226E07B689B6A7B612C
:10343C0000233B617B689B68B3F5805F07D07B689A
:10344C009B68002B0AD17B681B69002B06D17B681B
:10345C001B685B68DAB27B691A7008E07B681B68D2
:10346C005B68DBB203F07F03DAB27B691A707B68AE
:10347C009B6A5A1C7B689A627B68DB8D9BB2013B12
:10348C009BB27A681946D185002B48D17B681B68A2
:10349C00DA687B681B6822F02002DA607B681B68A4
:1034AC00DA687B681B6822F48072DA607B681B68C0
:1034BC005A697B681B6822F001025A617B682022E2
:1034CC0083F83E207B681B6B012B23D17B68002289
:1034DC001A637B681B68DA687B681B6822F0100231
:1034EC00DA607B681B681B6803F01003102B0AD191
:1034FC000023FB607B681B681B68FB607B681B6898
:10350C005B68FB60FB687B689B8D19467868FFF7EE
:10351C002FFE02E0786800F0DBF8002302E00023C5
:10352C0000E0022318461837BD4680BD80B584B034
:10353C0000AF78607B681B681B6923F440517B6883
:10354C00DA687B681B680A431A617B689A687B6837
:10355C001B691A437B685B691343BB607B681B6800
:10356C00DB6823F4B05323F00C037A681268B96853
:10357C000B43D3607B681B685B6923F440717B68E9
:10358C009A697B681B680A435A617B681B682C4AE2
:10359C00934203D1FEF766FAF86002E0FEF74EFAAA
:1035AC00F860FA6813469B0013449A001A447B682F
:1035BC005B689B00B2FBF3F3224AA2FB03235B097B
:1035CC001901FA6813469B0013449A001A447B684D
:1035DC005B689B00B2FBF3F21A4BA3FB02035B0983
:1035EC00642000FB03F3D31A1B013233154AA2FBF0
:1035FC0003235B0903F0F0031944FA6813469B009C
:10360C0013449A001A447B685B689B00B2FBF3F28C
:10361C000C4BA3FB02035B09642000FB03F3D31ADE
:10362C001B013233074AA2FB03235B0903F00F0291
:10363C007B681B680A449A6000BF1037BD4680BD8A
:10364C00003801401F85EB5180B582B000AF0023DC
:10365C00FB710BE008210948FDF7D4FD0346012B53
:10366C0001D1002306E0FB790133FB71FB790A2BB6
:10367C00F0D1012318460837BD4680BD0008014033
:10368C0080B400AF064B00221A70064B01221A7050
:10369C00054B01221A7000BFBD4680BC704700BFAD
:1036AC00E00C002005000020E20C002080B582B068
:1036BC0000AF78607B681B68044A934201D1FFF726
:1036CC00DFFF00BF0837BD4680BD00BF002C0140A6
:1036DC0080B582B000AF786000F0D6FA00BF083732
:1036EC00BD4680BD80B582B000AF0346FB80FB8831
:1036FC00082B09D108210B48FDF784FD0346002B4C
:10370C0002D1094B01221A70FB88B3F5807F04D1DA
:10371C004FF480710348FDF775FD00BF0837BD46B7
:10372C0080BD00BF00080140EA0C002080B500AF4E
:10373C00094B1B780C2B06D0074B1B780121184624
:10374C0000F0E2FD05E0044B1B780021184600F068
:10375C00DBFD00BF80BD00BFE00C002080B500AFDA
:10376C00154B1B78012B0AD11449154801F038FB75
:10377C00114B00221A70FFF783FF00F013FA114B64
:10378C001B78012B15D1FFF75FFF0346012B0DD1E1
:10379C0000F0AAFD01F0D8FB0B490C4801F036FCF7
:1037AC0000F096FDFFF76CFF00F0FCF9054B0022D2
:1037BC001A7000BF80BD00BFE10C0020420C00203D
:1037CC00460C0020EA0C0020060000200C0F002004
:1037DC0080B582B002AF574B1B78002B00F0A7804E
:1037EC00544B1B78062B00F2A280534B1B78012BF9
:1037FC0050D1514B00221A70504B1B78012B15D114
:10380C004C4B1B785A1E13465B001A444B4B1B78CF
:10381C00013B13445B019B00494A99180123009317
:10382C0003231E22474800F0B3FF80E0434B1B7874
:10383C00022B15D13F4B1B785A1E13465B001A44C2
:10384C003E4B1B78013B13445B019B003C4A99188F
:10385C000123009303231E223A4800F099FF66E0EF
:10386C00364B1B78032B62D1324B1B785A1E1346F6
:10387C005B001A44314B1B78013B13445B019B00EA
:10388C002F4A991801230093032320222D4800F07E
:10389C007FFF4CE0294B1B78012B15D1254B1B7856
:1038AC005A1E13465B001A44244B1B78013B1344ED
:1038BC005B019B00224A98180023009303231E22CD
:1038CC00042100F0D3FF32E01C4B1B78022B15D1E6
:1038DC00184B1B785A1E13465B001A44174B1B7867
:1038EC00013B13445B019B00154A9818002300937D
:1038FC0003231E22042100F0B9FF18E00F4B1B78A4
:10390C00032B14D10B4B1B785A1E13465B001A4425
:10391C000A4B1B78013B13445B019B00084A981827
:10392C000023009303232022042100F09FFF00BFFB
:10393C00BD4680BDE00C002005000020E30C0020FB
:10394C00480000200800002080B582B002AF124B66
:10395C001B78072B1DD1114B1B78012B11D10F4B51
:10396C0000221A7000230093032328220C490D48CF
:10397C0000F00EFF084B1B78072B02D10A4B0522D7
:10398C001A700A4B1B780A4A11780022184600F06C
:10399C00F7FF00BFBD4680BDE00C002005000020F5
:1039AC00680B002008000020E20C0020E40C002032
:1039BC00E50C002080B500AF064B1B78082B07D117
:1039CC00054B1B88054A12881146184601F04AF827
:1039DC0000BF80BDE00C0020E60C0020E80C0020AD
:1039EC0080B582B002AF194B1B78092B2BD1184B29
:1039FC001B78012B1FD1164B00221A700023019348
:103A0C0002230093282309221249134800F076FF61
:103A1C004620FCF775FE00230093022328220F4951
:103A2C000F4800F0B5FE094B1B78092B0BD10D4B41
:103A3C0002221A7007E00023009302232822082197
:103A4C00064800F013FF00BFBD4680BDE00C00200F
:103A5C0005000020C809002008000020680A00208A
:103A6C00480A0020E20C002080B582B002AF0D4B5A
:103A7C001B780C2B13D10C4B1B78012B0FD10A4B41
:103A8C0000221A7008220949094800F0F6FB0123AC
:103A9C00009304233C220649064800F079FE00BF3F
:103AAC00BD4680BDE00C002005000020900B0020DE
:103ABC00280000200800002080B582B002AF1D4B0A
:103ACC001B78002B33D11C4B1B78002B2FD01A4B9F
:103ADC001B78012B08D10123009304233C221749A6
:103AEC00174800F055FE1FE0134B1B78022B1BD020
:103AFC00114B1B78032B17D00F4B1B78042B13D0B7
:103B0C000D4B1B78052B0FD10E4B1B780E4A1178E1
:103B1C000122184600F034FF0123009303232822CE
:103B2C0006490A4800F034FE034B00221A7000BF0D
:103B3C00BD4680BDE00C0020E20C002008000020F7
:103B4C00900B0020E40C0020E50C0020680B0020FA
:103B5C0080B500AF0749084801F058FA00F0BAFDEB
:103B6C00064800F061FC00F0A9FB00F01BF800BF58
:103B7C0080BD00BF060000200C0F002008000020B4
:103B8C0080B500AFFFF7EAFDFFF722FEFFF7DCFE82
:103B9C00FFF710FFFFF724FFFFF766FFFFF78CFF1F
:103BAC0000BF80BD80B500AF012203490348FFF779
:103BBC00F2F800BF80BD00BFEC0C002050100020BC
:103BCC0080B500AF0348FEF721F8034B00225A6280
:103BDC0000BF80BD300F0020002C014080B500AF2D
:103BEC000248FDF7C1FF00BF80BD00BF300F0020B1
:103BFC0080B500AFFFF7E4FFFFF7F0FF00BF80BD1B
:103C0C0080B500AF4FF480710548FDF7FBFA034611
:103C1C00012B01D1012300E00023184680BD00BF19
:103C2C000008014080B582B000AF0346FB80FA88E3
:103C3C0013465B0013445B0003F59673FA88044942
:103C4C000448FFF706F800BF0837BD4680BD00BF2B
:103C5C00EC0C00205010002080B582B000AF7860D2
:103C6C000B467B807A881346DB00134403F596736E
:103C7C007A8879680348FEF75AFF00BF0837BD46BB
:103C8C0080BD00BF5010002080B582B000AFFFF7A0
:103C9C00B7FF0346012B40F088819A4B1B78232BEE
:103CAC0040F083810120FFF7BDFF964B1B78302B32
:103CBC0020D9944B1B78362B1CD8924B1B78303B5D
:103CCC00DAB2914B1A700220FFF7ACFF8D4B5B7888
:103CDC00303BDAB28D4B1A708C4B1B78032B03D80C
:103CEC008A4B1B78002B02D1884B01221A70FFF7EC
:103CFC007FFF5AE1834B1B784C2B26D10520FFF715
:103D0C0091FF814B07221A707E4B1B781A4692004A
:103D1C0013445B00DAB27B4B5B781344DBB2103B91
:103D2C00DAB27B4B1A70774BDB781A46920013444D
:103D3C005B00DAB2734B1B791344DBB2103BDAB283
:103D4C00744B1A70FFF754FF2FE16E4B1B784B2B03
:103D5C003CD10620FFF766FF6A4B1B78303B9BB2C9
:103D6C001A46920013441A4691001A460B46134405
:103D7C009B009AB2634B5B78303B9BB2194689002F
:103D8C000B445B009BB213449AB25E4B9B789BB284
:103D9C0013449BB2303B9AB25F4B1A80594B1B7940
:103DAC00303B9BB21A46920013445B009AB2554BBF
:103DBC005B799BB213449BB2303B9AB2574B1A803F
:103DCC00514B08221A70FFF713FFEEE04D4B1B7896
:103DDC00442B13D10120FFF725FF4A4B1B78302BC6
:103DEC0009D9484B1B78332B05D8464B1B78283BFD
:103DFC00DAB2454B1A70FFF7FBFED6E0414B1B784D
:103E0C00452B18D10120FFF70DFF3E4B1B78312BB2
:103E1C0006D100F05DFA424B312283F8202005E0F8
:103E2C0000F062FA3E4B302283F8202023213C48DC
:103E3C0000F05CF9B9E0334B1B78532B40F0B580A4
:103E4C000120FFF7EFFEFFF7BBFE2E4B1B784F2B2D
:103E5C0003D02C4B1B78572B4AD10023FB712CE041
:103E6C00FB790133FB71FB79013B2E4AD356002BB6
:103E7C0012DAFB795B002A4A2D21D154FB79013BE4
:103E8C00284AD356DAB2FB795B000133C2F1300217
:103E9C00D1B2234AD15410E0FB795B00204A2B218C
:103EAC00D154FB79013B1F4AD356DAB2FB795B0044
:103EBC0001333032D1B21A4AD154FB79082BCFD10D
:103ECC00104B1B784F2B0AD122211548FFF7C4FE4B
:103EDC00154B00221A700C4B0C221A7064E0094B23
:103EEC001B78572B60D123210D4800F0FFF85BE0C5
:103EFC00044B1B78432B19D10B4B01221A70FFF783
:103F0C006DFE52E0EC0C0020E00C0020E30C0020D5
:103F1C00E50C0020E40C0020E60C0020E80C00204E
:103F2C00300C00200C0F0020E20C0020224B1B78E0
:103F3C00442B1BD10320FFF775FE1F4B5B78303BE6
:103F4C00DBB2BB711C4B9B78313B7B711A4B1B78E2
:103F5C002D2B03D1BB795B42DBB2BB717B7917494B
:103F6C00BA79CA54164800F05FFA1EE0124B1B785F
:103F7C00532B1AD10E20FFF755FE0422114912487B
:103F8C0000F05CF90A2211490B4800F057F9232183
:103F9C000F4800F0ABF80F4B01221A700E4B0122A8
:103FAC001A70FFF71BFE00E000BFFFF7FBFD00BF20
:103FBC000837BD4680BD00BFEC0C00200C0F002064
:103FCC0028000020420C0020F60C0020460C00209B
:103FDC00300C0020E10C0020E20C002080B487B0F3
:103FEC0000AF78600B467B807B889B08BB82BB8ACA
:103FFC009B009BB27A88D31A7B820023FB60002340
:10400C00FB8227E0FB8A03F1006303F540431B6846
:10401C00FB60FB68190EFB8A7A681344CAB21A70EB
:10402C00FB68190CFB8A01337A681344CAB21A7004
:10403C00FB68190AFB8A02337A681344CAB21A70F5
:10404C00FB8A03337A681344FA68D2B21A70FB8A7B
:10405C000433FB82FA8ABB8A9B009A42D2D17B8AB8
:10406C00002B3ED0FB8A03F1006303F540431B6831
:10407C00FB607B8A032B17D1FB68190EFB8A7A68CD
:10408C001344CAB21A70FB68190CFB8A01337A68A4
:10409C001344CAB21A70FB68190AFB8A02337A6895
:1040AC001344CAB21A701CE07B8A022B0FD1FB6836
:1040BC00190EFB8A7A681344CAB21A70FB68190C81
:1040CC00FB8A01337A681344CAB21A7009E07B8AFE
:1040DC00012B06D1FB68190EFB8A7A681344CAB20D
:1040EC001A7000BF1C37BD4680BC70472DE9B04329
:1040FC0086B000AF78600B467B804E4B00221A6076
:10410C004C4B4D4A9A604B4B0122DA600023BB604A
:10411C00FCF764FD07F1080319464648FCF746FE18
:10412C007B889B08FB81FB899B009BB27A88D31A06
:10413C00BB810023FB822AE0FB8A03F1006303F5B9
:10414C0040431846FB8A7A6813441B781A06FB8A8C
:10415C00013379680B441B781B041A43FB8A023326
:10416C0079680B441B781B021343FA8A0332796873
:10417C000A441278134300229846914642464B4615
:10418C0001460220FCF7BAFCFB8A0433FB82FA8A54
:10419C00FB899B009A42CFD1BB89002B42D00023D4
:1041AC003B61BB89032B14D1FB8A7A6813441B78BF
:1041BC001A06FB8A013379680B441B781B041A43DB
:1041CC00FB8A023379680B441B781B0213433B6157
:1041DC0019E0BB89022B0DD1FB8A7A6813441B783A
:1041EC001A06FB8A013379680B441B781B041343B2
:1041FC003B6108E0BB89012B05D1FB8A7A6813442B
:10420C001B781B063B61FB8A03F1006303F54043FB
:10421C0019463B6900221C46154622462B460220B5
:10422C00FCF76CFCFCF700FDBB6818461837BD4664
:10423C00BDE8B083EC0E002000C0000880B487B04D
:10424C0000AFF860B9601346FB800023FB820AE0E4
:10425C00FB8AFA681A44FB8AB9680B4412781A7004
:10426C00FB8A0133FB82FA8AFB889A42F0D100BFA9
:10427C0000BF1C37BD4680BC704780B487B000AF10
:10428C00F860B9601346FB800023FB820CE0FB8ACC
:10429C009B00FA681A44FB8A9B00B9680B441268AD
:1042AC001A60FB8A0133FB82FA8AFB889A42EED1B0
:1042BC0000BF00BF1C37BD4680BC704780B500AF47
:1042CC0004210248FDF728FD00BF80BD780F0020B7
:1042DC0080B400AF034B01221A7000BFBD4680BCF6
:1042EC00704700BF0600002080B400AF054B0022D1
:1042FC001A704FF0804300229A6300BFBD4680BC09
:10430C00704700BF0600002080B485B000AF0346A4
:10431C000A46FB711346BB71FB79002B0DD0BB79A0
:10432C00012B0AD1384B1B68384A934217D8364BAD
:10433C001B680133344A136011E00223FB730BE05A
:10434C00314B1B68002B04D02F4B1B68013B2E4AB2
:10435C001360FB7B013BFB73FB7B002BF0D12A4BE7
:10436C001B6801332A4AA2FB03231B0ADBB2C3F1ED
:10437C001503DAB2274B1A70274B1B78012B3ED151
:10438C00264B1B780133DAB2244B1A70234B1A7864
:10439C00204B1B789A4203D91E4B1A781F4B1A706C
:1043AC001E4B1A781B4B1B789A4228D11B4B0022B0
:1043BC001A701B4B1A784FF080439A63194B1B7879
:1043CC00002B0ED1164B1B783E2B06D8144B1B78AA
:1043DC000133DAB2124B1A7011E0124B01221A702F
:1043EC000DE00F4B1B78022B06D90D4B1B78013BB4
:1043FC00DAB20B4B1A7002E00A4B00221A7000BFA3
:10440C001437BD4680BC7047000F0020DE28010029
:10441C00D34D62100700002006000020040F00207E
:10442C00FC0E0020FD0E002090B583B000AF78602C
:10443C00A14B1B881A46A14B93F900301946A04B8F
:10444C001B8801FB03F313441846FBF733FF0446A8
:10445C007B681B689B4A126811461846FBF77EFF67
:10446C00034619462046FBF771FE0346964C184648
:10447C00FCF7C4F8034663638F4B1B881A468F4BBB
:10448C0093F9013019468E4B1B8801FB03F313443F
:10449C001846FBF70FFF04467B6804331B6819466C
:1044AC008A48FBF751FE03461A46864B1B68194691
:1044BC001046FBF753FF034619462046FBF746FE12
:1044CC000346814C1846FCF799F80346A3637A4BD4
:1044DC001B881A46794B93F902301946784B1B8886
:1044EC0001FB03F313441846FBF7E4FE04467B6818
:1044FC0008331B68734A126811461846FBF72EFFE7
:10450C00034619462046FBF721FE03466E4C18461F
:10451C00FCF774F80346E363674B1B881A46674B3A
:10452C0093F903301946664B1B8801FB03F31344C4
:10453C001846FBF7BFFE04467B680C331B68194614
:10454C006248FBF701FE03461A465E4B1B68194690
:10455C001046FBF703FF034619462046FBF7F6FD12
:10456C000346594C1846FCF749F803462364524B52
:10457C001B881A46514B93F904301946504B1B8833
:10458C0001FB03F313441846FBF794FE04467B68C7
:10459C0010331B684B4A126811461846FBF7DEFEB7
:1045AC00034619462046FBF7D1FD0346484C1846F6
:1045BC00FCF724F8034663633F4B1B881A463F4BBA
:1045CC0093F9053019463E4B1B8801FB03F313444A
:1045DC001846FBF76FFE04467B6814331B681946BC
:1045EC003A48FBF7B1FD03461A46364B1B68194691
:1045FC001046FBF7B3FE034619462046FBF7A6FD13
:10460C000346334C1846FBF7F9FF0346A3632A4BCA
:10461C001B881A46294B93F906301946284B1B88E0
:10462C0001FB03F313441846FBF744FE04467B6876
:10463C0018331B68234A126811461846FBF78EFE86
:10464C00034619462046FBF781FD0346204C1846CD
:10465C00FBF7D4FF0346E363174B1B881A46174B33
:10466C0093F907301946164B1B8801FB03F31344CF
:10467C001846FBF71FFE04467B681C331B68194663
:10468C001248FBF761FD03461A460E4B1B68194690
:10469C001046FBF763FE034619462046FBF756FD12
:1046AC0003460B4C1846FBF7A9FF0346236400BFD7
:1046BC000C37BD4690BD00BF880B00200C0F0020AE
:1046CC008C0B0020080F0020000400400000C842A2
:1046DC000008004080B500AF264B1B881A465203D9
:1046EC00D21AD200D31A9AB2234B1B8813449AB213
:1046FC00214B1A801F4B1B881A46D20013449AB2C6
:10470C001E4B1B8813449AB21C4B1A801A4B1B88E5
:10471C001A461A4B1B88D31A1846FBF7CBFD0346D7
:10472C0017491846FBF7CEFE03461A46154B1A607E
:10473C0000211548FDF7F0FA04211348FDF7ECFAB7
:10474C0008211148FDF7E8FA0C210F48FDF7E4FAAF
:10475C0000210E48FDF7E0FA04210C48FDF7DCFAC5
:10476C0008210A48FDF7D8FA0C210848FDF7D4FABD
:10477C0000BF80BD8C0B00208A0B0020880B002012
:10478C000000C842080F0020C00F002008100020B5
:10479C0090B587B000AFF860B96011461A460B4669
:1047AC00FB8013467B710023FB8200237B754FE05B
:1047BC0000237B75FB8A0133FB8235E07B7D9B00FC
:1047CC00BA68134418687B7D9B00FA6813441B6815
:1047DC001946FBF7B9FC03461C46FB881846FBF749
:1047EC0069FD034619462046FBF76CFE03461C4642
:1047FC00FB8A1846FBF75EFD034619462046FBF77D
:10480C00ADFD034618467B7D9B00FA6813441B687C
:10481C007C7D1946FBF79AFC03461A46114B43F86C
:10482C0024207B7D01337B757B7D082BC6D10D4805
:10483C00FFF7FAFD7B791846FBF762FF0A4B1B78F2
:10484C00002B05D197F82830002B01D1FB88FB8277
:10485C00FA8AFB889A42ABD300BF00BF1C37BD4617
:10486C0090BD00BF900B0020E00C002090B589B0EB
:10487C0002AFF860084611461A4603467B810B4688
:10488C003B811346FB710023FB822CE0FB8A5A1CF4
:10489C007B899A420DD1FB8A5B01FA68D018F979B1
:1048AC003A8997F8283000930B46F968FFF770FFA8
:1048BC0010E0FB8A5B01FA68D018FB8A01335B01BC
:1048CC00FA68D118FC793A8997F828300093234676
:1048DC00FFF75EFFFB8A0133FB82074B1B78002B33
:1048EC0001D17B89FB82FA8A7B899A42CED100BFA7
:1048FC0000BF1C37BD4690BDE00C002090B589B0C0
:10490C0002AFF860B96011461A460B46FB8013469D
:10491C00BB8097F82810BA8897F82C3000930B4678
:10492C00B968F868FFF734FF144B1B78002B21D0C3
:10493C000023FB821AE0FB8A5B01BA68D018FB8A61
:10494C0001335B01BA68D11897F82840BA8897F8F8
:10495C002C3000932346FFF71BFFFB8A0133FB82AD
:10496C00064B1B78002B01D1FB88FB82FA8AFB8853
:10497C009A42E0D100BF1C37BD4690BDE00C002030
:10498C0080B582B000AF0346FB710B46BB7113467A
:10499C007B717B79002B27D1BB791846FBF786FC02
:1049AC00034628491846FBF7D9FC03462649184606
:1049BC00FBF7CCFB03461A46244B1A61FB791846CD
:1049CC00FBF774FC034622491846FBF7C7FC034669
:1049DC0020491846FBF7BAFB03461A461B4B5A6193
:1049EC001A48FFF721FD28E0BB794D2B03D9174B53
:1049FC00194A1A6111E0BB791846FBF757FC0346BC
:104A0C0016491846FBF7AAFC03460F491846FBF754
:104A1C009DFB03461A460D4B1A610C48FFF704FD2B
:104A2C004FF4FA70FBF76CFE084B0D4A1A61074BFA
:104A3C00054A5A610548FFF7F7FC00BF0837BD4629
:104A4C0080BD00BF0000A03E00004842680B002063
:104A5C005555553F0000A041000070410000E03E5C
:104A6C000000704290B589B002AF03460A46FB8045
:104A7C001346BB80BB88C3F150031846FBF71AFCE6
:104A8C0003468F491846FBF769FC03467B618D4B47
:104A9C005B6879691846FBF757FB03461A468A4B45
:104AAC005A60884B9B6879691846FBF74DFB0346A7
:104ABC001A46854B9A60834B5B6979691846FBF7FC
:104ACC0045FB03461A46804B5A617E4B9B697969BC
:104ADC001846FBF73BFB03461A467B4B9A61794B16
:104AEC005B6A79691846FBF731FB03461A46764B2D
:104AFC005A62744B9B6A79691846FBF727FB03468D
:104B0C001A46714B9A626F4B5B6B79691846FBF7CF
:104B1C001BFB03461A466C4B5A636A4B9B6B7969B9
:104B2C001846FBF711FB03461A46674B9A63654B15
:104B3C005B6C79691846FBF709FB03461A46624B16
:104B4C005A64604B9B6C79691846FBF7FFFA034675
:104B5C001A465D4B9A645B4B5B6D79691846FBF7A3
:104B6C00F3FA03461A46584B5A65564B9B6D7969B6
:104B7C001846FBF7E9FA03461A46534B9A65514B14
:104B8C005B6E79691846FBF7DFFA03461A464E4B03
:104B9C005A664C4B9B6E79691846FBF7D5FA03465F
:104BAC001A46494B9A66474B5B6F79691846FBF777
:104BBC00CDFA03461A46444B5A67424B9B6F7969B0
:104BCC001846FBF7C3FA03461A463F4B9A674FF059
:104BDC0000033B6179693D48FBF7B6FA03461C4676
:104BEC003B497869FBF7B2FA034619462046FBF7B6
:104BFC00ABFA034636491846FBF764FC0346FB60E8
:104C0C00FB88592B73D83349F868FBF75BFC0346D8
:104C1C001C46FB881846FBF74DFB034619462D48EE
:104C2C00FBF792FA034619462046FBF797FB03461F
:104C3C003B61254B5B6839691846FBF785FA0346DF
:104C4C001A46214B5A60204B9B6839691846FBF772
:104C5C007BFA03461A461C4B9A601B4B5B6A3969FC
:104C6C001846FBF773FA03461A46174B5A62164B53
:104C7C009B6A39691846FBF769FA03461A46124BC8
:104C8C009A62114B5B6C39691846FBF75FFA034665
:104C9C001A460D4B5A640C4B9B6C39691846FBF742
:104CAC0055FA03461A46084B9A64074B5B6E3969F2
:104CBC001846FBF749FA03461A46034B5A660BE0B3
:104CCC006666B63E48090020B00B0020000070421A
:104CDC00000040400000B4423F4B9B6E39691846BF
:104CEC00FBF732FA03461A463B4B9A6668E0FB88A0
:104CFC005A2B65D93949F868FBF7E4FB03461C4687
:104D0C00FB881846FBF7D6FA034634491846FBF7DE
:104D1C001BFA034619462046FBF720FB03463B6172
:104D2C002D4B5B6939691846FBF710FA03461A4696
:104D3C00294B5A61284B9B6939691846FBF706FACF
:104D4C0003461A46244B9A61234B5B6B3969184610
:104D5C00FBF7FAF903461A461F4B5A631E4B9B6B23
:104D6C0039691846FBF7F0F903461A461A4B9A6351
:104D7C00194B5B6D39691846FBF7E6F903461A4681
:104D8C00154B5A65144B9B6D39691846FBF7DCF9CA
:104D9C0003461A46104B9A650F4B5B6F39691846E0
:104DAC00FBF7D4F903461A460B4B5A670A4B9B6F19
:104DBC0039691846FBF7CAF903461A46064B9A6737
:104DCC00002300930323202204210348FFF74EFD08
:104DDC0000BF1C37BD4690BDB00B00200000B44294
:104DEC0080B584B000AF7860396000224FF4006168
:104DFC005048FCF71EFA4FF4C870FBF781FC0122F7
:104E0C004FF400614B48FCF714FA4FF4FA70FBF7BF
:104E1C0077FC00BF4FF480714648FCF7F3F903466A
:104E2C00002BF7D14FF49670FBF76AFC072242492E
:104E3C004248FFF703FA0023FB7310E0FB7B7A6810
:104E4C0013441B78202B0ED0FB7B7A681A44FB7B17
:104E5C0007331178384AD154FB7B0133FB73FB7B4E
:104E6C000A2BEBD100E000BFFB7B334A0D21D15460
:104E7C00FB7B0133304A0A21D154FB7B9BB20933B3
:104E8C009AB240F6C4132C492D48FDF750FEC820A9
:104E9C00FBF736FC062228492A48FFF7CFF90023F6
:104EAC00FB7310E0FB7B3A6813441B78202B0ED06D
:104EBC00FB7B3A681A44FB7B063311781E4AD154AB
:104ECC00FB7B0133FB73FB7B042BEBD100E000BFBE
:104EDC00FB7B194A0D21D154FB7B0133164A0A2165
:104EEC00D154FB7B9BB208339AB240F6C4131249DF
:104EFC001348FDF71CFEC820FBF702FC4FF448706A
:104F0C00FBF7FEFB00224FF400610A48FCF791F915
:104F1C004FF4C870FBF7F4FB01224FF40061054815
:104F2C00FCF787F96420FBF7EBFB00BF1037BD469D
:104F3C0080BD00BF00080140140F0020780C002039
:104F4C00501000208C0C002080B500AF2321294884
:104F5C00FFF7CCF8232228492648FFF76FF90022E7
:104F6C004FF400612548FCF764F94FF4C870FBF767
:104F7C00C7FB01224FF400612048FCF75AF94FF4AB
:104F8C00FA70FBF7BDFB00BF4FF480711B48FCF7B8
:104F9C0039F90346002BF7D14FF49670FBF7B0FBB1
:104FAC0040F6C413122216491648FDF7C0FD3220F4
:104FBC00FBF7A6FB40F6C4130C2213491148FDF76E
:104FCC00B6FD4FF44870FBF79BFB00224FF40061D9
:104FDC000A48FCF72EF94FF4C870FBF791FB01223D
:104FEC004FF400610548FCF724F96420FBF788FBBB
:104FFC0000BF80BD540C0020300C00200008014084
:10500C00780C0020501000208C0C002080B584B04F
:10501C0000AF7860396023212348FEF7DFFF224B75
:10502C001B78232B01D0FFF78FFF1F4B93F82030F9
:10503C00312B02D101233B6005E000233B604FF094
:10504C00804300229A630023FB7324E0FB7B013333
:10505C00FB73FB7B5B00144AD35C2D2B0ED1FB7BCB
:10506C005B000133104AD35CC3F13003D9B2FB7B34
:10507C00013B7A6813444AB21A700CE0FB7B5B006C
:10508C000133094AD35C303BD9B2FB7B013B7A68D4
:10509C0013444AB21A70FB7B082BD7D100BF00BF58
:1050AC001037BD4680BD00BF300C002080B500AF6E
:1050BC00FBF7C4FA00F013F800F08EFA00F050F889
:1050CC0000F062F800F0BAF800F02CF900F0C2F928
:1050DC0000F058FAFEF73CFDFEF752FDFCE780B5F8
:1050EC0090B000AF07F1180328220021184600F0F9
:1050FC0031FD3B1D00221A605A609A60DA601A6119
:10510C000223BB610123BB621023FB6202237B637E
:10511C000023BB634FF46013FB6307F118031846BD
:10512C00FCF7B8F80346002B01D000F0B3FA0F23BC
:10513C007B600223BB600023FB604FF480633B6108
:10514C0000237B613B1D02211846FCF725FB03461F
:10515C00002B01D000F09EFA00BF4037BD4680BD49
:10516C0080B500AF064B074A1A600548FBF7F9FB00
:10517C000346002B01D000F08DFA00BF80BD00BFAC
:10518C00280F00200030024080B586B000AF07F138
:10519C00080300221A605A609A60DA603B460022CB
:1051AC001A605A60234B244A1A60224B4FF6FF12A6
:1051BC005A60204B00229A601E4B6322DA601D4B12
:1051CC0000221A611B4B00225A611A4B00229A6171
:1051DC001848FCF779FC0346002B01D000F05AFA72
:1051EC004FF48053BB6007F1080319461148FDF7D3
:1051FC0055F80346002B01D000F04CFA08210D485D
:10520C00FCF72CFE0346002B01D000F043FA0023E0
:10521C003B6000237B603B4619460648FDF7CAFB02
:10522C000346002B01D000F035FA00BF1837BD46FD
:10523C0080BD00BF300F0020002C014080B58EB027
:10524C0000AF07F1280300221A605A609A60DA60F6
:10525C0007F1200300221A605A603B1D00221A60DD
:10526C005A609A60DA601A615A619A612C4B4FF05D
:10527C0080421A602A4B1F225A60294B00229A60E6
:10528C00274B3F22DA60264B00221A61244B002266
:10529C009A612348FCF718FC0346002B01D000F060
:1052AC00F9F94FF48053BB6207F1280319461C48E7
:1052BC00FCF7F4FF0346002B01D000F0EBF9184883
:1052CC00FCF7D2FC0346002B01D000F0E3F90023DD
:1052DC003B6200237B6207F1200319461048FDF75F
:1052EC0069FB0346002B01D000F0D4F960237B60EE
:1052FC000023BB600023FB6000237B613B1D042269
:10530C0019460748FCF70CFF0346002B01D000F0B0
:10531C00C1F9034800F074FA00BF3837BD4680BDB0
:10532C00780F002080B58EB000AF07F12803002263
:10533C001A605A609A60DA6007F1200300221A6042
:10534C005A603B1D00221A605A609A60DA601A613A
:10535C005A619A613D4B3E4A1A603C4B3F225A605F
:10536C003A4B00229A60394B44F61F62DA60374B95
:10537C0000221A61354B00229A613448FCF7A4FBD9
:10538C000346002B01D000F085F94FF48053BB622B
:10539C0007F1280319462D48FCF780FF0346002B24
:1053AC0001D000F077F92948FCF75EFC0346002B8E
:1053BC0001D000F06FF900233B6200237B6207F100
:1053CC00200319462148FDF7F5FA0346002B01D0BE
:1053DC0000F060F960237B600023BB600023FB605E
:1053EC0000237B613B1D002219461848FCF798FEF0
:1053FC000346002B01D000F04DF93B1D0422194649
:10540C001248FCF78DFE0346002B01D000F042F948
:10541C003B1D082219460D48FCF782FE0346002B63
:10542C0001D000F037F93B1D0C2219460748FCF758
:10543C0077FE0346002B01D000F02CF9034800F056
:10544C00DFF900BF3837BD4680BD00BFC00F00205C
:10545C000004004080B58EB000AF07F12803002295
:10546C001A605A609A60DA6007F1200300221A6011
:10547C005A603B1D00221A605A609A60DA601A6109
:10548C005A619A613D4B3E4A1A603C4B3F225A602E
:10549C003A4B00229A60394B44F61F62DA60374B64
:1054AC0000221A61354B00229A613448FCF70CFB40
:1054BC000346002B01D000F0EDF84FF48053BB6293
:1054CC0007F1280319462D48FCF7E8FE0346002B8C
:1054DC0001D000F0DFF82948FCF7C6FB0346002B8F
:1054EC0001D000F0D7F800233B6200237B6207F168
:1054FC00200319462148FDF75DFA0346002B01D025
:10550C0000F0C8F860237B600023BB600023FB60C5
:10551C0000237B613B1D002219461848FCF700FE56
:10552C000346002B01D000F0B5F83B1D04221946B0
:10553C001248FCF7F5FD0346002B01D000F0AAF849
:10554C003B1D082219460D48FCF7EAFD0346002BCB
:10555C0001D000F09FF83B1D0C2219460748FCF7C0
:10556C00DFFD0346002B01D000F094F8034800F057
:10557C0047F900BF3837BD4680BD00BF081000207A
:10558C000008004080B500AF114B124A1A60104B56
:10559C004FF416525A600E4B00229A600C4B0022AC
:1055AC00DA600B4B00221A61094B0C225A61084B32
:1055BC0000229A61064B0022DA610548FDF76AFA6F
:1055CC000346002B01D000F065F800BF80BD00BF82
:1055DC00501000200038014080B586B000AF07F1B4
:1055EC00080300221A605A609A60DA60264B9B69A5
:1055FC00254A43F004039361234B9B6903F0040396
:10560C007B607B68204B9B691F4A43F008039361C6
:10561C001D4B9B6903F008033B603B6801224FF470
:10562C0000611A48FBF705FE4FF48473BB60184BFE
:10563C00FB6001233B6107F1080319461348FBF794
:10564C005DFC4FF40063BB600123FB6001233B61F5
:10565C0003237B6107F1080319460C48FBF74EFC4A
:10566C00002200210920FBF746F90920FBF75FF91E
:10567C00002200211720FBF73EF91720FBF757F902
:10568C0000BF1837BD4680BD001002400008014025
:10569C000000311080B400AF00BFBD4680BC704725
:1056AC0080B485B000AF154B9B69144A43F00103DD
:1056BC009361124B9B6903F00103BB60BB680F4BFA
:1056CC00DB690E4A43F08053D3610C4BDB6903F06A
:1056DC0080537B607B680A4B5B68FB60FB6823F044
:1056EC00E063FB60FB6843F00073FB60044AFB68FB
:1056FC00536000BF1437BD4680BC70470010024099
:10570C000000014080B485B000AF78607B681B68F6
:10571C00094A93420BD1094B5B69084A43F0400399
:10572C005361064B5B6903F04003FB60FB6800BFF1
:10573C001437BD4680BC7047003002400010024058
:10574C0080B586B000AF78607B681B68284A9342AE
:10575C0014D1284B9B69274A43F400639361254B72
:10576C009B6903F400637B617B6900220021192093
:10577C00FBF7C1F81920FBF7DAF834E07B681B68FB
:10578C00B3F1804F0CD11B4BDB691A4A43F0010378
:10579C00D361184BDB6903F001033B613B6922E0E9
:1057AC007B681B68144A93420CD1124BDB69114A7B
:1057BC0043F00203D3610F4BDB6903F00203FB6080
:1057CC00FB6810E07B681B680C4A93420BD1094BB9
:1057DC00DB69084A43F00403D361064BDB6903F031
:1057EC000403BB60BB6800BF1837BD4680BD00BF5B
:1057FC00002C014000100240000400400008004052
:10580C0080B58AB000AF786007F1140300221A60EB
:10581C005A609A60DA607B681B68B3F1804F18D1CC
:10582C00354B9B69344A43F004039361324B9B69BB
:10583C0003F004033B613B6902237B610223BB61E0
:10584C0002233B6207F1140319462C48FBF756FB65
:10585C004DE07B681B682A4A93422AD1264B9B69F0
:10586C00254A43F008039361234B9B6903F008031B
:10587C00FB60FB6833237B610223BB6102233B6229
:10588C0007F1140319461F48FBF738FB1E4B5B68E6
:10589C007B627B6A23F440637B627B6A43F0E06348
:1058AC007B627B6A43F400637B62174A7B6A5360BA
:1058BC001DE07B681B68154A934218D10E4B9B69FF
:1058CC000D4A43F0080393610B4B9B6903F00803EB
:1058DC00BB60BB684FF470737B610223BB61022316
:1058EC003B6207F1140319460648FBF707FB00BFA0
:1058FC002837BD4680BD00BF0010024000080140A3
:10590C0000040040000C0140000001400008004071
:10591C0080B588B000AF786007F1100300221A60E0
:10592C005A609A60DA607B681B68204A934239D1CE
:10593C001F4B9B691E4A43F4804393611C4B9B692C
:10594C0003F48043FB60FB68194B9B69184A43F0D6
:10595C0004039361164B9B6903F00403BB60BB68A3
:10596C004FF400733B6102237B610323FB6107F15E
:10597C00100319460F48FBF7C1FA4FF480633B61E3
:10598C0000237B610123BB6107F110031946094811
:10599C00FBF7B4FA002200212520FAF7ACFF2520F2
:1059AC00FAF7C5FF00BF2037BD4680BD0038014067
:1059BC00001002400008014080B400AF00BFBD469B
:1059CC0080BC704780B400AFFEE780B400AFFEE748
:1059DC0080B400AFFEE780B400AFFEE780B400AF48
:1059EC0000BFBD4680BC704780B400AF00BFBD4651
:1059FC0080BC704780B400AF00BFBD4680BC704710
:105A0C0080B500AFFAF760FEFDF790FE00BF80BDD9
:105A1C0080B500AF0820FBF725FC00BF80BD80B52A
:105A2C0000AF4FF48070FBF71DFC00BF80BD000081
:105A3C0080B500AF0248FCF76AFA00BF80BD00BF1A
:105A4C00300F002080B500AF0248FDF7D5F900BF3C
:105A5C0080BD00BF5010002080B400AF154B1B68F8
:105A6C00144A43F001031360124B5A681149124B4C
:105A7C0013404B600F4B1B680E4A23F0847323F4C6
:105A8C00803313600B4B1B680A4A23F4802313608A
:105A9C00084B5B68074A23F4FE035360054B4FF435
:105AAC001F029A60054B4FF000629A6000BFBD4622
:105ABC0080BC7047001002400000FFF800ED00E0D1
:105ACC00002103E00B4B5B58435004310A480B4B4D
