:020000040800F2
:100000000050002031640008E1620008ED62000841
:10001000F3620008F9620008FF62000800000000B7
:100020000000000000000000000000000563000860
:1000300011630008000000001D6300082963000828
:10004000796400087964000879640008796400081C
:10005000796400087964000879640008796400080C
:10006000796400083963000879640008796400083D
:10007000796400087964000879640008496300081D
:1000800079640008796400087964000879640008DC
:1000900079640008796400087964000879640008CC
:1000A00079640008796400087964000879640008BC
:1000B00079640008796400087964000879640008AC
:1000C000796400087964000879640008796400089C
:1000D000796400085D6300087964000879640008A9
:1000E0007964000879640008796400080000000061
:1000F0000000000000000000000000000000000000
:0C01000000000000000000005FF808F1A3
:10010C0010B5054C237833B9044B13B10448AFF345
:10011C0000800123237010BD200C00200000000083
:10012C00D06C000808B5034B1BB103490348AFF36F
:10013C00008008BD00000000240C0020D06C0008DA
:10014C0080F0004002E000BF81F0004142001FBF80
:10015C005FEA410392EA030F7FEA226C7FEA236C89
:10016C006AD04FEA1262D2EB1363C1BFD21841407E
:10017C0048404140B8BF5B42192B88BF704710F014
:10018C00004F40F4000020F07F4018BF404211F0B7
:10019C00004F41F4000121F07F4118BF494292EA1F
:1001AC00030F3FD0A2F1010241FA03FC10EB0C004B
:1001BC00C3F1200301FA03F100F0004302D54942D8
:1001CC0060EB4000B0F5000F13D3B0F1807F06D385
:1001DC0040084FEA310102F10102FE2A51D2B1F17D
:1001EC00004F40EBC25008BF20F0010040EA030072
:1001FC007047490040EB0000013A28BFB0F5000FF2
:10020C00EDD2B0FA80FCACF1080CB2EB0C0200FAA7
:10021C000CF0AABF00EBC25052421843BCBFD040F6
:10022C001843704792F0000F81F4000106BF80F470
:10023C0000000132013BB5E74FEA41037FEA226C33
:10024C0018BF7FEA236C21D092EA030F04D092F0FE
:10025C00000F08BF0846704790EA010F1CBF002032
:10026C00704712F07F4F04D1400028BF40F000408F
:10027C00704712F100723CBF00F50000704700F0AF
:10028C00004343F0FE4040F4000070477FEA2262D6
:10029C0016BF08467FEA23630146420206BF5FEAA7
:1002AC00412390EA010F40F4800070474FF00003A7
:1002BC0004E000BF10F0004348BF40425FEA000C6E
:1002CC0008BF704743F0964301464FF000001CE016
:1002DC0050EA010208BF70474FF000030AE000BF6C
:1002EC0050EA010208BF704711F0004302D54042AA
:1002FC0061EB41015FEA010C02BF8446014600201C
:10030C0043F0B64308BFA3F18053A3F50003BCFA36
:10031C008CF2083AA3EBC25310DB01FA02FC6344E3
:10032C0000FA02FCC2F12002BCF1004F20FA02F2EA
:10033C0043EB020008BF20F00100704702F12002DD
:10034C0001FA02FCC2F1200250EA4C0021FA02F23E
:10035C0043EB020008BF20EADC7070474FF0FF0C43
:10036C001CEAD0521EBF1CEAD15392EA0C0F93EA3E
:10037C000C0F6FD01A4480EA010C400218BF5FEAE0
:10038C0041211ED04FF0006343EA501043EA511153
:10039C00A0FB01310CF00040B1F5000F3EBF49004D
:1003AC0041EAD3715B0040EA010062F17F02FD2A51
:1003BC001DD8B3F1004F40EBC25008BF20F0010034
:1003CC00704790F0000F0CF0004C08BF49024CEA4B
:1003DC00502040EA51207F3AC2BFD2F1FF0340EADD
:1003EC00C250704740F400004FF00003013A5DDC4E
:1003FC0012F1190FDCBF00F000407047C2F100028F
:10040C00410021FA02F1C2F1200200FA02FC5FEA7B
:10041C00310040F1000053EA4C0308BF20EADC70C5
:10042C00704792F0000F00F0004C02BF400010F437
:10043C00000F013AF9D040EA0C0093F0000F01F0E4
:10044C00004C02BF490011F4000F013BF9D041EA06
:10045C000C018FE70CEAD15392EA0C0F18BF93EA08
:10046C000C0F0AD030F0004C18BF31F0004CD8D132
:10047C0080EA010000F00040704790F0000F17BFB9
:10048C0090F0004F084691F0000F91F0004F14D0FF
:10049C0092EA0C0F01D142020FD193EA0C0F03D157
:1004AC004B0218BF084608D180EA010000F000405A
:1004BC0040F0FE4040F40000704740F0FE4040F435
:1004CC00400070474FF0FF0C1CEAD0521EBF1CEAD4
:1004DC00D15392EA0C0F93EA0C0F69D0A2EB0302F2
:1004EC0080EA010C49024FEA402037D04FF080538C
:1004FC0043EA111143EA10130CF000408B4238BF51
:10050C005B0042F17D024FF4000C8B4224BF5B1A5E
:10051C0040EA0C00B3EB510F24BFA3EB510340EAAC
:10052C005C00B3EB910F24BFA3EB910340EA9C005A
:10053C00B3EBD10F24BFA3EBD10340EADC001B01CA
:10054C0018BF5FEA1C1CE0D1FD2A3FF650AF8B426E
:10055C0040EBC25008BF20F0010070470CF0004C7B
:10056C004CEA50207F32C2BFD2F1FF0340EAC250A6
:10057C00704740F400004FF00003013A37E792F067
:10058C00000F00F0004C02BF400010F4000F013AC5
:10059C00F9D040EA0C0093F0000F01F0004C02BFC0
:1005AC00490011F4000F013BF9D041EA0C0195E729
:1005BC000CEAD15392EA0C0F08D142027FF47DAFC2
:1005CC0093EA0C0F7FF470AF084676E793EA0C0FB2
:1005DC0004D14B023FF44CAF08466EE730F0004CB0
:1005EC0018BF31F0004CCAD130F000427FF45CAF40
:1005FC0031F000437FF43CAF5FE700BF4FF0FF3CAE
:10060C0006E000BF4FF0010C02E000BF4FF0010C00
:10061C004DF804CD4FEA40024FEA41037FEA226CC9
:10062C0018BF7FEA236C11D001B052EA530C18BFEB
:10063C0090EA010F58BFB2EB030088BFC81738BF50
:10064C006FEAE17018BF40F0010070477FEA226C3E
:10065C0002D15FEA402C05D17FEA236CE4D15FEA3A
:10066C00412CE1D05DF8040B704700BF844608466E
:10067C006146FFE70FB5FFF7C9FF002848BF10F12F
:10068C00000F0FBD4DF808EDFFF7F4FF0CBF012074
:10069C0000205DF808FB00BF4DF808EDFFF7EAFFFE
:1006AC0034BF012000205DF808FB00BF4DF808EDB9
:1006BC00FFF7E0FF94BF012000205DF808FB00BFAE
:1006CC004DF808EDFFF7D2FF94BF012000205DF834
:1006DC0008FB00BF4DF808EDFFF7C8FF34BF012041
:1006EC0000205DF808FB00BF42000ED2B2F1FE4FB5
:1006FC000BD34FF09E03B3EB126209D44FEA0023E5
:10070C0043F0004323FA02F070474FF000007047AB
:10071C0012F1610F01D1420202D14FF0FF3070474C
:10072C004FF00000704700BF80B500AF084B1B684E
:10073C00074A43F010031360032000F047F90F2021
:10074C0000F008F805F02CFC0023184680BD00BF13
:10075C000020024080B582B000AF7860124B1A685E
:10076C00124B1B7819464FF47A73B3FBF1F3B2FBBF
:10077C00F3F3184600F05FF90346002B01D0012378
:10078C000EE07B680F2B0AD8002279684FF0FF30FF
:10079C0000F027F9064A7B681360002300E0012370
:1007AC0018460837BD4680BDD80300200400002041
:1007BC000000002080B400AF054B1B781A46054B97
:1007CC001B681344034A136000BFBD4680BC7047CE
:1007DC00040000203C0C002080B400AF024B1B68CE
:1007EC001846BD4680BC70473C0C002080B584B0D8
:1007FC0000AF7860FFF7F0FFB8607B68FB60FB68C8
:10080C00B3F1FF3F05D00A4B1B781A46FB68134423
:10081C00FB6000BFFFF7E0FF0246BB68D31AFA6823
:10082C009A42F7D800BF00BF1037BD4680BD00BF4D
:10083C000400002080B485B000AF78607B6803F0C2
:10084C000703FB600C4BDB68BB60BA684FF6FF0319
:10085C001340BB60FB681A02BB68134343F0BF63D1
:10086C0043F40033BB60044ABB68D36000BF143749
:10087C00BD4680BC704700BF00ED00E080B400AF07
:10088C00044BDB681B0A03F007031846BD4680BC0B
:10089C00704700BF00ED00E080B483B000AF0346AA
:1008AC00FB7197F90730002B0BDBFB7903F01F0270
:1008BC00064997F907305B09012000FA02F241F86A
:1008CC00232000BF0C37BD4680BC704700E100E020
:1008DC0080B483B000AF03463960FB7197F90730E1
:1008EC00002B0ADB3B68DAB20C4997F9073012018E
:1008FC00D2B20B4483F800230AE03B68DAB2084911
:10090C00FB7903F00F03043B1201D2B20B441A76AD
:10091C0000BF0C37BD4680BC704700BF00E100E053
:10092C0000ED00E080B489B000AFF860B9607A6087
:10093C00FB6803F00703FB61FB69C3F10703042B9E
:10094C0028BF0423BB61FB690433062B02D9FB6966
:10095C00033B00E000237B614FF0FF32BB6902FADE
:10096C0003F3DA43BB681A407B699A404FF0FF31BE
:10097C007B6901FA03F3D9437B680B401343184698
:10098C002437BD4680BC704780B582B000AF78601C
:10099C007B68013BB3F1807F01D301230FE00A4A4E
:1009AC007B68013B53600F214FF0FF30FFF790FF46
:1009BC00054B00229A60044B07221A60002318464C
:1009CC000837BD4680BD00BF10E000E080B582B0A6
:1009DC0000AF78607868FFF72DFF00BF0837BD4681
:1009EC0080BD80B586B000AF0346B9607A60FB73FA
:1009FC0000237B61FFF742FF78617A68B9687869F8
:100A0C00FFF790FF024697F90F3011461846FFF793
:100A1C005FFF00BF1837BD4680BD80B582B000AF08
:100A2C000346FB7197F907301846FFF735FF00BFF7
:100A3C000837BD4680BD80B582B000AF786078685D
:100A4C00FFF7A2FF034618460837BD4680BD80B5A8
:100A5C0082B000AF78607B68002B01D101230EE0DF
:100A6C007B685B79DBB2002B05D17B6800221A71A5
:100A7C00786805F0C7FA7B6801225A710023184682
:100A8C000837BD4680BD000080B485B000AF7860EB
:100A9C000023FB607B68002B01D1012343E07B68C2
:100AAC001B681A46224B1344224AA2FB03231B0940
:100ABC009A007B681A647B681F4ADA637B6802229F
:100ACC0083F821207B681B681B68FB60FB6823F4A0
:100ADC007F5323F03003FB607B685A687B689B680C
:100AEC001A437B68DB681A437B681B691A437B6873
:100AFC005B691A437B689B691A437B68DB69134308
:100B0C00FA681343FB607B681B68FA681A607B68A1
:100B1C0000229A637B68012283F821207B680022E3
:100B2C0083F82020002318461437BD4680BC70473C
:100B3C00F8FFFDBFCDCCCCCC0000024080B586B018
:100B4C0000AFF860B9607A603B600023FB75FB680E
:100B5C0093F82030012B01D102234AE0FB680122DB
:100B6C0083F82020FB6893F82130012B3AD1FB68E5
:100B7C00022283F82120FB6800229A63FB681B6821
:100B8C001A68FB681B6822F001021A603B687A68DD
:100B9C00B968F86800F0F3F9FB68DB6A002B08D041
:100BAC00FB681B681A68FB681B6842F00E021A602F
:100BBC000FE0FB681B681A68FB681B6822F00402D4
:100BCC001A60FB681B681A68FB681B6842F00A0213
:100BDC001A60FB681B681A68FB681B6842F001020C
:100BEC001A6005E0FB68002283F820200223FB75C5
:100BFC00FB7D18461837BD4680BD80B485B000AF6C
:100C0C0078600023FB737B6893F82130022B08D0AB
:100C1C007B6804229A637B68002283F820200123DE
:100C2C0020E07B681B681A687B681B6822F00E0248
:100C3C001A607B681B681A687B681B6822F00102CB
:100C4C001A607B681A6C7B68DB6B012101FA02F27B
:100C5C005A607B68012283F821207B68002283F88C
:100C6C002020FB7B18461437BD4680BC7047000023
:100C7C0080B584B000AF78600023FB737B6893F879
:100C8C002130022B05D07B6804229A630123FB736D
:100C9C0051E07B681B681A687B681B6822F00E02A7
:100CAC001A607B681B681A687B681B6822F001025B
:100CBC001A607B681B68224A934229D07B681B68A8
:100CCC00204A934222D07B681B681F4A93421AD059
:100CDC007B681B681D4A934212D07B681B681C4AB8
:100CEC0093420AD07B681B681A4A934202D14FF494
:100CFC0080130EE04FF080730BE04FF4803308E06C
:100D0C004FF4805305E04FF4807302E0102300E0B1
:100D1C000123114A53607B68012283F821207B68F0
:100D2C00002283F820207B685B6B002B03D07B6850
:100D3C005B6B78689847FB7B18461037BD4680BDC7
:100D4C00080002401C0002403000024044000240F7
:100D5C00580002406C0002400000024080B584B094
:100D6C0000AF78607B68DB6B1B68FB607B681B6883
:100D7C001B68BB607B681B6C04229A40FB681340A9
:100D8C00002B4FD0BB6803F00403002B4AD07B68C8
:100D9C001B681B6803F02003002B07D17B681B68C2
:100DAC001A687B681B6822F004021A607B681B6857
:100DBC00664A934229D07B681B68654A934222D0CD
:100DCC007B681B68634A93421AD07B681B68624A33
:100DDC00934212D07B681B68604A93420AD07B68AE
:100DEC001B685F4A934202D14FF480030EE04FF030
:100DFC0080630BE04FF4802308E04FF4804305E060
:100E0C004FF4806302E0402300E00423554A536012
:100E1C007B68DB6A002B00F094807B68DB6A786867
:100E2C0098478EE07B681B6C02229A40FB6813404B
:100E3C00002B56D0BB6803F00203002B51D07B680B
:100E4C001B681B6803F02003002B0BD17B681B680D
:100E5C001A687B681B6822F00A021A607B68012200
:100E6C0083F821207B681B68384A934229D07B6821
:100E7C001B68374A934222D07B681B68354A9342E1
:100E8C001AD07B681B68344A934212D07B681B686B
:100E9C00324A93420AD07B681B68314A934202D192
:100EAC004FF400130EE04FF000730BE04FF40033DF
:100EBC0008E04FF4005305E04FF4007302E02023E8
:100ECC0000E00223274A53607B68002283F820202D
:100EDC007B689B6A002B34D07B689B6A7868984748
:100EEC002FE07B681B6C08229A40FB681340002B98
:100EFC0028D0BB6803F00803002B23D07B681B6849
:100F0C001A687B681B6822F00E021A607B681A6CE8
:100F1C007B68DB6B012101FA02F25A607B680122CB
:100F2C009A637B68012283F821207B68002283F876
:100F3C0020207B681B6B002B04D07B681B6B7868B4
:100F4C00984700BF00BF1037BD4680BD0800024067
:100F5C001C00024030000240440002405800024095
:100F6C006C0002400000024080B483B000AF786097
:100F7C007B689B6B18460C37BD4680BC704780B4B1
:100F8C0085B000AFF860B9607A603B60FB681A6CA2
:100F9C00FB68DB6B012101FA02F25A60FB681B68EB
:100FAC003A685A60FB685B68102B08D1FB681B68B9
:100FBC007A689A60FB681B68BA68DA6007E0FB68BD
:100FCC001B68BA689A60FB681B687A68DA6000BFB5
:100FDC001437BD4680BC7047F0B587B000AFF860E1
:100FEC00B960C7E900230123FB750023BB750023FF
:100FFC007B752F4B1B7E012B01D1022354E02C4B14
:10100C0001221A764CF2503000F0A8F80346FB751A
:10101C00FB7D002B44D1FB68012B02D101237B7596
:10102C0007E0FB68022B02D102237B7501E004234D
:10103C007B750023BB752DE0BB7D5A00BB6802EBB2
:10104C00030CBB7D1901D7E90023C1F12006A1F1E6
:10105C00200022FA01F403FA06F6344323FA00F0D6
:10106C00044323FA01F5A3B21946604600F05AF87E
:10107C004CF2503000F072F80346FB750D4B1B69B7
:10108C000C4A23F001031361FB7D002B07D1BB7DC0
:10109C000133BB75BA7D7B7D9A42CDD300E000BF96
:1010AC00034B00221A76FB7D18461C37BD46F0BD5B
:1010BC00400C00200020024080B483B000AF00231D
:1010CC00FB710D4B1B6903F08003002B0DD00A4BF9
:1010DC000A4A5A60084B0A4A5A60074B1B6903F0CC
:1010EC008003002B01D00123FB71FB7918460C37D0
:1010FC00BD4680BC704700BF0020024023016745FD
:10110C00AB89EFCD80B400AF054B1B69044A43F0AB
:10111C008003136100231846BD4680BC704700BF96
:10112C000020024080B483B000AF78600B467B8017
:10113C00084B0022DA61084B1B69074A43F0010394
:10114C0013617B687A881A8000BF0C37BD4680BC5F
:10115C00704700BF400C00200020024080B584B0D6
:10116C0000AF7860FFF738FBF86010E07B68B3F1F4
:10117C00FF3F0CD07B68002B07D0FFF72DFB0246FE
:10118C00FB68D31A7A689A4201D2032325E0154BE7
:10119C00DB6803F00103002BE8D1124BDB6803F092
:1011AC002003002B02D00F4B2022DA600D4BDB68A2
:1011BC0003F01003002B0BD10A4BDB6903F0010386
:1011CC00002B05D1074BDB6803F00403002B03D085
:1011DC0000F00AF8012300E0002318461037BD4642
:1011EC0080BD00BF0020024080B483B000AF00235C
:1011FC007B60234BDB6803F01003002B09D0214BE1
:10120C00DB6943F002031F4AD3617B6843F0100390
:10121C007B601B4BDB6803F00403002B09D0194BDC
:10122C00DB6943F00103174AD3617B6843F0040385
:10123C007B60134BDB6903F00103002B0BD0114BCC
:10124C00DB6943F004030F4AD3610D4BDB690C4A95
:10125C0023F00103D3617B6840F20112934206D163
:10126C00074BDB69064A23F00103D36102E0044A11
:10127C007B68D36000BF0C37BD4680BC704700BF95
:10128C0000200240400C002080B584B000AF786094
:10129C0039600123FB730023BB602F4B1B7E012B9A
:1012AC0001D1022353E02C4B01221A767B681B6878
:1012BC00022B16D14CF25030FFF750FF0346002B97
:1012CC0041D1012000F04CF84CF25030FFF746FFB2
:1012DC000346FB73214B1B69204A23F00403136163
:1012EC0031E04CF25030FFF739FF0346002B2AD186
:1012FC003B684FF0FF321A607B689B68BB6019E05B
:10130C00B86800F049F84CF25030FFF727FF03465D
:10131C00FB73124B1B69114A23F002031361FB7B15
:10132C00002B03D03B68BA681A600CE0BB6803F56D
:10133C008063BB607B68DB689A027B689B681344A4
:10134C00BA689A42DCD3044B00221A76FB7B18460F
:10135C001037BD4680BD00BF400C0020002002406D
:10136C0080B483B000AF7860094B0022DA61094B7E
:10137C001B69084A43F004031361064B1B69054AB9
:10138C0043F04003136100BF0C37BD4680BC70476F
:10139C00400C00200020024080B483B000AF786085
:1013AC000B4B0022DA610B4B1B690A4A43F0020318
:1013BC001361084A7B685361064B1B69054A43F06D
:1013CC004003136100BF0C37BD4680BC704700BFA3
:1013DC00400C00200020024080B48BB000AF78603D
:1013EC00396000237B6200233B6269E101227B6A46
:1013FC0002FA03F3FB613B681B68FA691340BB619B
:10140C00BA69FB699A4240F058813B685B689A4A1A
:10141C0093425ED0984A934275D8984A934258D0DA
:10142C00964A93426FD8964A934252D0944A93422A
:10143C0069D8944A93424CD0924A934263D8924AC8
:10144C00934246D0904A93425DD8122B2AD8122B45
:10145C0059D801A252F823F0DF140008B91400087F
:10146C00CB1400080D1500081315000813150008FF
:10147C0013150008131500081315000813150008A0
:10148C001315000813150008131500081315000890
:10149C00131500081315000813150008C1140008D3
:1014AC00D5140008794A934213D02CE03B68DB68D2
:1014BC003B6229E03B68DB6804333B6224E03B6819
:1014CC00DB6808333B621FE03B68DB680C333B6234
:1014DC001AE03B689B68002B02D104233B6213E0AB
:1014EC003B689B68012B05D108233B627B68FA693A
:1014FC001A6109E008233B627B68FA695A6103E0D0
:10150C0000233B6200E000BFBB69FF2B01D87B6866
:10151C0001E07B6804337B61BB69FF2B02D87B6ADB
:10152C009B0002E07B6A083B9B003B617B691A686D
:10153C000F213B6901FA03F3DB431A40396A3B691B
:10154C0001FA03F31A437B691A603B685B6803F08A
:10155C008053002B00F0B1804D4B9B694C4A43F0FB
:10156C00010393614A4B9B6903F00103BB60BB68A9
:10157C00484A7B6A9B08023352F82330FB607B6A33
:10158C0003F003039B000F2202FA03F3DB43FA6818
:10159C001340FB607B68404A934213D07B683F4A00
:1015AC0093420DD07B683E4A934207D07B683D4AFC
:1015BC00934201D1032306E0042304E0022302E05A
:1015CC00012300E000237A6A02F0030292009340A8
:1015DC00FA681343FB602F497B6A9B080233FA6855
:1015EC0041F823203B685B6803F48033002B06D062
:1015FC002D4B1A682C49BB6913430B6006E02A4B30
:10160C001A68BB69DB43284913400B603B685B6875
:10161C0003F40033002B06D0234B5A682249BB69D4
:10162C0013434B6006E0204B5A68BB69DB431E49F1
:10163C0013404B603B685B6803F48013002B06D0AF
:10164C00194B9A681849BB6913438B6006E0164B1B
:10165C009A68BB69DB43144913408B603B685B6839
:10166C0003F40013002B21D00F4BDA680E49BB6931
:10167C001343CB6021E000BF00003210000031109A
:10168C0000002210000021100000121000001110A8
:10169C00001002400000014000080140000C014015
:1016AC000010014000140140000401400B4BDA68AB
:1016BC00BB69DB4309491340CB607B6A01337B6216
:1016CC003B681A687B6A22FA03F3002B7FF48EAE18
:1016DC0000BF00BF2C37BD4680BC704700040140E2
:1016EC0080B485B000AF78600B467B807B689A68CD
:1016FC007B881340002B02D00123FB7301E00023F5
:10170C00FB73FB7B18461437BD4680BC704780B416
:10171C0083B000AF78600B467B8013467B707B7880
:10172C00002B03D07A887B681A6103E07B881A044B
:10173C007B681A6100BF0C37BD4680BC7047000047
:10174C0080B582B000AF0346FB80084B5A69FB881A
:10175C001340002B06D0054AFB885361FB881846C2
:10176C0002F028FC00BF0837BD4680BD00040140D4
:10177C0080B586B000AF78607B68002B01D1012367
:10178C0072E27B681B6803F00103002B00F087807A
:10179C00924B5B6803F00C03042B0CD08F4B5B68F3
:1017AC0003F00C03082B12D18C4B5B6803F48033D1
:1017BC00B3F5803F0BD1894B1B6803F40033002B2E
:1017CC006CD07B685B68002B68D101234CE27B6892
:1017DC005B68B3F5803F06D1804B1B687F4A43F4AE
:1017EC00803313602EE07B685B68002B0CD17B4B45
:1017FC001B687A4A23F480331360784B1B68774A52
:10180C0023F4802313601DE07B685B68B3F5A02F85
:10181C000CD1724B1B68714A43F4802313606F4BDD
:10182C001B686E4A43F4803313600BE06B4B1B68F0
:10183C006A4A23F480331360684B1B68674A23F4AD
:10184C00802313607B685B68002B13D0FEF7C4FF0A
:10185C00386108E0FEF7C0FF02463B69D31A642BDF
:10186C0001D9032300E25D4B1B6803F40033002B0A
:10187C00F0D014E0FEF7B0FF386108E0FEF7ACFFE3
:10188C0002463B69D31A642B01D90323ECE1534B79
:10189C001B6803F40033002BF0D100E000BF7B6821
:1018AC001B6803F00203002B63D04C4B5B6803F006
:1018BC000C03002B0BD0494B5B6803F00C03082B7B
:1018CC001CD1464B5B6803F48033002B16D1434B81
:1018DC001B6803F00203002B05D07B681B69012BEE
:1018EC0001D00123C0E13D4B1B6823F0F8027B685B
:1018FC005B69DB00394913430B603AE07B681B6979
:10190C00002B20D0364B01221A60FEF765FF3861A0
:10191C0008E0FEF761FF02463B69D31A022B01D99E
:10192C000323A1E12D4B1B6803F00203002BF0D025
:10193C002A4B1B6823F0F8027B685B69DB002749A4
:10194C0013430B6015E0264B00221A60FEF744FF90
:10195C00386108E0FEF740FF02463B69D31A022BC0
:10196C0001D9032380E11D4B1B6803F00203002BFC
:10197C00F0D17B681B6803F00803002B3AD07B681E
:10198C009B69002B19D0174B01221A60FEF724FF1C
:10199C00386108E0FEF720FF02463B69D31A022BA0
:1019AC0001D9032360E10D4B5B6A03F00203002BAA
:1019BC00F0D0012000F0D8FA1CE00A4B00221A608B
:1019CC00FEF70AFF38610FE0FEF706FF02463B699F
:1019DC00D31A022B08D9032346E100BF00100240A2
:1019EC000000424280044242924B5B6A03F00203C5
:1019FC00002BE9D17B681B6803F00403002B00F07B
:101A0C00A6800023FB758B4BDB6903F08053002B06
:101A1C000DD1884BDB69874A43F08053D361854BEA
:101A2C00DB6903F08053BB60BB680123FB75824B01
:101A3C001B6803F48073002B18D17F4B1B687E4A04
:101A4C0043F480731360FEF7C7FE386108E0FEF7BD
:101A5C00C3FE02463B69D31A642B01D9032303E16D
:101A6C00754B1B6803F48073002BF0D07B68DB682C
:101A7C00012B06D16F4B1B6A6E4A43F001031362B4
:101A8C002DE07B68DB68002B0CD16A4B1B6A694A22
:101A9C0023F001031362674B1B6A664A23F00403AD
:101AAC0013621CE07B68DB68052B0CD1614B1B6A55
:101ABC00604A43F0040313625E4B1B6A5D4A43F0B9
:101ACC00010313620BE05B4B1B6A5A4A23F00103C0
:101ADC001362584B1B6A574A23F0040313627B684A
:101AEC00DB68002B15D0FEF777FE38610AE0FEF7B5
:101AFC0073FE02463B69D31A41F28832934201D9F4
:101B0C000323B1E04B4B1B6A03F00203002BEED016
:101B1C0014E0FEF761FE38610AE0FEF75DFE024656
:101B2C003B69D31A41F28832934201D903239BE0DB
:101B3C00404B1B6A03F00203002BEED1FB7D012B03
:101B4C0005D13C4BDB693B4A23F08053D3617B6866
:101B5C00DB69002B00F08780364B5B6803F00C03CD
:101B6C00082B61D07B68DB69022B46D1334B0022FA
:101B7C001A60FEF731FE386108E0FEF72DFE0246D2
:101B8C003B69D31A022B01D903236DE0294B1B6847
:101B9C0003F00073002BF0D17B681B6AB3F5803F18
:101BAC0008D1244B5B6823F400327B689B68214985
:101BBC0013434B601F4B5B6823F474127B68196AE8
:101BCC007B685B6A0B431B4913434B601B4B012225
:101BDC001A60FEF701FE386108E0FEF7FDFD0246D3
:101BEC003B69D31A022B01D903233DE0114B1B682F
:101BFC0003F00073002BF0D035E0104B00221A607C
:101C0C00FEF7EAFD386108E0FEF7E6FD02463B69A7
:101C1C00D31A022B01D9032326E0064B1B6803F0D1
:101C2C000073002BF0D11EE07B68DB69012B07D120
:101C3C00012319E000100240007000406000424295
:101C4C000B4B5B68FB60FB6803F480327B681B6AA0
:101C5C009A4206D1FB6803F470127B685B6A9A4265
:101C6C0001D0012300E0002318461837BD4680BD83
:101C7C000010024080B584B000AF786039607B689A
:101C8C00002B01D10123D0E06A4B1B6803F0070342
:101C9C003A689A4210D9674B1B6823F007026549D2
:101CAC003B6813430B60634B1B6803F007033A68F4
:101CBC009A4201D00123B8E07B681B6803F0020351
:101CCC00002B20D07B681B6803F00403002B05D08D
:101CDC00594B5B68584A43F4E06353607B681B685C
:101CEC0003F00803002B05D0534B5B68524A43F4B6
:101CFC0060535360504B5B6823F0F0027B689B6829
:101D0C004D4913434B607B681B6803F00103002BA8
:101D1C0040D07B685B68012B07D1474B1B6803F4F1
:101D2C000033002B15D101237FE07B685B68022B0D
:101D3C0007D1414B1B6803F00073002B09D1012321
:101D4C0073E03D4B1B6803F00203002B01D1012310
:101D5C006BE0394B5B6823F003027B685B683649A8
:101D6C0013434B60FEF738FDF8600AE0FEF734FDD4
:101D7C000246FB68D31A41F28832934201D90323FD
:101D8C0053E02D4B5B6803F00C027B685B689B0097
:101D9C009A42EBD1274B1B6803F007033A689A422F
:101DAC0010D2244B1B6823F0070222493B681343D3
:101DBC000B60204B1B6803F007033A689A4201D072
:101DCC00012332E07B681B6803F00403002B08D06E
:101DDC00194B5B6823F4E0627B68DB68164913439C
:101DEC004B607B681B6803F00803002B09D0124B77
:101DFC005B6823F460527B681B69DB000E4913435C
:101E0C004B6000F021F802460B4B5B681B0903F09A
:101E1C000F030A49CB5C22FA03F3094A1360094BFE
:101E2C001B681846FEF796FC002318461037BD4673
:101E3C0080BD00BF0020024000100240747C0008EE
:101E4C00D80300200000002090B48AB000AF294BCA
:101E5C003C1D0FCB84E80F0040F201233B80002394
:101E6C00FB610023BB6100237B6200237B610023A9
:101E7C003B62214B5B68FB61FB6903F00C03042B99
:101E8C0002D0082B03D02BE01C4B3B622BE0FB69F0
:101E9C009B0C03F00F0328333B4413F8243C7B6169
:101EAC00FB6903F48033002B12D0134B5B685B0C83
:101EBC0003F0010328333B4413F8283CBB617B69D6
:101ECC000E4A03FB02F2BB69B2FBF3F37B6204E044
:101EDC007B690B4A02FB03F37B627B6A3B6202E089
:101EEC00064B3B6200BF3B6A18462837BD4690BC88
:101EFC00704700BFE86C00080010024000127A0026
:101F0C0000093D0080B400AF024B1B681846BD466B
:101F1C0080BC7047D803002080B500AFFFF7F2FFFC
:101F2C000246054B5B681B0A03F007030349CB5CB5
:101F3C0022FA03F3184680BD00100240847C00088E
:101F4C0080B500AFFFF7DEFF0246054B5B68DB0A8E
:101F5C0003F007030349CB5C22FA03F3184680BD58
:101F6C0000100240847C000880B485B000AF78601B
:101F7C000A4B1B680A4AA2FB03235B0A7A6802FB22
:101F8C0003F3FB6000BFFB685A1EFA60002BF9D10B
:101F9C0000BF00BF1437BD4680BC7047D80300207B
:101FAC00D34D621080B582B000AF78607B68002B97
:101FBC0001D1012341E07B6893F83D30DBB2002B6B
:101FCC0006D17B68002283F83C20786804F038F84E
:101FDC007B68022283F83D207B681A687B68043397
:101FEC001946104600F0AAFA7B68012283F84620B5
:101FFC007B68012283F83E207B68012283F83F2016
:10200C007B68012283F840207B68012283F8412001
:10201C007B68012283F842207B68012283F84320ED
:10202C007B68012283F844207B68012283F84520D9
:10203C007B68012283F83D20002318460837BD46F3
:10204C0080BD80B582B000AF78607B68002B01D179
:10205C00012341E07B6893F83D30DBB2002B06D1C5
:10206C007B68002283F83C20786800F039F87B68A4
:10207C00022283F83D207B681A687B68043319467A
:10208C00104600F05BFA7B68012283F846207B68DF
:10209C00012283F83E207B68012283F83F207B6875
:1020AC00012283F840207B68012283F841207B6861
:1020BC00012283F842207B68012283F843207B684D
:1020CC00012283F844207B68012283F845207B6839
:1020DC00012283F83D20002318460837BD4680BDF9
:1020EC0080B483B000AF786000BF0C37BD4680BCB5
:1020FC007047000080B584B000AF786039603B68F1
:10210C00002B09D17B6893F83E30DBB2012B14BF56
:10211C0001230023DBB222E03B68042B09D17B684E
:10212C0093F83F30DBB2012B14BF01230023DBB249
:10213C0015E03B68082B09D17B6893F84030DBB283
:10214C00012B14BF01230023DBB208E07B6893F85A
:10215C004130DBB2012B14BF01230023DBB2002B77
:10216C0001D001235EE03B68002B04D17B68022286
:10217C0083F83E2013E03B68042B04D17B680222D9
:10218C0083F83F200BE03B68082B04D17B680222CC
:10219C0083F8402003E07B68022283F841207B68AF
:1021AC001B6801223968184600F048FC7B681B68E4
:1021BC001E4A934207D17B681B685A6C7B681B686C
:1021CC0042F400425A647B681B68184A93420ED052
:1021DC007B681B68B3F1804F09D07B681B68144A7D
:1021EC00934204D07B681B68124A934211D17B68DE
:1021FC001B689B6803F00703FB60FB68062B10D081
:10220C007B681B681A687B681B6842F001021A60C5
:10221C0007E07B681B681A687B681B6842F0010248
:10222C001A60002318461037BD4680BD002C0140B3
:10223C00000400400008004080B584B000AFF86096
:10224C00B9607A60FB6893F83C30012B01D1022312
:10225C00ACE0FB68012283F83C207B680C2B00F27D
:10226C009F8001A252F823F0A9220008AD23000898
:10227C00AD230008AD230008E9220008AD230008B7
:10228C00AD230008AD2300082B230008AD23000864
:10229C00AD230008AD2300086B230008FB681B6806
:1022AC00B968184600F0ACF9FB681B689A69FB68C2
:1022BC001B6842F008029A61FB681B689A69FB680C
:1022CC001B6822F004029A61FB681B689969BB6861
:1022DC001A69FB681B680A439A6162E0FB681B6819
:1022EC00B968184600F0F2F9FB681B689A69FB683C
:1022FC001B6842F400629A61FB681B689A69FB6870
:10230C001B6822F480629A61FB681B689969BB6840
:10231C001B691A02FB681B680A439A6141E0FB685F
:10232C001B68B968184600F03BFAFB681B68DA6951
:10233C00FB681B6842F00802DA61FB681B68DA690B
:10234C00FB681B6822F00402DA61FB681B68D96920
:10235C00BB681A69FB681B680A43DA6121E0FB68F9
:10236C001B68B968184600F085FAFB681B68DA69C7
:10237C00FB681B6842F40062DA61FB681B68DA696F
:10238C00FB681B6822F48062DA61FB681B68D96900
:10239C00BB681B691A02FB681B680A43DA6100E020
:1023AC0000BFFB68002283F83C200023184610373E
:1023BC00BD4680BD80B584B000AF786039607B6865
:1023CC0093F83C30012B01D10223B3E07B6801224E
:1023DC0083F83C207B68022283F83D207B681B68D5
:1023EC009B68FB60FB6823F07703FB60FB6823F4BE
:1023FC007F43FB607B681B68FA689A603B681B68CC
:10240C00B3F5005F3ED0B3F5005F00F28780B3F503
:10241C00805F00F08580B3F5805F7FD8702B1AD079
:10242C00702B7BD8602B50D0602B77D8502B3CD0A6
:10243C00502B73D8402B58D0402B6FD8302B64D0F6
:10244C00302B6BD8202B60D0202B67D8002B5CD086
:10245C00102B5AD062E07B6818683B6899683B681F
:10246C005A683B68DB6800F0CAFA7B681B689B689B
:10247C00FB60FB6843F07703FB607B681B68FA68C2
:10248C009A604EE07B6818683B6899683B685A68AC
:10249C003B68DB6800F0B3FA7B681B689A687B6862
:1024AC001B6842F480429A603BE07B6818683B688A
:1024BC0059683B68DB681A4600F02AFA7B681B688F
:1024CC005021184600F081FA2BE07B6818683B68B5
:1024DC0059683B68DB681A4600F048FA7B681B6851
:1024EC006021184600F071FA1BE07B6818683B68A5
:1024FC0059683B68DB681A4600F00AFA7B681B686F
:10250C004021184600F061FA0BE07B681A683B68C2
:10251C001B681946104600F058FA02E000BF00E0B4
:10252C0000BF7B68012283F83D207B68002283F882
:10253C003C20002318461037BD4680BD80B485B0C2
:10254C0000AF786039607B681B68FB607B68294A48
:10255C0093420BD07B68B3F1804F07D07B68264A3F
:10256C00934203D07B68254A934208D1FB6823F041
:10257C007003FB603B685B68FA681343FB607B6825
:10258C001C4A93420BD07B68B3F1804F07D07B6819
:10259C00194A934203D07B68184A934208D1FB68CE
:1025AC0023F44073FB603B68DB68FA681343FB6001
:1025BC00FB6823F080023B685B691343FB607B681C
:1025CC00FA681A603B689A687B68DA623B681A683A
:1025DC007B689A627B68074A934203D13B681A690D
:1025EC007B681A637B6801225A6100BF1437BD46B1
:1025FC0080BC7047002C01400004004000080040E3
:10260C0080B487B000AF786039607B681B6A23F0B8
:10261C0001027B681A627B681B6A7B617B685B6862
:10262C003B617B689B69FB60FB6823F07003FB607C
:10263C00FB6823F00303FB603B681B68FA681343D9
:10264C00FB607B6923F002037B613B689B687A69C2
:10265C0013437B617B681C4A93420CD17B6923F04A
:10266C0008037B613B68DB687A6913437B617B6998
:10267C0023F004037B617B68134A934211D13B69BD
:10268C0023F480733B613B6923F400733B613B682B
:10269C005B693A6913433B613B689B693A69134335
:1026AC003B617B683A695A607B68FA689A613B685F
:1026BC005A687B685A637B687A691A6200BF1C3758
:1026CC00BD4680BC704700BF002C014080B487B071
:1026DC0000AF786039607B681B6A23F010027B685E
:1026EC001A627B681B6A7B617B685B683B617B68F9
:1026FC009B69FB60FB6823F4E043FB60FB6823F4FD
:10270C004073FB603B681B681B02FA681343FB6059
:10271C007B6923F020037B613B689B681B017A6912
:10272C0013437B617B681D4A93420DD17B6923F077
:10273C0080037B613B68DB681B017A6913437B6117
:10274C007B6923F040037B617B68144A934213D16D
:10275C003B6923F480633B613B6923F400633B6179
:10276C003B685B699B003A6913433B613B689B691F
:10277C009B003A6913433B617B683A695A607B68FA
:10278C00FA689A613B685A687B689A637B687A69D5
:10279C001A6200BF1C37BD4680BC7047002C01403C
:1027AC0080B487B000AF786039607B681B6A23F413
:1027BC0080727B681A627B681B6A7B617B685B68D2
:1027CC003B617B68DB69FB60FB6823F07003FB609B
:1027DC00FB6823F00303FB603B681B68FA68134338
:1027EC00FB607B6923F400737B613B689B681B0275
:1027FC007A6913437B617B681D4A93420DD17B69D7
:10280C0023F400637B613B68DB681B027A6913432A
:10281C007B617B6923F480637B617B68144A934200
:10282C0013D13B6923F480533B613B6923F4005380
:10283C003B613B685B691B013A6913433B613B6835
:10284C009B691B013A6913433B617B683A695A6087
:10285C007B68FA68DA613B685A687B68DA637B6884
:10286C007A691A6200BF1C37BD4680BC704700BF36
:10287C00002C014080B487B000AF786039607B6871
:10288C001B6A23F480527B681A627B681B6A3B616B
:10289C007B685B687B617B68DB69FB60FB6823F4AE
:1028AC00E043FB60FB6823F44073FB603B681B68F0
:1028BC001B02FA681343FB603B6923F400533B6132
:1028CC003B689B681B033A6913433B617B680F4A67
:1028DC00934209D17B6923F480437B613B685B693C
:1028EC009B017A6913437B617B687A695A607B68C8
:1028FC00FA68DA613B685A687B681A647B683A69E3
:10290C001A6200BF1C37BD4680BC7047002C0140CA
:10291C0080B487B000AFF860B9607A60FB681B6A5E
:10292C007B61FB681B6A23F00102FB681A62FB687F
:10293C009B693B613B6923F0F0033B617B681B01A6
:10294C003A6913433B617B6923F00A037B617A6923
:10295C00BB6813437B61FB683A699A61FB687A69CF
:10296C001A6200BF1C37BD4680BC704780B487B06C
:10297C0000AFF860B9607A60FB681B6A23F0100244
:10298C00FB681A62FB689B697B61FB681B6A3B6195
:10299C007B6923F470437B617B681B037A69134367
:1029AC007B613B6923F0A0033B61BB681B013A6967
:1029BC0013433B61FB687A699A61FB683A691A6256
:1029CC0000BF1C37BD4680BC704780B485B000AFDB
:1029DC00786039607B689B68FB60FB6823F0700350
:1029EC00FB603A68FB68134343F00703FB607B68AA
:1029FC00FA689A6000BF1437BD4680BC704780B43B
:102A0C0087B000AFF860B9607A603B60FB689B6888
:102A1C007B617B6923F47F437B613B681A027B6893
:102A2C001A43BB6813437A6913437B61FB687A6969
:102A3C009A6000BF1C37BD4680BC704780B487B01D
:102A4C0000AFF860B9607A60BB6803F01F03012225
:102A5C0002FA03F37B61FB681A6A7B69DB431A4059
:102A6C00FB681A62FB681A6ABB6803F01F0379687B
:102A7C0001FA03F31A43FB681A6200BF1C37BD4608
:102A8C0080BC704780B485B000AF786039607B68DB
:102A9C0093F83C30012B01D1022346E07B680122E4
:102AAC0083F83C207B68022283F83D207B681B68FE
:102ABC005B68FB607B681B689B68BB60FB6823F0F2
:102ACC007003FB603B681B68FA681343FB607B6810
:102ADC001B68FA685A607B681B68164A93420ED0D2
:102AEC007B681B68B3F1804F09D07B681B68124A66
:102AFC00934204D07B681B68104A93420CD1BB688C
:102B0C0023F08003BB603B685B68BA681343BB600F
:102B1C007B681B68BA689A607B68012283F83D2049
:102B2C007B68002283F83C20002318461437BD46EE
:102B3C0080BC7047002C014000040040000800409D
:102B4C0080B582B000AF78607B68002B01D1012387
:102B5C003FE07B6893F83D30DBB2002B06D17B68FD
:102B6C00002283F83C20786803F036FB7B68242233
:102B7C0083F83D207B681B68DA687B681B6822F44D
:102B8C000052DA60786800F06FFE7B681B681A6987
:102B9C007B681B6822F490421A617B681B685A6937
:102BAC007B681B6822F02A025A617B681B68DA6812
:102BBC007B681B6842F40052DA607B6800221A645E
:102BCC007B68202283F83D207B68202283F83E20FE
:102BDC00002318460837BD4680BD80B58AB002AFC9
:102BEC00F860B9603B601346FB8000237B61FB6897
:102BFC0093F83D30DBB2202B7CD1BB68002B02D08C
:102C0C00FB88002B01D1012375E0FB6893F83C3065
:102C1C00012B01D102236EE0FB68012283F83C20DA
:102C2C00FB6800221A64FB68212283F83D20FDF723
:102C3C00D3FD7861FB68FA889A84FB68FA88DA8499
:102C4C00FB689B68B3F5805F08D1FB681B69002BA0
:102C5C0004D10023FB61BB68BB6103E0BB68FB6173
:102C6C000023BB61FB68002283F83C202AE03B6810
:102C7C0000937B6900228021F86800F0A8FB0346D2
:102C8C00002B01D0032336E0FB69002B0BD1BB6971
:102C9C001B881A46FB681B68C2F308025A60BB69A2
:102CAC000233BB6107E0FB691A78FB681B685A604A
:102CBC00FB690133FB61FB68DB8C9BB2013B9AB275
:102CCC00FB68DA84FB68DB8C9BB2002BCFD13B68B2
:102CDC0000937B6900224021F86800F078FB0346E2
:102CEC00002B01D0032306E0FB68202283F83D2053
:102CFC00002300E0022318462037BD4680BD80B576
:102D0C0084B000AFF860B9601346FB80FB6893F8A1
:102D1C003E30DBB2202B1DD1BB68002B02D0FB88D0
:102D2C00002B01D1012316E0FB6893F83C30012BFA
:102D3C0001D102230FE0FB68012283F83C20FB68E1
:102D4C0000221A63FB881A46B968F86800F089FB00
:102D5C00034600E0022318461037BD4680BD80B5FF
:102D6C0084B000AFF860B9601346FB80FB6893F841
:102D7C003E30DBB2202B1DD1BB68002B02D0FB8870
:102D8C00002B01D1012316E0FB6893F83C30012B9A
:102D9C0001D102230FE0FB68012283F83C20FB6881
:102DAC0000221A63FB881A46B968F86800F092FB97
:102DBC00034600E0022318461037BD4680BD80B59F
:102DCC0082B000AF78607B681B68DA687B681B6830
:102DDC0022F4F072DA607B681B685A697B681B68A6
:102DEC0022F001025A617B681B6B012B07D17B68B7
:102DFC001B68DA687B681B6822F01002DA607B685B
:102E0C001B685B6903F08003002B24D07B681B6874
:102E1C005A697B681B6822F080025A617B685B6B85
:102E2C00002B18D07B685B6B00225A637B685B6B52
:102E3C001846FDF7E2FE0346002B0CD07B685B6B5B
:102E4C001846FEF791F80346202B04D17B6810221C
:102E5C001A64032340E07B681B685B6903F0400342
:102E6C00002B24D07B681B685A697B681B6822F096
:102E7C0040025A617B689B6B002B18D07B689B6B64
:102E8C0000225A637B689B6B1846FDF7B6FE03461F
:102E9C00002B0CD07B689B6B1846FEF765F803463D
:102EAC00202B04D17B6810221A64032314E07B6866
:102EBC000022DA847B680022DA857B6800221A649F
:102ECC007B68202283F83E207B68202283F83D20FB
:102EDC007B6800221A63002318460837BD4680BD64
:102EEC0080B58AB000AF78607B681B681B687B621A
:102EFC007B681B68DB683B627B681B685B69FB61FA
:102F0C000023BB6100237B617B6A03F00F03BB6171
:102F1C00BB69002B0DD17B6A03F02003002B08D07A
:102F2C003B6A03F02003002B03D0786800F0F2FB1F
:102F3C007BE1BB69002B00F0B180FB6903F001035E
:102F4C00002B05D13B6A03F49073002B00F0A68094
:102F5C007B6A03F00103002B0AD03B6A03F48073F5
:102F6C00002B05D07B681B6C43F001027B681A6454
:102F7C007B6A03F00403002B0AD0FB6903F0010306
:102F8C00002B05D07B681B6C43F002027B681A6433
:102F9C007B6A03F00203002B0AD0FB6903F00103E8
:102FAC00002B05D07B681B6C43F004027B681A6411
:102FBC007B6A03F00803002B0FD03B6A03F020035D
:102FCC00002B04D1FB6903F00103002B05D07B68B7
:102FDC001B6C43F008027B681A647B681B6C002B2B
:102FEC0000F01E817B6A03F02003002B07D03B6AA4
:102FFC0003F02003002B02D0786800F08BFB7B6879
:10300C001B685B6903F04003002B14BF01230023F2
:10301C00DBB27B617B681B6C03F00803002B02D1D5
:10302C007B69002B31D0786800F0CDFA7B681B6887
:10303C005B6903F04003002B23D07B681B685A6943
:10304C007B681B6822F040025A617B689B6B002BEB
:10305C0013D07B689B6B764A5A637B689B6B1846D4
:10306C00FDF706FE0346002B16D07B689B6B5B6B53
:10307C007A68926B104698470EE0786800F07EFFF5
:10308C000AE0786800F07AFF06E0786800F076FFD6
:10309C007B6800221A64C3E000BFC1E07B681B6B35
:1030AC00012B40F0A1807B6A03F01003002B00F091
:1030BC009B803B6A03F01003002B00F095800023EB
:1030CC00FB607B681B681B68FB607B681B685B682C
:1030DC00FB60FB687B681B685B6903F04003002B9B
:1030EC004ED07B689B6B1B685B683B823B8A002BDA
:1030FC0000F098807B689B8D3A8A9A4280F092808F
:10310C007B683A8ADA857B689B6B9B69202B2BD07A
:10311C007B681B68DA687B681B6822F48072DA6053
:10312C007B681B685A697B681B6822F001025A6134
:10313C007B681B685A697B681B6822F040025A61E5
:10314C007B68202283F83E207B6800221A637B6810
:10315C001B68DA687B681B6822F01002DA607B68F7
:10316C009B6B1846FDF749FD7B689A8D7B68DB8D60
:10317C009BB2D31A9BB21946786800F06DF851E0F7
:10318C007B689A8D7B68DB8D9BB2D31A7B827B68C4
:10319C00DB8D9BB2002B47D07B8A002B44D07B6805
:1031AC001B68DA687B681B6822F49072DA607B68B3
:1031BC001B685A697B681B6822F001025A617B68A4
:1031CC00202283F83E207B6800221A637B681B68F0
:1031DC00DA687B681B6822F01002DA607B8A194679
:1031EC00786800F039F81FE07B6A03F08003002B4D
:1031FC0008D03B6A03F08003002B03D0786800F002
:10320C0022FA12E07B6A03F04003002B0DD03B6ADC
:10321C0003F04003002B08D0786800F063FA04E058
:10322C0000BF02E000BF00E000BF2837BD4680BDF4
:10323C002B36000880B483B000AF786000BF0C3729
:10324C00BD4680BC704780B483B000AF786000BFCF
:10325C000C37BD4680BC704780B483B000AF78603B
:10326C000B467B8000BF0C37BD4680BC704780B5D9
:10327C0084B000AF78607B685B6AFB607B681B681E
:10328C001B6803F02003002B2AD1FB680022DA858F
:10329C00FB681B68DA68FB681B6822F48072DA60D2
:1032AC00FB681B685A69FB681B6822F001025A61B3
:1032BC00FB681B685A69FB681B6822F040025A6164
:1032CC00FB68202283F83E20FB681B6B012B07D187
:1032DC00FB681B68DA68FB681B6822F01002DA6076
:1032EC00FB681B6B012B06D1FB689B8D1946F8689C
:1032FC00FFF7B2FF02E0F86800F04AFE00BF10379B
:10330C00BD4680BD80B584B000AF78607B685B6AD9
:10331C00FB60FB681B6B012B08D1FB689B8D5B086A
:10332C009BB21946F868FFF797FF02E0F868FFF7C1
:10333C008AFF00BF1037BD4680BD80B584B000AF9A
:10334C0078600023FB607B685B6ABB60BB681B68B2
:10335C005B6903F08003002B14BF01230023DBB255
:10336C00FB60BB6893F83D30DBB2212B08D1FB68C6
:10337C00002B05D0BB680022DA84B86800F00EF987
:10338C00BB681B685B6903F04003002B14BF01236F
:10339C000023DBB2FB60BB6893F83E30DBB2222B20
:1033AC0008D1FB68002B05D0BB680022DA85B86811
:1033BC0000F009F9BB681B6C43F01002BB681A647F
:1033CC00B86800F0DBFD00BF1037BD4680BD80B58E
:1033DC0084B000AFF860B9603B601346FB712CE021
:1033EC00BB69B3F1FF3F28D0BB69002B07D0FDF7B9
:1033FC00F3F902463B68D31ABA699A421DD2FB68AC
:10340C001B68DA68FB681B6822F4D072DA60FB6810
:10341C001B685A69FB681B6822F001025A61FB6841
:10342C00202283F83D20FB68202283F83E20FB6895
:10343C00002283F83C2003230FE0FB681B681A680A
:10344C00BB681340BA689A420CBF01230023DBB25D
:10345C001A46FB799A42C3D0002318461037BD4652
:10346C0080BD80B485B000AFF860B9601346FB80B6
:10347C00FB68BA689A62FB68FA889A85FB68FA88D6
:10348C00DA85FB6800221A64FB68222283F83E204E
:10349C00FB68002283F83C20FB681B68DA68FB6839
:1034AC001B6842F48072DA60FB681B685A69FB681F
:1034BC001B6842F001025A61FB681B68DA68FB6802
:1034CC001B6842F02002DA60002318461437BD4610
:1034DC0080BC704780B586B000AFF860B960134609
:1034EC00FB80BA68FB689A62FB68FA889A85FB686D
:1034FC0000221A64FB68222283F83E20FB689B6B37
:10350C00234A9A62FB689B6B224ADA62FB689B6BCC
:10351C00214A1A63FB689B6B00225A6307F108036C
:10352C007B61FB68986BFB681B68043319467B69ED
:10353C001A68FB88FDF702FB00233B61FB681B68E4
:10354C001B683B61FB681B685B683B613B69FB6804
:10355C00002283F83C20FB681B68DA68FB681B6858
:10356C0042F48072DA60FB681B685A69FB681B685E
:10357C0042F001025A61FB681B685A69FB681B68C0
:10358C0042F040025A61002318461837BD4680BDF0
:10359C007B320008113300084733000880B483B035
:1035AC0000AF78607B681B68DA687B681B6822F068
:1035BC00C002DA607B68202283F83D2000BF0C3704
:1035CC00BD4680BC704780B483B000AF78607B6828
:1035DC001B68DA687B681B6822F49072DA607B687F
:1035EC001B685A697B681B6822F001025A617B6870
:1035FC001B6B012B07D17B681B68DA687B681B6827
:10360C0022F01002DA607B68202283F83E207B686F
:10361C0000221A6300BF0C37BD4680BC704780B5D2
:10362C0084B000AF78607B685B6AFB60FB6800224B
:10363C00DA85FB680022DA84F86800F09FFC00BF92
:10364C001037BD4680BD80B485B000AF78607B6814
:10365C0093F83D30DBB2212B3ED17B689B68B3F5F0
:10366C00805F14D17B681B69002B10D17B681B6AAF
:10367C00FB60FB681B881A467B681B68C2F3080258
:10368C005A607B681B6A9A1C7B681A6208E07B682C
:10369C001B6A591C7A6811621A787B681B685A601D
:1036AC007B68DB8C9BB2013B9BB27A681946D18458
:1036BC00002B0FD17B681B68DA687B681B6822F0D3
:1036CC008002DA607B681B68DA687B681B6842F0F2
:1036DC004002DA60002300E0022318461437BD468E
:1036EC0080BC704780B582B000AF78607B681B6887
:1036FC00DA687B681B6822F04002DA607B68202263
:10370C0083F83D207868FFF795FD002318460837AD
:10371C00BD4680BD80B586B000AF78607B6893F8FD
:10372C003E30DBB2222B40F099807B689B68B3F56E
:10373C00805F17D17B681B69002B13D100237B6141
:10374C007B689B6A3B617B681B685B689BB2C3F3BD
:10375C0008039AB23B691A807B689B6A9A1C7B6847
:10376C009A6226E07B689B6A7B6100233B617B68E5
:10377C009B68B3F5805F07D07B689B68002B0AD1F0
:10378C007B681B69002B06D17B681B685B68DAB20F
:10379C007B691A7008E07B681B685B68DBB203F01E
:1037AC007F03DAB27B691A707B689B6A5A1C7B6850
:1037BC009A627B68DB8D9BB2013B9BB27A6819469F
:1037CC00D185002B48D17B681B68DA687B681B6845
:1037DC0022F02002DA607B681B68DA687B681B6861
:1037EC0022F48072DA607B681B685A697B681B68FC
:1037FC0022F001025A617B68202283F83E207B680C
:10380C001B6B012B23D17B6800221A637B681B681E
:10381C00DA687B681B6822F01002DA607B681B6830
:10382C001B6803F01003102B0AD10023FB607B688C
:10383C001B681B68FB607B681B685B68FB60FB6834
:10384C007B689B8D19467868FFF706FD02E0786867
:10385C0000F09EFB002302E0002300E00223184648
:10386C001837BD4680BD000080B584B000AF7860CD
:10387C007B681B681B6923F440517B68DA687B68A2
:10388C001B680A431A617B689A687B681B691A4338
:10389C007B685B691343BB607B681B68DB6823F444
:1038AC00B05323F00C037A681268B9680B43D360E9
:1038BC007B681B685B6923F440717B689A697B6841
:1038CC001B680A435A617B681B682C4A934203D1DC
:1038DC00FEF736FBF86002E0FEF71EFBF860FA68B4
:1038EC0013469B0013449A001A447B685B689B0048
:1038FC00B2FBF3F3224AA2FB03235B091901FA681A
:10390C0013469B0013449A001A447B685B689B0027
:10391C00B2FBF3F21A4BA3FB02035B09642000FB1E
:10392C0003F3D31A1B013233154AA2FB03235B09A1
:10393C0003F0F0031944FA6813469B0013449A00F1
:10394C001A447B685B689B00B2FBF3F20C4BA3FB45
:10395C0002035B09642000FB03F3D31A1B0132330F
:10396C00074AA2FB03235B0903F00F027B681B6869
:10397C000A449A6000BF1037BD4680BD0038014034
:10398C001F85EB5180B485B000AF0346FB7100235B
:10399C00FB730DE00D4BD3F80C21FB7B13441B7810
:1039AC00FA799A4201D1FB7B0AE0FB7B0133FB7372
:1039BC00FB7B9AB2054BB3F80A319A42EAD1FB7BF6
:1039CC0018461437BD4680BC704700BF600C002001
:1039DC0080B582B000AF0023BB7100237B711FE068
:1039EC0000237B714FF480711148FDF779FE03467B
:1039FC00FB7112E07B7901337B714FF480710C48C1
:103A0C00FDF76EFE03461A46FB79934200D007E0A1
:103A1C007B790A2B01D10123BB717B790A2BE9D16C
:103A2C00BB79012BDCD1FB7918460837BD4680BD2C
:103A3C000008014080B500AF4FF480710548FDF7D8
:103A4C004FFE0346012B01D1012300E00023184651
:103A5C0080BD00BF0008014080B500AF084B9B78CB
:103A6C00002B0BD0064B5B68632B05D8044B5B68B3
:103A7C000133034A536001E000F082F800BF80BDBF
:103A8C00600C002090B583B000AF394B5B78022BF3
:103A9C0056D0022B68DC002B02D0012B19D063E02E
:103AAC00334B1A7A324B93F808319A420ED1304B81
:103ABC0001225A702E4B00225A602D4B01229A7013
:103ACC0001222C492C48FFF71AF94DE000F058F868
:103ADC004AE0274B5B7A1846FFF754FF0346FB710D
:103AEC00FB799AB2224BB3F80A319A4225D0204B7B
:103AFC0002225A701E4BD3F81021FB7913441A780A
:103B0C001B4B5B789A4211D0194BD3F81021FB79DF
:103B1C0013441B789AB2164B5B789BB2D31A9BB2A8
:103B2C001A4616491448FFF71AF91DE0104B0022EB
:103B3C009A700F4B01221A7016E000F021F813E076
:103B4C000B4BD3F810410A4B5B7A1846FFF71AFF60
:103B5C00034623441A78064B5A70054B00229A7080
:103B6C00034B01221A7000BF00BF0C37BD4690BD3D
:103B7C00600C0020690C0020300F00206A0C002023
:103B8C0080B500AF0A4B00221A70094B00225A7004
:103B9C00074B00229A70064B00225A600548FFF72B
:103BAC000EF9012204490348FFF7A9F800BF80BDB4
:103BBC00600C0020300F0020680C002080B582B013
:103BCC0000AF78600B467B80FFF734FF0346002B79
:103BDC0005D07A88642379680348FEF7FEFF00BF9E
:103BEC000837BD4680BD00BF300F002080B400AF49
:103BFC00024B1846BD4680BC704700BF680C0020C5
:103C0C0080B400AF064B1B78002B04D0044B002271
:103C1C001A70012300E000231846BD4680BC704793
:103C2C00600C002080B584B000AFB9607A601A4691
:103C3C000346FB731346BB810A4AFB7B82F80831AF
:103C4C00084ABB89A2F80A31064ABB68C2F80C3193
:103C5C00044A7B68C2F81031FFF792FF00BF10379F
:103C6C00BD4680BD600C002080B400AF034B012228
:103C7C001A7000BFBD4680BC704700BF740D002099
:103C8C0080B582B000AF0023BB7100237B711DE0B7
:103C9C0000237B7108211148FDF722FD0346FB71BF
:103CAC0011E07B7901337B7108210C48FDF718FD7D
:103CBC0003461A46FB79934200D007E07B790A2B26
:103CCC0001D10123BB717B790A2BEAD1BB79012B82
:103CDC00DED1FB7918460837BD4680BD000801408F
:103CEC0080B483B000AF064B1B78FB71044B0022F1
:103CFC001A70FB7918460C37BD4680BC704700BF64
:103D0C00740D002080B487B000AF78600B467B80C8
:103D1C007B889B08BB82BB8A9B009BB27A88D31A98
:103D2C007B820023FB600023FB8227E0FB8A03F1EC
:103D3C00006303F540431B68FB60FB68190EFB8AAC
:103D4C007A681344CAB21A70FB68190CFB8A0133E7
:103D5C007A681344CAB21A70FB68190AFB8A0233D8
:103D6C007A681344CAB21A70FB8A03337A68134414
:103D7C00FA68D2B21A70FB8A0433FB82FA8ABB8AC5
:103D8C009B009A42D2D17B8A002B3ED0FB8A03F156
:103D9C00006303F540431B68FB607B8A032B17D140
:103DAC00FB68190EFB8A7A681344CAB21A70FB6856
:103DBC00190CFB8A01337A681344CAB21A70FB6877
:103DCC00190AFB8A02337A681344CAB21A701CE0CF
:103DDC007B8A022B0FD1FB68190EFB8A7A6813447D
:103DEC00CAB21A70FB68190CFB8A01337A68134447
:103DFC00CAB21A7009E07B8A012B06D1FB68190E36
:103E0C00FB8A7A681344CAB21A7000BF1C37BD46CD
:103E1C0080BC70472DE9B04386B000AF78600B468C
:103E2C007B804E4B00221A604C4B4D4A9A604B4B98
:103E3C000122DA600023BB60FDF73EF907F10803AD
:103E4C0019464648FDF720FA7B889B08FB81FB89C5
:103E5C009B009BB27A88D31ABB810023FB822AE099
:103E6C00FB8A03F1006303F540431846FB8A7A682A
:103E7C0013441B781A06FB8A013379680B441B78B0
:103E8C001B041A43FB8A023379680B441B781B0210
:103E9C001343FA8A033279680A44127813430022D6
:103EAC009846914642464B4601460220FDF794F84F
:103EBC00FB8A0433FB82FA8AFB899B009A42CFD19E
:103ECC00BB89002B42D000233B61BB89032B14D14F
:103EDC00FB8A7A6813441B781A06FB8A01337968CB
:103EEC000B441B781B041A43FB8A023379680B447E
:103EFC001B781B0213433B6119E0BB89022B0DD1CC
:103F0C00FB8A7A6813441B781A06FB8A013379689A
:103F1C000B441B781B0413433B6108E0BB89012B4A
:103F2C0005D1FB8A7A6813441B781B063B61FB8A1C
:103F3C0003F1006303F5404319463B6900221C461C
:103F4C00154622462B460220FDF746F8FDF7DAF817
:103F5C00BB6818461837BD46BDE8B083780D002005
:103F6C0000C0000880B500AF00F032F8FFF774FD18
:103F7C0000F068FA00F076FE00BF80BD80B483B01C
:103F8C0000AF786000BF0C37BD4680BC70470000A6
:103F9C0080B582B000AF78607B681B68044A93429E
:103FAC0001D1FFF76FFD00BF0837BD4680BD00BFD4
:103FBC000038014080B582B000AF0346FB80FB881F
:103FCC00082B01D1FFF750FE00BF0837BD4680BD5E
:103FDC0080B483B000AF3D4B5B78002B70D00023D6
:103FEC00FB713A4B1B78022B18D0022B31DC002BC7
:103FFC0029D0012B2DD1354B9B68002B04D0334B92
:10400C009B68013B314A9360304B9B68304AA2FB62
:10401C0003231B0ADBB20233FB711AE02B4B9B68A8
:10402C0049F26F42934204D8284B9B680133274ACC
:10403C009360264B9B68264AA2FB0323DB09DBB269
:10404C000233FB7105E0214B224A9A601523FB7168
:10405C0000BF1E4B1B790133DAB21C4B1A711B4B80
:10406C001B79FA799A422BD8184B00221A71174BEC
:10407C00DB78002B11D0154B9B781A46164BDB685E
:10408C009A4206D2114B9B780133DAB20F4B9A70DD
:10409C0011E00E4B0022DA700DE00C4B9B78022BDA
:1040AC0006D90A4B9B78013BDAB2084B9A7002E0B6
:1040BC00064B0122DA70054B9A78074B1B689A6302
:1040CC0000BF0C37BD4680BC704700BF880D002078
:1040DC00D34D621020480100580E002080B483B0EC
:1040EC0000AF0346FB71044AFB79137000BF0C3719
:1040FC00BD4680BC704700BF880D002080B483B0E3
:10410C0000AF0346FB71FB79002B03D1054B1B68F9
:10411C0000229A63044AFB79537000BF0C37BD46EA
:10412C0080BC7047580E0020880D002080B500AF71
:10413C0004210248FDF7DEFF00BF80BD580E0020B1
:10414C0080B400AF024B1846BD4680BC704700BF20
:10415C00940D002080B483B000AF03460A46FB7177
:10416C001346BB71BB79002B07D0BB79082B04D845
:10417C00BB79013B0349FA79CA5400BF0C37BD46E1
:10418C0080BC7047940D002090B583B000AF786070
:10419C00934B93F900301A4613461B019B1A03F2FA
:1041AC008B131846FCF786F804467B681B688D4910
:1041BC001846FCF7D3F8034619462046FBF7C6FF12
:1041CC0003461A46884B1C681046FCF78DFA0346CA
:1041DC006363834B93F901301A4613461B019B1AF8
:1041EC0003F28B131846FCF765F804467B6804331E
:1041FC001B6819467D48FBF7A7FF0346794918460B
:10420C00FCF7ACF8034619462046FBF79FFF034624
:10421C001A46754B1C681046FCF766FA0346A363F6
:10422C006F4B93F902301A4613461B019B1A03F28B
:10423C008B131846FCF73EF804467B6808331B6862
:10424C0068491846FCF78AF8034619462046FBF7DE
:10425C007DFF03461A46644B1C681046FCF744FA73
:10426C000346E3635E4B93F903301A4613461B0176
:10427C009B1A03F28B131846FCF71CF804467B6858
:10428C000C331B6819465948FBF75EFF034655492A
:10429C001846FCF763F8034619462046FBF756FF11
:1042AC0003461A46504B1C681046FCF71DFA034691
:1042BC0023644B4B93F904301A4613461B019B1A8B
:1042CC0003F28B131846FBF7F5FF04467B6810339B
:1042DC001B6844491846FCF741F80346194620462A
:1042EC00FBF734FF03461A46414B1C681046FCF79B
:1042FC00FBF9034663633A4B93F905301A461346B0
:10430C001B019B1A03F28B131846FBF7D3FF0446D1
:10431C007B6814331B6819463448FBF715FF0346BA
:10432C0030491846FCF71AF8034619462046FBF7A5
:10433C000DFF03461A462E4B1C681046FCF7D4F9A9
:10434C000346A363264B93F906301A4613461B010A
:10435C009B1A03F28B131846FBF7ACFF04467B68E1
:10436C0018331B681F491846FBF7F8FF034619461C
:10437C002046FBF7EBFE03461A461D4B1C68104605
:10438C00FCF7B2F90346E363154B93F907301A4671
:10439C0013461B019B1A03F28B131846FBF78AFF7B
:1043AC0004467B681C331B6819461048FBF7CCFE8F
:1043BC0003460C491846FBF7D1FF03461946204625
:1043CC00FBF7C4FE03461A46094B1C681046FCF763
:1043DC008BF90346236400BF0C37BD4690BD00BF6C
:1043EC00940D00203333BB41A00E00200000C842C6
:1043FC00E80E002080B500AF00211048FDF77AFED2
:10440C0004210E48FDF776FE08210C48FDF772FEDC
:10441C000C210A48FDF76EFE00210948FDF76AFEE3
:10442C0004210748FDF766FE08210548FDF762FEEA
:10443C000C210348FDF75EFE00BF80BDA00E0020DE
:10444C00E80E002080B500AF00F0A2F80346002B68
:10445C0004D0034B1B6B0133014A136300BF80BDB7
:10446C009C0D002080B582B000AF786020220449FA
:10447C00786802F06BFA00BF0837BD4680BD00BFFC
:10448C00A00D002080B582B000AF03460A46FB7138
:10449C001346BB71154ABB791370144B1B78184625
:1044AC00FBF708FF034612491846FBF757FF034674
:1044BC0010491846FBF74AFE03461A460E4B1A647F
:1044CC00FB791846FBF7F6FE03460C491846FBF73A
:1044DC0045FF03460A491846FBF738FE03461A46C1
:1044EC00054B5A6400BF0837BD4680BD9C0D0020AB
:1044FC00CDCC6C3F0000A04108000020DEDD5D3E0D
:10450C000000C84180B500AF104B1B78C3F15003BD
:10451C001846FBF7CFFE03460D491846FBF71EFF66
:10452C0003460C491846FBF711FE03461A460A4B84
:10453C001A640A48FFF728FE4FF49670FCF756F9F8
:10454C000748FFF721FE00BF80BD00BF9C0D002077
:10455C00CDCC6C3F0000A0410800002038000020AA
:10456C00106D000880B483B000AF03460A46FB719F
:10457C001346BB71054AFB795370044ABB7993709F
:10458C0000BF0C37BD4680BC704700BF9C0D00209F
:10459C0080B400AF054B9B6B002B01D0012300E0D6
:1045AC0000231846BD4680BC704700BF9C0D002000
:1045BC0080B582B000AF7860114B00225A62104B6C
:1045CC000022DA627B6810330D4A53637B681B68E8
:1045DC000B4A93637B681A79094B83F83C207B6800
:1045EC00DB68074A13647B689B681846FBF75EFE22
:1045FC000346034A536400BF0837BD4680BD00BF65
:10460C009C0D002080B400AF094B00229A63084B2C
:10461C00002283F83C20064B00225A62044B0022F5
:10462C00DA62034B00221A6300BFBD4680BC7047A0
:10463C009C0D0020B0B588B000AF934BDB6A002B0B
:10464C0040F0BA81904B9B781846FBF733FE03463B
:10465C0019468E48FBF778FD03468D491846FBF743
:10466C007DFE03463B618B4B5B6939691846FBF752
:10467C006BFD03461A46884B5A61864B9B69396918
:10468C001846FBF761FD03461A46834B9A61814B32
:10469C005B6A39691846FBF759FD03461A467E4B8F
:1046AC005A627C4B9B6A39691846FBF74FFD0346EF
:1046BC001A46794B9A62774B5B6B39691846FBF754
:1046CC0045FD03461A46744B5A63724B9B6B396912
:1046DC001846FBF73BFD03461A466F4B9A636D4B2E
:1046EC005B6C39691846FBF72FFD03461A466A4B7B
:1046FC005A64684B9B6C39691846FBF725FD0346D9
:10470C001A46654B9A64634B5B6D39691846FBF727
:10471C001DFD03461A46604B5A655E4B9B6D39690D
:10472C001846FBF713FD03461A465B4B9A65594B2B
:10473C005B6E39691846FBF707FD03461A46564B64
:10474C005A66544B9B6E39691846FBF7FDFC0346C1
:10475C001A46514B9A664F4B5B6F39691846FBF7FB
:10476C00F3FC03461A464C4B5A674A4B9B6F39690C
:10477C001846FBF7E9FC03461A46474B9A67454B2C
:10478C00D3F8843039691846FBF7E0FC03461A4627
:10479C00414BC3F884203F4BD3F888303969184615
:1047AC00FBF7D4FC03461A463B4BC3F888204FF06A
:1047BC000003FB6039693948FBF7C6FC03461C460D
:1047CC0037493869FBF7C2FC034619462046FBF70C
:1047DC00BBFC034632491846FBF774FE0346BB602C
:1047EC00294B5B78592B78D82E49B868FBF76AFEB1
:1047FC0003461C46244B5B781846FBF75BFD0346CF
:10480C0019462848FBF7A0FC034619462046FBF73F
:10481C00A5FD0346FB60204B5B69F9681846FBF766
:10482C0093FC03461A461C4B5A611B4B9B69F96857
:10483C001846FBF789FC03461A46174B9A61164B30
:10484C005B6BF9681846FBF781FC03461A46124B62
:10485C005A63114B9B6BF9681846FBF777FC0346C0
:10486C001A460D4B9A630C4B5B6DF9681846FBF7B7
:10487C006DFC03461A46084B5A65074B9B6DF9684D
:10488C001846FBF763FC0FE09C0D00200000A042D3
:10489C006666E63E706E0008280300200000964213
:1048AC00000040400000B44203461A46834B9A6510
:1048BC00824B5B6FF9681846FBF746FC03461A46B9
:1048CC007E4B5A677D4B9B6FF9681846FBF73CFC97
:1048DC0003461A46794B9A676EE0794B5B785A2BF4
:1048EC006AD97849B868FBF7EDFD03461C46744B52
:1048FC005B781846FBF7DEFC034672491846FBF75B
:10490C0023FC034619462046FBF728FD0346FB60B3
:10491C006A4B5B6AF9681846FBF718FC03461A46A3
:10492C00664B5A62654B9B6AF9681846FBF70EFC9E
:10493C0003461A46614B9A62604B5B6CF9681846E9
:10494C00FBF702FC03461A465C4B5A645B4B9B6CB0
:10495C00F9681846FBF7F8FB03461A46574B9A645E
:10496C00564B5B6EF9681846FBF7EEFB03461A468E
:10497C00524B5A66514B9B6EF9681846FBF7E4FB99
:10498C0003461A464D4B9A664C4BD3F88430F96863
:10499C001846FBF7DBFB03461A46484BC3F884204A
:1049AC00464BD3F88830F9681846FBF7CFFB034623
:1049BC001A46424BC3F88820414B93F83C30002BED
:1049CC0005D03F4B5A6A3E4B9B6B9A420DD33C4BE6
:1049DC0093F83C30002B40F00D81394B5A6A384B20
:1049EC009B6B013B9A4280F00581354B5A6B344BE3
:1049FC005B6A5B0113447B60314B5A6A304B9B6B97
:104A0C00013B9A4203D12E4B5B6BFB6107E02C4BB5
:104A1C005A6B2B4B5B6A01335B011344FB61284BD4
:104A2C00DB6A002B40D14FF00003BB610023FB7508
:104A3C002AE0FB7D9B00FA6913441868FB7D9B0000
:104A4C007A6813441B681946FBF77EFB034623F078
:104A5C0000431946B869FBF71FFE0346002B10D024
:104A6C00FB7D9B00FA6913441868FB7D9B007A68F8
:104A7C0013441B681946FBF767FB034623F00043FE
:104A8C00BB61FB7D0133FB75FB7D082BD1D10C4B3E
:104A9C001B6C1946B869FBF715FD03461846FBF766
:104AAC0023FE0346064A9362054BDA6A044B9B6A63
:104ABC009A4200F096800023BB7585E02803002005
:104ACC009C0D00200000B442BB7D9B00FA6913448E
:104ADC001868BB7D9B007A6813441B681946FBF76A
:104AEC00F9FD0346002B36D0BB7D9B007A6813443E
:104AFC001D68BB7D9B00FA6913441868BB7D9B0045
:104B0C007A6813441B681946FBF71EFB03461C46C8
:104B1C00424B9B6A1846FBF7C9FB034619462046D5
:104B2C00FBF7D0FC03461C463C4BDB6A1846FBF7F4
:104B3C00BDFB034619462046FBF710FC0346BC7D23
:104B4C0019462846FBF702FB03461946334AA300D5
:104B5C001344596035E0BB7D9B007A6813441D6893
:104B6C00BB7D9B007A6813441868BB7D9B00FA6977
:104B7C0013441B681946FBF7E7FA03461C46274B00
:104B8C009B6A1846FBF792FB034619462046FBF737
:104B9C0099FC03461C46214BDB6A1846FBF786FB47
:104BAC00034619462046FBF7D9FB0346BC7D194644
:104BBC002846FBF7C9FA03461946184AA3001344C2
:104BCC005960BB7D0133BB75BB7D082B7FF47CAF7B
:104BDC001348FFF7D9FA114BDB6A01330F4AD36242
:104BEC0017E00E4B0022DA620C4B5B6A01330B4A66
:104BFC0053620EE0094B93F83C30002B06D0074B68
:104C0C0000225A62054B0022DA6202E0FFF7FAFC3E
:104C1C00FFE700BF2037BD46B0BD00BF9C0D002094
:104C2C00A00D002080B500AF0D4B9B6B002B14D05A
:104C3C000B4B1B6B1846FBF739FB0246084B5B6CA6
:104C4C0019461046FBF73CFD0346002B00D104E04F
:104C5C00FFF7F0FC024B00221A6300BF80BD00BFBF
:104C6C009C0D002080B400AF084B1B78002B08D0A3
:104C7C00064B5B68632B04D8044B5B680133034A17
:104C8C00536000BFBD4680BC704700BFE40D0020E0
:104C9C0080B500AF00F0A4FE00F072FC00BF80BD38
:104CAC0080B582B000AFFFF71BF80346002B0CD089
:104CBC00FEF7E6FF0346002B07D100F007FDB44BCF
:104CCC0000221A70B24B00225A60B24800F014FA5B
:104CDC000346FB71AE4B1B78002B05D0FB79002BE8
:104CEC0002D0AB4B00225A60FB79002B00F0BE8047
:104CFC00A74B1B78FA799A4200F0B880A44AFB794A
:104D0C001370FB79013B172B00F2A48001A252F81F
:104D1C0023F000BF814D0008894D0008914D00081B
:104D2C00994D0008A14D0008A94D0008B14D00088F
:104D3C00B94D0008C14D0008C94D0008D14D0008FF
:104D4C00D94D0008E14D0008E94D0008F14D00086F
:104D5C00F94D0008014E0008094E0008114E0008DC
:104D6C00294E0008414E0008494E0008514E0008DB
:104D7C00594E00088848FFF71BFC6BE08748FFF78B
:104D8C0017FC67E08648FFF713FC63E08548FFF7E4
:104D9C000FFC5FE08448FFF70BFC5BE08348FFF7F8
:104DAC0007FC57E08248FFF703FC53E08148FFF70C
:104DBC00FFFB4FE08048FFF7FBFB4BE07F48FFF722
:104DCC00F7FB47E07E48FFF7F3FB43E07D48FFF736
:104DDC00EFFB3FE07C48FFF7EBFB3BE07B48FFF74A
:104DEC00E7FB37E07A48FFF7E3FB33E07948FFF75E
:104DFC00DFFB2FE07848FFF7DBFB2BE07748FFF772
:104E0C00D7FB27E0624B1B7A614A527A114618464F
:104E1C00FFF738FB7248FFF7CBFB1BE05C4B1B7AB0
:104E2C005B4A527A11461846FFF79CFB6D48FFF718
:104E3C00BFFB0FE06C48FFF7BBFB0BE06B48FFF7C9
:104E4C00B7FB07E06A48FFF7B3FB03E0504B0022C7
:104E5C001A7000BF4E4B1B78002B52D04C4B1B785A
:104E6C00132B4ED00120FFF739F94AE0FB79002BC8
:104E7C0049D0474B1B78133B042B4DD801A252F859
:104E8C0023F000BFB74E0008A54E0008D94E00080D
:104E9C00EB4E0008FD4E00083D4B1B7A3C4A527A03
:104EAC0011461846FFF75EFB36E0FFF771FB034631
:104EBC00002B2AD1364B1B7A354A527A11461846AA
:104ECC00FFF7E0FA4B48FFF75FF91EE0FFF760FBD6
:104EDC000346002B1BD14848FFF76AFB17E0FFF78E
:104EEC0057FB0346002B14D14448FFF761FB10E03D
:104EFC00FFF74EFB0346002B0DD14148FFF758FB43
:104F0C0009E000BF08E000BF06E000BF04E000BFFE
:104F1C0002E000BF00E000BF1D4B5B68642B40F05B
:104F2C00D3801B4B1B78013B162B00F2CE8001A2C9
:104F3C0052F823F0115000081150000811500008CD
:104F4C0011500008115000081150000811500008B1
:104F5C0011500008115000081150000811500008A1
:104F6C001150000811500008115000081150000891
:104F7C001150000811500008115000082F50000863
:104F8C00115000084550000875500008A550000845
:104F9C00E40D0020EC0D0020506D0008E06D0008C1
:104FAC00706E0008006F0008906F000820700008F9
:104FBC00B070000840710008D071000860720008E1
:104FCC00F07200088073000810740008A0740008C8
:104FDC0030750008C075000850760008E0760008AF
:104FEC000800002028030020707700085079000882
:104FFC00707A00083800002040780008207A0008F9
:10500C00407B00080220FFF769F8334B00221A702E
:10501C00314B00225A60FFF7F5FA3048FFF7B4F82D
:10502C0053E02D4B00221A702B4B00225A60FFF7D5
:10503C00E9FAFFF767FA48E02948FFF713FA29481D
:10504C00FFF7B6FA01E0FFF7EDFDFFF7A1FA034613
:10505C00002BF8D10220FFF741F81F4B00221A70E9
:10506C001D4B00225A6030E01F48FFF7FBF91F4828
:10507C00FFF79EFA01E0FFF7D5FDFFF789FA03462B
:10508C00002BF8D10220FFF729F8134B00221A70DD
:10509C00114B00225A6018E01548FFF7E3F9154848
:1050AC00FFF786FA01E0FFF7BDFDFFF771FA034643
:1050BC00002BF8D10220FFF711F8074B00221A70D1
:1050CC00054B00225A6000E000BFFFF7ABFD00BFAC
:1050DC000837BD4680BD00BFE40D0020106D0008F0
:1050EC0068000020580000205801002048010020D2
:1050FC00480200203802002090B585B000AF7860DF
:10510C000023FB73FEF77CFD0346002B00F024828A
:10511C00FEF76CFD034601331B78313B1B2B00F271
:10512C00188201A252F823F0AF510008E151000897
:10513C00135200084552000877520008A952000883
:10514C005F5500085F5500085F5500085F55000863
:10515C005F5500085F5500085F5500085F55000853
:10516C00A55100085F5500085F5500085F55000801
:10517C005F550008F95300082B54000855540008DB
:10518C00795400087F540008955400081B550008FA
:10519C0065530008DB5200080221B848FEF70EFDEB
:1051AC00D7E1FEF723FD034603331B78332B0DD0D9
:1051BC00332B00F3BD81312B02D0322B03D0B7E15E
:1051CC000123FB7305E00223FB7302E00323FB7353
:1051DC0000BFADE1FEF70AFD034603331B78332B0A
:1051EC000DD0332B00F3A681312B02D0322B03D000
:1051FC00A0E10423FB7305E00523FB7302E0062307
:10520C00FB7300BF96E1FEF7F1FC034603331B78FA
:10521C00332B0DD0332B00F38F81312B02D0322B5B
:10522C0003D089E10723FB7305E00823FB7302E03D
:10523C000923FB7300BF7FE1FEF7D8FC0346033361
:10524C001B78332B0DD0332B00F37881312B02D00C
:10525C00322B03D072E10A23FB7305E00B23FB73A3
:10526C0002E00C23FB7300BF68E1FEF7BFFC0346B2
:10527C0003331B78332B0DD0332B00F36181312B8F
:10528C0002D0322B03D05BE10D23FB7305E00E2320
:10529C00FB7302E00F23FB7300BF51E1FEF7A6FC8A
:1052AC00034603331B78332B0DD0332B00F34A8189
:1052BC00312B02D0322B03D044E11023FB7305E0D9
:1052CC001123FB7302E01223FB7300BF3AE1FEF7DC
:1052DC008DFC034602331B781A46920013441A467F
:1052EC0091001A460B4613449B00DCB2FEF77EFC81
:1052FC00034603331B781A46920013445B00DBB25F
:10530C002344DCB2FEF772FC034604331B782344BF
:10531C00DBB23033DAB27B681A70FEF767FC0346F7
:10532C0006331B781A46920013445B00DCB2FEF77E
:10533C005DFC034607331B782344DAB27B680133E8
:10534C00103AD2B21A707B6801331B78502B00F2E2
:10535C00FB801323FB73F7E0FEF748FC0346023394
:10536C001B781A46920013441A4691001A460B46B3
:10537C0013449B00DCB2FEF739FC034603331B7865
:10538C001A46920013445B00DBB22344DCB2FEF7F6
:10539C002DFC034604331B782344DBB23033DAB2E2
:1053AC007B681A70FEF722FC034606331B781A46FC
:1053BC00920013445B00DCB2FEF718FC0346073383
:1053CC001B782344DAB27B680133103AD2B21A70DC
:1053DC007B681B78B42B00F2B9807B6801331B7897
:1053EC00502B00F2B3801423FB73AFE0FEF7FEFBEF
:1053FC00034602331B78332B0DD0332B00F3A880DC
:10540C00312B02D0322B03D0A2E01523FB7305E025
:10541C001623FB7302E01723FB7300BF98E0FEF723
:10542C00E5FB034602331B78303BDBB21846FEF734
:10543C0065FEFEF7DBFB034602331B78303BDBB229
:10544C00184600F003FA84E0FFF7DCF80020FEF7C2
:10545C0045FE0B48FEF798FE00F0A0F9034622210A
:10546C001846FEF7ABFB1823FB7372E000F018F93B
:10547C006FE00448FEF788FE6BE000BFF86C000894
:10548C00306D0008106D0008FEF7B0FB03460233C8
:10549C001B782D2B1ED1FEF7A9FB034603331C787A
:1054AC00FEF7A4FB034603331B78303BDBB25B00F7
:1054BC00DBB2E31ADBB2303BDBB25CB2FEF796FB3D
:1054CC00034604331B78303BDBB219462046FEF70B
:1054DC0041FE12E0FEF78AFB034603331B78303B98
:1054EC00DBB25CB2FEF782FB034604331B78303B25
:1054FC00DBB219462046FEF72DFEFEF721FE0346D1
:10550C00184600F055F91C48FEF73EFE21E0FEF768
:10551C006DFB034603F10C04FEF768FB03460233F4
:10552C001946204600F0A6F91448FEF72DFE10E0AF
:10553C0000BF0EE000BF0CE000BF0AE000BF08E0B7
:10554C0000BF06E000BF04E000BF02E000BF00E0C7
:10555C0000BFFEF715FB09E0FEF73AFA0346002BF5
:10556C0004D1FFF74FF80548FEF70EFEFB7B1846FB
:10557C001437BD4690BD00BF306D0008106D00089B
:10558C0080B500AF0F23034A03492320FEF74AFBE3
:10559C0000BF80BDC8030020B803002080B400AF5A
:1055AC003E4B1B78232B72D13C4B5B78432B6ED13B
:1055BC003A4B9B782B2B03D0384B9B782D2B66D1F9
:1055CC00364B1B792B2B03D0344B1B792D2B5ED1F7
:1055DC00324B9B792B2B03D0304B9B792D2B56D1F7
:1055EC002E4B1B7A2B2B03D02C4B1B7A2D2B4ED1F5
:1055FC002A4B9B7A2B2B03D0284B9B7A2D2B46D1F5
:10560C00264B1B7B2B2B03D0244B1B7B2D2B3ED1F2
:10561C00224B9B7B2B2B03D0204B9B7B2D2B36D1F2
:10562C001E4B1B7C2B2B03D01C4B1B7C2D2B2ED1F0
:10563C001A4BDB78392B2AD8184B5B79392B26D8A7
:10564C00164BDB79392B22D8144B5B7A392B1ED8AD
:10565C00124BDB7A392B1AD8104B5B7B392B16D8B3
:10566C000E4BDB7B392B12D80C4B5B7C392B0ED8B9
:10567C000A4B93F82030312B09D8084B93F8213082
:10568C000A2B04D1054B93F82230002B01D00023B8
:10569C0000E001231846BD4680BC70472C0E00204C
:1056AC0080B500AFFFF77AFF0346002B04D123220D
:1056BC000449054801F04AF923210348FEF7AAFBE7
:1056CC0000BF80BD507C00082C0E002080B500AFC0
:1056DC0023220749074801F039F923210448FEF732
:1056EC0099FB0549054800F0C5F800BF80BD00BF17
:1056FC00507C00082C0E0020420E00203E0E002094
:10570C0080B584B000AF7860396023212148FEF762
:10571C00F9FAFFF743FF0346002B04D123221E495D
:10572C001C4801F013F90023FB7324E0FB7B0133CD
:10573C00FB73FB7B5B00174AD35C2D2B0ED1FB7BE1
:10574C005B000133134AD35CC3F13003D9B2FB7B4A
:10575C00013B7A6813444AB21A700CE0FB7B5B0085
:10576C0001330C4AD35C303BD9B2FB7B013B7A68EA
:10577C0013444AB21A70FB7B082BD7D1054B93F814
:10578C002030303BDAB23B681A7000BF1037BD4690
:10579C0080BD00BF2C0E0020507C000880B400AFF0
:1057AC00024B1846BD4680BC704700BF2C0E002033
:1057BC0080B584B000AF78600023FB7331E0FB7BD5
:1057CC007A68134493F90030002B13DBFB7B013315
:1057DC005B001C4A2B21D154FB7B7A68134493F950
:1057EC000030DAB2FB7B5B0003333032D1B2154AA6
:1057FC00D15413E0FB7B01335B00124A2D21D154B1
:10580C00FB7B7A68134493F90030DAB2FB7B5B00C4
:10581C000333C2F13002D1B20A4AD154FB7B0133BB
:10582C00FB73FB7B082BCAD1FFF7B8FE0346002B9A
:10583C0004D123220449034801F088F800BF103733
:10584C00BD4680BD2C0E0020507C000880B582B077
:10585C0000AF0346FB71FB793033DAB2044B83F8AB
:10586C002020FFF71DFF00BF0837BD4680BD00BFDD
:10587C002C0E002080B584B000AF78603960FFF743
:10588C008DFE0346002B04D123224E494E4801F0D5
:10589C005DF87B681B681A464B4BC3F812200A2232
:1058AC0039684A4801F052F823214748FEF7B2FA0A
:1058BC0000224FF400614648FBF729FF4FF4C870F3
:1058CC00FAF794FF01224FF400614148FBF71FFFE8
:1058DC004FF4FA70FAF78AFF00BF4FF480713C481E
:1058EC00FBF7FEFE0346002BF7D14FF49670FAF748
:1058FC007DFF122000F0E6FD0346BB600622354911
:10590C00B86801F023F8BB6806337A6812681A602D
:10591C00BB680A3302223049184601F017F80C21F3
:10592C00B868FEF74BF93220FAF760FF07222B49D3
:10593C00B86801F00BF80A23FB7308E0FB7B013B12
:10594C00FB73FB7B3A6813441B78202B03D1FB7B46
:10595C00002BF3D100E000BFBB68D81DFB7B0133EB
:10596C001A46396800F0F2FFFB7B0833BA6813441F
:10597C0002221949184600F0E9FF0C21B868FEF71D
:10598C001DF91221B868FEF719F94FF44870FAF7AF
:10599C002DFF00224FF400610D48FBF7B8FE4FF4C9
:1059AC00C870FAF723FF01224FF400610848FBF797
:1059BC00AEFE4FF4FA70FAF719FF00BF1037BD4670
:1059CC0080BD00BF507C00082C0E0020420E002031
:1059DC0000080140FC6C0008046D0008086D00080C
:1059EC0080B582B000AF0023FB71FEF7A9FB024625
:1059FC00FB1D19461046FFF783FEFB791846FEF790
:105A0C007DFBFEF793FBFEF7F5FC0348FEF7BCFBB2
:105A1C0000BF0837BD4680BD106D000880B500AFD3
:105A2C00FAF782FE00F013F800F052FA00F050F88A
:105A3C0000F062F800F0D4F800F02CFA00F000FA54
:105A4C0000F066F9FFF724F9FFF72AF9FCE780B5B7
:105A5C0090B000AF07F1180328220021184600F07F
:105A6C0083FF3B1D00221A605A609A60DA601A614B
:105A7C000223BB610123BB621023FB6202237B6305
:105A8C000023BB634FF46013FB6307F11803184644
:105A9C00FBF76EFE0346002B01D000F07BFA0F23C0
:105AAC007B600223BB600023FB604FF480633B618F
:105ABC0000237B613B1D02211846FCF7DBF80346F3
:105ACC00002B01D000F066FA00BF4037BD4680BD08
